{
  "address": "0x76eceE334eC4776bcf787332D7392646f85968D2",
  "abi": [
    {
      "inputs": [],
      "stateMutability": "nonpayable",
      "type": "constructor"
    },
    {
      "inputs": [],
      "name": "InitializationFailed",
      "type": "error"
    },
    {
      "anonymous": false,
      "inputs": [
        {
          "indexed": false,
          "internalType": "address",
          "name": "account",
          "type": "address"
        },
        {
          "indexed": false,
          "internalType": "address",
          "name": "implementation",
          "type": "address"
        },
        {
          "indexed": false,
          "internalType": "uint256",
          "name": "chainId",
          "type": "uint256"
        },
        {
          "indexed": false,
          "internalType": "address",
          "name": "tokenContract",
          "type": "address"
        },
        {
          "indexed": false,
          "internalType": "uint256",
          "name": "tokenId",
          "type": "uint256"
        },
        {
          "indexed": false,
          "internalType": "uint256",
          "name": "salt",
          "type": "uint256"
        },
        {
          "indexed": false,
          "internalType": "address",
          "name": "calendarAddress",
          "type": "address"
        },
        {
          "indexed": false,
          "internalType": "uint256",
          "name": "timestamp",
          "type": "uint256"
        }
      ],
      "name": "AccountCreated",
      "type": "event"
    },
    {
      "anonymous": false,
      "inputs": [
        {
          "indexed": true,
          "internalType": "address",
          "name": "previousOwner",
          "type": "address"
        },
        {
          "indexed": true,
          "internalType": "address",
          "name": "newOwner",
          "type": "address"
        }
      ],
      "name": "OwnershipTransferred",
      "type": "event"
    },
    {
      "inputs": [
        {
          "internalType": "address",
          "name": "implementation",
          "type": "address"
        },
        {
          "internalType": "uint256",
          "name": "chainId",
          "type": "uint256"
        },
        {
          "internalType": "address",
          "name": "tokenContract",
          "type": "address"
        },
        {
          "internalType": "uint256",
          "name": "tokenId",
          "type": "uint256"
        },
        {
          "internalType": "uint256",
          "name": "salt",
          "type": "uint256"
        }
      ],
      "name": "account",
      "outputs": [
        {
          "internalType": "address",
          "name": "",
          "type": "address"
        }
      ],
      "stateMutability": "view",
      "type": "function"
    },
    {
      "inputs": [],
      "name": "accountCounter",
      "outputs": [
        {
          "internalType": "uint256",
          "name": "",
          "type": "uint256"
        }
      ],
      "stateMutability": "view",
      "type": "function"
    },
    {
      "inputs": [],
      "name": "calendarAddress",
      "outputs": [
        {
          "internalType": "address",
          "name": "",
          "type": "address"
        }
      ],
      "stateMutability": "view",
      "type": "function"
    },
    {
      "inputs": [
        {
          "internalType": "address",
          "name": "implementation",
          "type": "address"
        },
        {
          "internalType": "uint256",
          "name": "chainId",
          "type": "uint256"
        },
        {
          "internalType": "address",
          "name": "tokenContract",
          "type": "address"
        },
        {
          "internalType": "uint256",
          "name": "tokenId",
          "type": "uint256"
        },
        {
          "internalType": "uint256",
          "name": "salt",
          "type": "uint256"
        },
        {
          "internalType": "bytes",
          "name": "initData",
          "type": "bytes"
        }
      ],
      "name": "createAccount",
      "outputs": [
        {
          "internalType": "address",
          "name": "",
          "type": "address"
        }
      ],
      "stateMutability": "nonpayable",
      "type": "function"
    },
    {
      "inputs": [
        {
          "internalType": "address",
          "name": "accountAddress",
          "type": "address"
        }
      ],
      "name": "getAccountDetails",
      "outputs": [
        {
          "internalType": "address",
          "name": "",
          "type": "address"
        },
        {
          "internalType": "uint256",
          "name": "",
          "type": "uint256"
        },
        {
          "internalType": "address",
          "name": "",
          "type": "address"
        },
        {
          "internalType": "uint256",
          "name": "",
          "type": "uint256"
        },
        {
          "internalType": "uint256",
          "name": "",
          "type": "uint256"
        },
        {
          "internalType": "address",
          "name": "",
          "type": "address"
        }
      ],
      "stateMutability": "view",
      "type": "function"
    },
    {
      "inputs": [],
      "name": "getAllRegisteredNfts",
      "outputs": [
        {
          "components": [
            {
              "internalType": "address",
              "name": "tokenContract",
              "type": "address"
            },
            {
              "internalType": "uint256",
              "name": "tokenId",
              "type": "uint256"
            },
            {
              "internalType": "uint256",
              "name": "chainId",
              "type": "uint256"
            }
          ],
          "internalType": "struct BunyERC6551Registry.NftList[]",
          "name": "",
          "type": "tuple[]"
        }
      ],
      "stateMutability": "view",
      "type": "function"
    },
    {
      "inputs": [],
      "name": "owner",
      "outputs": [
        {
          "internalType": "address",
          "name": "",
          "type": "address"
        }
      ],
      "stateMutability": "view",
      "type": "function"
    },
    {
      "inputs": [
        {
          "internalType": "uint256",
          "name": "",
          "type": "uint256"
        }
      ],
      "name": "registeredNfts",
      "outputs": [
        {
          "internalType": "address",
          "name": "tokenContract",
          "type": "address"
        },
        {
          "internalType": "uint256",
          "name": "tokenId",
          "type": "uint256"
        },
        {
          "internalType": "uint256",
          "name": "chainId",
          "type": "uint256"
        }
      ],
      "stateMutability": "view",
      "type": "function"
    },
    {
      "inputs": [],
      "name": "renounceOwnership",
      "outputs": [],
      "stateMutability": "nonpayable",
      "type": "function"
    },
    {
      "inputs": [
        {
          "internalType": "address",
          "name": "_contractAddress",
          "type": "address"
        }
      ],
      "name": "setCalendarAddress",
      "outputs": [],
      "stateMutability": "nonpayable",
      "type": "function"
    },
    {
      "inputs": [
        {
          "internalType": "address",
          "name": "",
          "type": "address"
        }
      ],
      "name": "tokenBoundAccounts",
      "outputs": [
        {
          "internalType": "address",
          "name": "implementation",
          "type": "address"
        },
        {
          "internalType": "uint256",
          "name": "chainId",
          "type": "uint256"
        },
        {
          "internalType": "address",
          "name": "tokenContract",
          "type": "address"
        },
        {
          "internalType": "uint256",
          "name": "tokenId",
          "type": "uint256"
        },
        {
          "internalType": "uint256",
          "name": "salt",
          "type": "uint256"
        },
        {
          "internalType": "address",
          "name": "calendarAddress",
          "type": "address"
        }
      ],
      "stateMutability": "view",
      "type": "function"
    },
    {
      "inputs": [
        {
          "internalType": "address",
          "name": "newOwner",
          "type": "address"
        }
      ],
      "name": "transferOwnership",
      "outputs": [],
      "stateMutability": "nonpayable",
      "type": "function"
    }
  ],
  "transactionHash": "0x91892b45349d45ebf6547655b3138339ac587ee37b39f56e9dd78405b2f92ab3",
  "args": [],
  "numDeployments": 1,
  "solcInputHash": "fbb9335648d03e5db44b5f9a6ae9a578",
  "bytecode": "0x6080604052600060015534801561001557600080fd5b5061001f3361002d565b6100283361007d565b610157565b600080546001600160a01b038381166001600160a01b0319831681178455604051919092169283917f8be0079c531659141344cd1fd0a4f28419497f9722a3daafe3b4186f6b6457e09190a35050565b6100856100fb565b6001600160a01b0381166100ef5760405162461bcd60e51b815260206004820152602660248201527f4f776e61626c653a206e6577206f776e657220697320746865207a65726f206160448201526564647265737360d01b60648201526084015b60405180910390fd5b6100f88161002d565b50565b6000546001600160a01b031633146101555760405162461bcd60e51b815260206004820181905260248201527f4f776e61626c653a2063616c6c6572206973206e6f7420746865206f776e657260448201526064016100e6565b565b610cb8806101666000396000f3fe608060405234801561001057600080fd5b50600436106100b45760003560e01c80638da5cb5b116100715780638da5cb5b146102165780639b695a2b14610227578063a6e7997514610279578063da7323b314610290578063dd224ab1146102a3578063f2fde38b146102b657600080fd5b80631ad03156146100b95780632aceb534146100e957806344e8326f146101ac5780635e9bc536146101c1578063643733ad146101d4578063715018a61461020c575b600080fd5b6003546100cc906001600160a01b031681565b6040516001600160a01b0390911681526020015b60405180910390f35b61016c6100f7366004610a35565b6001600160a01b03908116600090815260026020818152604092839020835160c08101855281548616808252600183015493820184905293820154861694810185905260038201546060820181905260048301546080830181905260059093015490961660a090910181905292959194929091565b604080516001600160a01b0397881681526020810196909652938616938501939093526060840191909152608083015290911660a082015260c0016100e0565b6101b46102c9565b6040516100e09190610a50565b6100cc6101cf366004610ab2565b61034b565b6101e76101e2366004610b00565b61037a565b604080516001600160a01b0390941684526020840192909252908201526060016100e0565b6102146103b7565b005b6000546001600160a01b03166100cc565b61016c610235366004610a35565b60026020819052600091825260409091208054600182015492820154600383015460048401546005909401546001600160a01b039384169594928416939192911686565b61028260015481565b6040519081526020016100e0565b6100cc61029e366004610b19565b6103cb565b6102146102b1366004610a35565b610720565b6102146102c4366004610a35565b61074a565b60606004805480602002602001604051908101604052809291908181526020016000905b82821015610342576000848152602090819020604080516060810182526003860290920180546001600160a01b03168352600180820154848601526002909101549183019190915290835290920191016102ed565b50505050905090565b60008061035b87878787876107c8565b8051602090910120905061036f8382610831565b979650505050505050565b6004818154811061038a57600080fd5b60009182526020909120600390910201805460018201546002909201546001600160a01b03909116925083565b6103bf610845565b6103c9600061089f565b565b6000806103db89898989896107c8565b905060006103f38660001b8380519060200120610831565b90506001600160a01b0381163b1561040e57915061036f9050565b61041a600087846108ef565b905083156104a4576000816001600160a01b0316868660405161043e929190610bca565b6000604051808303816000865af19150503d806000811461047b576040519150601f19603f3d011682016040523d82523d6000602084013e610480565b606091505b50509050806104a257604051630337323560e31b815260040160405180910390fd5b505b600180549060006104b483610bda565b9190505550600460405180606001604052808a6001600160a01b031681526020018981526020018b815250908060018154018082558091505060019003906000526020600020906003020160009091909190915060008201518160000160006101000a8154816001600160a01b0302191690836001600160a01b03160217905550602082015181600101556040820151816002015550506040518060c001604052808b6001600160a01b031681526020018a8152602001896001600160a01b03168152602001888152602001878152602001600360009054906101000a90046001600160a01b03166001600160a01b031681525060026000836001600160a01b03166001600160a01b0316815260200190815260200160002060008201518160000160006101000a8154816001600160a01b0302191690836001600160a01b031602179055506020820151816001015560408201518160020160006101000a8154816001600160a01b0302191690836001600160a01b03160217905550606082015181600301556080820151816004015560a08201518160050160006101000a8154816001600160a01b0302191690836001600160a01b031602179055509050507f9127961586c085076a1d1ce4212848ba8c10ef08a1833f4275d48472ab58319f818b8b8b8b8b600360009054906101000a90046001600160a01b03164260405161070b9897969594939291906001600160a01b039889168152968816602088015260408701959095529286166060860152608085019190915260a084015290921660c082015260e08101919091526101000190565b60405180910390a19998505050505050505050565b610728610845565b600380546001600160a01b0319166001600160a01b0392909216919091179055565b610752610845565b6001600160a01b0381166107bc5760405162461bcd60e51b815260206004820152602660248201527f4f776e61626c653a206e6577206f776e657220697320746865207a65726f206160448201526564647265737360d01b60648201526084015b60405180910390fd5b6107c58161089f565b50565b60408051602081018390529081018590526001600160a01b0384166060828101919091526080820184905290869060a00160408051601f19818403018152908290526108179291602001610c01565b604051602081830303815290604052905095945050505050565b600061083e8383306109ef565b9392505050565b6000546001600160a01b031633146103c95760405162461bcd60e51b815260206004820181905260248201527f4f776e61626c653a2063616c6c6572206973206e6f7420746865206f776e657260448201526064016107b3565b600080546001600160a01b038381166001600160a01b0319831681178455604051919092169283917f8be0079c531659141344cd1fd0a4f28419497f9722a3daafe3b4186f6b6457e09190a35050565b6000834710156109415760405162461bcd60e51b815260206004820152601d60248201527f437265617465323a20696e73756666696369656e742062616c616e636500000060448201526064016107b3565b81516000036109925760405162461bcd60e51b815260206004820181905260248201527f437265617465323a2062797465636f6465206c656e677468206973207a65726f60448201526064016107b3565b8282516020840186f590506001600160a01b03811661083e5760405162461bcd60e51b8152602060048201526019602482015278437265617465323a204661696c6564206f6e206465706c6f7960381b60448201526064016107b3565b6000604051836040820152846020820152828152600b8101905060ff815360559020949350505050565b80356001600160a01b0381168114610a3057600080fd5b919050565b600060208284031215610a4757600080fd5b61083e82610a19565b602080825282518282018190526000919060409081850190868401855b82811015610aa557815180516001600160a01b0316855286810151878601528501518585015260609093019290850190600101610a6d565b5091979650505050505050565b600080600080600060a08688031215610aca57600080fd5b610ad386610a19565b945060208601359350610ae860408701610a19565b94979396509394606081013594506080013592915050565b600060208284031215610b1257600080fd5b5035919050565b600080600080600080600060c0888a031215610b3457600080fd5b610b3d88610a19565b965060208801359550610b5260408901610a19565b9450606088013593506080880135925060a088013567ffffffffffffffff80821115610b7d57600080fd5b818a0191508a601f830112610b9157600080fd5b813581811115610ba057600080fd5b8b6020828501011115610bb257600080fd5b60208301945080935050505092959891949750929550565b8183823760009101908152919050565b600060018201610bfa57634e487b7160e01b600052601160045260246000fd5b5060010190565b733d60ad80600a3d3981f3363d3d373d3d3d363d7360601b8152606083901b6bffffffffffffffffffffffff191660148201526e5af43d82803e903d91602b57fd5bf360881b60288201528151600090815b81811015610c705760208186018101516037868401015201610c53565b5060009201603701918252509291505056fea264697066735822122081e492e5575b1fd1c55b662b452aef6b86234aac375cabe9425b7bda6671b18464736f6c63430008130033",
  "devdoc": {
    "kind": "dev",
    "methods": {
      "owner()": {
        "details": "Returns the address of the current owner."
      },
      "renounceOwnership()": {
        "details": "Leaves the contract without owner. It will not be possible to call `onlyOwner` functions. Can only be called by the current owner. NOTE: Renouncing ownership will leave the contract without an owner, thereby disabling any functionality that is only available to the owner."
      },
      "transferOwnership(address)": {
        "details": "Transfers ownership of the contract to a new account (`newOwner`). Can only be called by the current owner."
      }
    },
    "version": 1
  },
  "userdoc": {
    "kind": "user",
    "methods": {},
    "version": 1
  },
  "storageLayout": {
    "storage": [
      {
        "astId": 7,
        "contract": "contracts/BunyERC6551Registry.sol:BunyERC6551Registry",
        "label": "_owner",
        "offset": 0,
        "slot": "0",
        "type": "t_address"
      },
      {
        "astId": 255,
        "contract": "contracts/BunyERC6551Registry.sol:BunyERC6551Registry",
        "label": "accountCounter",
        "offset": 0,
        "slot": "1",
        "type": "t_uint256"
      },
      {
        "astId": 260,
        "contract": "contracts/BunyERC6551Registry.sol:BunyERC6551Registry",
        "label": "tokenBoundAccounts",
        "offset": 0,
        "slot": "2",
        "type": "t_mapping(t_address,t_struct(IBunyAccount)297_storage)"
      },
      {
        "astId": 262,
        "contract": "contracts/BunyERC6551Registry.sol:BunyERC6551Registry",
        "label": "calendarAddress",
        "offset": 0,
        "slot": "3",
        "type": "t_address"
      },
      {
        "astId": 266,
        "contract": "contracts/BunyERC6551Registry.sol:BunyERC6551Registry",
        "label": "registeredNfts",
        "offset": 0,
        "slot": "4",
        "type": "t_array(t_struct(NftList)304_storage)dyn_storage"
      }
    ],
    "types": {
      "t_address": {
        "encoding": "inplace",
        "label": "address",
        "numberOfBytes": "20"
      },
      "t_array(t_struct(NftList)304_storage)dyn_storage": {
        "base": "t_struct(NftList)304_storage",
        "encoding": "dynamic_array",
        "label": "struct BunyERC6551Registry.NftList[]",
        "numberOfBytes": "32"
      },
      "t_mapping(t_address,t_struct(IBunyAccount)297_storage)": {
        "encoding": "mapping",
        "key": "t_address",
        "label": "mapping(address => struct BunyERC6551Registry.IBunyAccount)",
        "numberOfBytes": "32",
        "value": "t_struct(IBunyAccount)297_storage"
      },
      "t_struct(IBunyAccount)297_storage": {
        "encoding": "inplace",
        "label": "struct BunyERC6551Registry.IBunyAccount",
        "members": [
          {
            "astId": 286,
            "contract": "contracts/BunyERC6551Registry.sol:BunyERC6551Registry",
            "label": "implementation",
            "offset": 0,
            "slot": "0",
            "type": "t_address"
          },
          {
            "astId": 288,
            "contract": "contracts/BunyERC6551Registry.sol:BunyERC6551Registry",
            "label": "chainId",
            "offset": 0,
            "slot": "1",
            "type": "t_uint256"
          },
          {
            "astId": 290,
            "contract": "contracts/BunyERC6551Registry.sol:BunyERC6551Registry",
            "label": "tokenContract",
            "offset": 0,
            "slot": "2",
            "type": "t_address"
          },
          {
            "astId": 292,
            "contract": "contracts/BunyERC6551Registry.sol:BunyERC6551Registry",
            "label": "tokenId",
            "offset": 0,
            "slot": "3",
            "type": "t_uint256"
          },
          {
            "astId": 294,
            "contract": "contracts/BunyERC6551Registry.sol:BunyERC6551Registry",
            "label": "salt",
            "offset": 0,
            "slot": "4",
            "type": "t_uint256"
          },
          {
            "astId": 296,
            "contract": "contracts/BunyERC6551Registry.sol:BunyERC6551Registry",
            "label": "calendarAddress",
            "offset": 0,
            "slot": "5",
            "type": "t_address"
          }
        ],
        "numberOfBytes": "192"
      },
      "t_struct(NftList)304_storage": {
        "encoding": "inplace",
        "label": "struct BunyERC6551Registry.NftList",
        "members": [
          {
            "astId": 299,
            "contract": "contracts/BunyERC6551Registry.sol:BunyERC6551Registry",
            "label": "tokenContract",
            "offset": 0,
            "slot": "0",
            "type": "t_address"
          },
          {
            "astId": 301,
            "contract": "contracts/BunyERC6551Registry.sol:BunyERC6551Registry",
            "label": "tokenId",
            "offset": 0,
            "slot": "1",
            "type": "t_uint256"
          },
          {
            "astId": 303,
            "contract": "contracts/BunyERC6551Registry.sol:BunyERC6551Registry",
            "label": "chainId",
            "offset": 0,
            "slot": "2",
            "type": "t_uint256"
          }
        ],
        "numberOfBytes": "96"
      },
      "t_uint256": {
        "encoding": "inplace",
        "label": "uint256",
        "numberOfBytes": "32"
      }
    }
  }
}