{
  "address": "0xdb86b5CfC4B80e9546C3B3F108ee261d3C2E6361",
  "abi": [
    {
      "inputs": [
        {
          "internalType": "uint256",
          "name": "_size",
          "type": "uint256"
        },
        {
          "internalType": "uint256",
          "name": "_start",
          "type": "uint256"
        },
        {
          "internalType": "uint256",
          "name": "_end",
          "type": "uint256"
        }
      ],
      "name": "InvalidCodeAtRange",
      "type": "error"
    },
    {
      "anonymous": false,
      "inputs": [
        {
          "indexed": true,
          "internalType": "address",
          "name": "depositor",
          "type": "address"
        },
        {
          "indexed": false,
          "internalType": "uint256",
          "name": "amount",
          "type": "uint256"
        },
        {
          "indexed": false,
          "internalType": "uint256",
          "name": "timestamp",
          "type": "uint256"
        }
      ],
      "name": "NewDeposit",
      "type": "event"
    },
    {
      "anonymous": false,
      "inputs": [
        {
          "indexed": true,
          "internalType": "address",
          "name": "depositor",
          "type": "address"
        },
        {
          "indexed": true,
          "internalType": "address",
          "name": "tokenAddress",
          "type": "address"
        },
        {
          "indexed": false,
          "internalType": "uint256",
          "name": "amount",
          "type": "uint256"
        },
        {
          "indexed": false,
          "internalType": "uint256",
          "name": "timestamp",
          "type": "uint256"
        }
      ],
      "name": "NewERC20Deposit",
      "type": "event"
    },
    {
      "anonymous": false,
      "inputs": [
        {
          "indexed": true,
          "internalType": "address",
          "name": "depositor",
          "type": "address"
        },
        {
          "indexed": true,
          "internalType": "address",
          "name": "nftContractAddress",
          "type": "address"
        },
        {
          "indexed": false,
          "internalType": "uint256",
          "name": "tokenId",
          "type": "uint256"
        },
        {
          "indexed": false,
          "internalType": "uint256",
          "name": "timestamp",
          "type": "uint256"
        }
      ],
      "name": "NewNFTDeposit",
      "type": "event"
    },
    {
      "anonymous": false,
      "inputs": [
        {
          "indexed": false,
          "internalType": "string",
          "name": "title",
          "type": "string"
        },
        {
          "indexed": true,
          "internalType": "address",
          "name": "attendee",
          "type": "address"
        },
        {
          "indexed": false,
          "internalType": "uint256",
          "name": "startTime",
          "type": "uint256"
        },
        {
          "indexed": false,
          "internalType": "uint256",
          "name": "endTime",
          "type": "uint256"
        },
        {
          "indexed": false,
          "internalType": "uint256",
          "name": "timestamp",
          "type": "uint256"
        }
      ],
      "name": "NewPrivateEventCreated",
      "type": "event"
    },
    {
      "anonymous": false,
      "inputs": [
        {
          "indexed": false,
          "internalType": "uint256",
          "name": "eventID",
          "type": "uint256"
        },
        {
          "indexed": false,
          "internalType": "string",
          "name": "title",
          "type": "string"
        },
        {
          "indexed": false,
          "internalType": "address",
          "name": "invitee",
          "type": "address"
        }
      ],
      "name": "UserInvited",
      "type": "event"
    },
    {
      "anonymous": false,
      "inputs": [
        {
          "indexed": false,
          "internalType": "uint256",
          "name": "amount",
          "type": "uint256"
        },
        {
          "indexed": true,
          "internalType": "address",
          "name": "recipient",
          "type": "address"
        },
        {
          "indexed": false,
          "internalType": "uint256",
          "name": "timestamp",
          "type": "uint256"
        }
      ],
      "name": "WithdrawEvent",
      "type": "event"
    },
    {
      "inputs": [],
      "name": "accountName",
      "outputs": [
        {
          "internalType": "string",
          "name": "",
          "type": "string"
        }
      ],
      "stateMutability": "view",
      "type": "function"
    },
    {
      "inputs": [],
      "name": "calendarAddress",
      "outputs": [
        {
          "internalType": "address",
          "name": "",
          "type": "address"
        }
      ],
      "stateMutability": "view",
      "type": "function"
    },
    {
      "inputs": [
        {
          "internalType": "string",
          "name": "title",
          "type": "string"
        },
        {
          "internalType": "uint256",
          "name": "startTime",
          "type": "uint256"
        },
        {
          "internalType": "uint256",
          "name": "endTime",
          "type": "uint256"
        },
        {
          "internalType": "string",
          "name": "metadataURI",
          "type": "string"
        },
        {
          "internalType": "address[]",
          "name": "invitees",
          "type": "address[]"
        }
      ],
      "name": "createEvent",
      "outputs": [],
      "stateMutability": "nonpayable",
      "type": "function"
    },
    {
      "inputs": [],
      "name": "deposit",
      "outputs": [],
      "stateMutability": "payable",
      "type": "function"
    },
    {
      "inputs": [],
      "name": "depositCount",
      "outputs": [
        {
          "internalType": "uint256",
          "name": "",
          "type": "uint256"
        }
      ],
      "stateMutability": "view",
      "type": "function"
    },
    {
      "inputs": [
        {
          "internalType": "uint256",
          "name": "",
          "type": "uint256"
        }
      ],
      "name": "deposits",
      "outputs": [
        {
          "internalType": "address",
          "name": "depositor",
          "type": "address"
        },
        {
          "internalType": "address",
          "name": "tokenAddress",
          "type": "address"
        },
        {
          "internalType": "uint256",
          "name": "amount",
          "type": "uint256"
        },
        {
          "internalType": "uint256",
          "name": "timestamp",
          "type": "uint256"
        }
      ],
      "stateMutability": "view",
      "type": "function"
    },
    {
      "inputs": [
        {
          "internalType": "address",
          "name": "",
          "type": "address"
        }
      ],
      "name": "eventCount",
      "outputs": [
        {
          "internalType": "uint256",
          "name": "",
          "type": "uint256"
        }
      ],
      "stateMutability": "view",
      "type": "function"
    },
    {
      "inputs": [
        {
          "internalType": "uint256",
          "name": "",
          "type": "uint256"
        }
      ],
      "name": "eventCreators",
      "outputs": [
        {
          "internalType": "address",
          "name": "",
          "type": "address"
        }
      ],
      "stateMutability": "view",
      "type": "function"
    },
    {
      "inputs": [
        {
          "internalType": "uint256",
          "name": "",
          "type": "uint256"
        },
        {
          "internalType": "uint256",
          "name": "",
          "type": "uint256"
        }
      ],
      "name": "eventInvitations",
      "outputs": [
        {
          "internalType": "address",
          "name": "",
          "type": "address"
        }
      ],
      "stateMutability": "view",
      "type": "function"
    },
    {
      "inputs": [
        {
          "internalType": "address",
          "name": "to",
          "type": "address"
        },
        {
          "internalType": "uint256",
          "name": "value",
          "type": "uint256"
        },
        {
          "internalType": "bytes",
          "name": "data",
          "type": "bytes"
        }
      ],
      "name": "executeCall",
      "outputs": [
        {
          "internalType": "bytes",
          "name": "result",
          "type": "bytes"
        }
      ],
      "stateMutability": "payable",
      "type": "function"
    },
    {
      "inputs": [],
      "name": "getBalance",
      "outputs": [
        {
          "internalType": "uint256",
          "name": "",
          "type": "uint256"
        }
      ],
      "stateMutability": "view",
      "type": "function"
    },
    {
      "inputs": [
        {
          "internalType": "address",
          "name": "_erc20Token",
          "type": "address"
        }
      ],
      "name": "getTokenBalance",
      "outputs": [
        {
          "internalType": "uint256",
          "name": "",
          "type": "uint256"
        }
      ],
      "stateMutability": "view",
      "type": "function"
    },
    {
      "inputs": [
        {
          "internalType": "address",
          "name": "user",
          "type": "address"
        }
      ],
      "name": "getUserEvents",
      "outputs": [
        {
          "components": [
            {
              "internalType": "string",
              "name": "title",
              "type": "string"
            },
            {
              "internalType": "address",
              "name": "attendee",
              "type": "address"
            },
            {
              "internalType": "uint256",
              "name": "startTime",
              "type": "uint256"
            },
            {
              "internalType": "uint256",
              "name": "endTime",
              "type": "uint256"
            },
            {
              "internalType": "address",
              "name": "calendar",
              "type": "address"
            }
          ],
          "internalType": "struct BunyERC6551Account.CalendarEvent[]",
          "name": "",
          "type": "tuple[]"
        }
      ],
      "stateMutability": "view",
      "type": "function"
    },
    {
      "inputs": [
        {
          "internalType": "bytes32",
          "name": "hash",
          "type": "bytes32"
        },
        {
          "internalType": "bytes",
          "name": "signature",
          "type": "bytes"
        }
      ],
      "name": "isValidSignature",
      "outputs": [
        {
          "internalType": "bytes4",
          "name": "magicValue",
          "type": "bytes4"
        }
      ],
      "stateMutability": "view",
      "type": "function"
    },
    {
      "inputs": [],
      "name": "nftDepositCount",
      "outputs": [
        {
          "internalType": "uint256",
          "name": "",
          "type": "uint256"
        }
      ],
      "stateMutability": "view",
      "type": "function"
    },
    {
      "inputs": [
        {
          "internalType": "uint256",
          "name": "",
          "type": "uint256"
        }
      ],
      "name": "nftDeposits",
      "outputs": [
        {
          "internalType": "address",
          "name": "depositor",
          "type": "address"
        },
        {
          "internalType": "address",
          "name": "nftContractAddress",
          "type": "address"
        },
        {
          "internalType": "uint256",
          "name": "tokenId",
          "type": "uint256"
        },
        {
          "internalType": "uint256",
          "name": "timestamp",
          "type": "uint256"
        }
      ],
      "stateMutability": "view",
      "type": "function"
    },
    {
      "inputs": [],
      "name": "nonce",
      "outputs": [
        {
          "internalType": "uint256",
          "name": "",
          "type": "uint256"
        }
      ],
      "stateMutability": "view",
      "type": "function"
    },
    {
      "inputs": [],
      "name": "owner",
      "outputs": [
        {
          "internalType": "address",
          "name": "",
          "type": "address"
        }
      ],
      "stateMutability": "view",
      "type": "function"
    },
    {
      "inputs": [
        {
          "internalType": "address",
          "name": "_erc20Token",
          "type": "address"
        },
        {
          "internalType": "uint256",
          "name": "amount",
          "type": "uint256"
        }
      ],
      "name": "receiveERC20",
      "outputs": [],
      "stateMutability": "payable",
      "type": "function"
    },
    {
      "inputs": [
        {
          "internalType": "address",
          "name": "_nftContract",
          "type": "address"
        },
        {
          "internalType": "uint256",
          "name": "_tokenId",
          "type": "uint256"
        }
      ],
      "name": "receiveNFT",
      "outputs": [],
      "stateMutability": "nonpayable",
      "type": "function"
    },
    {
      "inputs": [
        {
          "internalType": "string",
          "name": "newName",
          "type": "string"
        }
      ],
      "name": "setAccountName",
      "outputs": [],
      "stateMutability": "nonpayable",
      "type": "function"
    },
    {
      "inputs": [
        {
          "internalType": "address",
          "name": "_contractAddress",
          "type": "address"
        }
      ],
      "name": "setCalendarAddress",
      "outputs": [],
      "stateMutability": "nonpayable",
      "type": "function"
    },
    {
      "inputs": [
        {
          "internalType": "bytes4",
          "name": "interfaceId",
          "type": "bytes4"
        }
      ],
      "name": "supportsInterface",
      "outputs": [
        {
          "internalType": "bool",
          "name": "",
          "type": "bool"
        }
      ],
      "stateMutability": "pure",
      "type": "function"
    },
    {
      "inputs": [],
      "name": "token",
      "outputs": [
        {
          "internalType": "uint256",
          "name": "chainId",
          "type": "uint256"
        },
        {
          "internalType": "address",
          "name": "tokenContract",
          "type": "address"
        },
        {
          "internalType": "uint256",
          "name": "tokenId",
          "type": "uint256"
        }
      ],
      "stateMutability": "view",
      "type": "function"
    },
    {
      "inputs": [],
      "name": "totalEvents",
      "outputs": [
        {
          "internalType": "uint256",
          "name": "",
          "type": "uint256"
        }
      ],
      "stateMutability": "view",
      "type": "function"
    },
    {
      "inputs": [
        {
          "internalType": "address",
          "name": "",
          "type": "address"
        },
        {
          "internalType": "uint256",
          "name": "",
          "type": "uint256"
        }
      ],
      "name": "userEvents",
      "outputs": [
        {
          "internalType": "string",
          "name": "title",
          "type": "string"
        },
        {
          "internalType": "address",
          "name": "attendee",
          "type": "address"
        },
        {
          "internalType": "uint256",
          "name": "startTime",
          "type": "uint256"
        },
        {
          "internalType": "uint256",
          "name": "endTime",
          "type": "uint256"
        },
        {
          "internalType": "address",
          "name": "calendar",
          "type": "address"
        }
      ],
      "stateMutability": "view",
      "type": "function"
    },
    {
      "inputs": [
        {
          "internalType": "address",
          "name": "",
          "type": "address"
        },
        {
          "internalType": "uint256",
          "name": "",
          "type": "uint256"
        }
      ],
      "name": "userPrivateEvents",
      "outputs": [
        {
          "internalType": "string",
          "name": "title",
          "type": "string"
        },
        {
          "internalType": "address",
          "name": "attendee",
          "type": "address"
        },
        {
          "internalType": "uint256",
          "name": "startTime",
          "type": "uint256"
        },
        {
          "internalType": "uint256",
          "name": "endTime",
          "type": "uint256"
        }
      ],
      "stateMutability": "view",
      "type": "function"
    },
    {
      "inputs": [
        {
          "internalType": "uint256",
          "name": "",
          "type": "uint256"
        }
      ],
      "name": "users",
      "outputs": [
        {
          "internalType": "address",
          "name": "",
          "type": "address"
        }
      ],
      "stateMutability": "view",
      "type": "function"
    },
    {
      "inputs": [
        {
          "internalType": "uint256",
          "name": "amount",
          "type": "uint256"
        }
      ],
      "name": "withdraw",
      "outputs": [],
      "stateMutability": "nonpayable",
      "type": "function"
    },
    {
      "inputs": [
        {
          "internalType": "address payable",
          "name": "recipient",
          "type": "address"
        },
        {
          "internalType": "uint256",
          "name": "amount",
          "type": "uint256"
        }
      ],
      "name": "withdrawTo",
      "outputs": [],
      "stateMutability": "nonpayable",
      "type": "function"
    },
    {
      "stateMutability": "payable",
      "type": "receive"
    }
  ],
  "transactionHash": "0x6983451524549e5b7eb3e940785d97ce2003fa80e4570e64ba0c74053ef69de4",
  "args": [],
  "numDeployments": 1,
  "solcInputHash": "efce2c2ceb8b7330646187f648dded0f",
  "bytecode": "0x60c0604052601f60809081527f4461696c792054656c6f7320546f6b656e204f776e6564204163636f756e740060a0526001906200003e908262000102565b5060006002556000600e553480156200005657600080fd5b50620001ce565b634e487b7160e01b600052604160045260246000fd5b600181811c908216806200008857607f821691505b602082108103620000a957634e487b7160e01b600052602260045260246000fd5b50919050565b601f821115620000fd57600081815260208120601f850160051c81016020861015620000d85750805b601f850160051c820191505b81811015620000f957828155600101620000e4565b5050505b505050565b81516001600160401b038111156200011e576200011e6200005d565b62000136816200012f845462000073565b84620000af565b602080601f8311600181146200016e5760008415620001555750858301515b600019600386901b1c1916600185901b178555620000f9565b600085815260208120601f198616915b828110156200019f578886015182559484019460019091019084016200017e565b5085821015620001be5787850151600019600388901b60f8161c191681555b5050505050600190811b01905550565b61238480620001de6000396000f3fe6080604052600436106101915760003560e01c80638da5cb5b116100d7578063ba87068611610085578063ba8706861461052a578063bdfc989314610540578063c5e5798514610571578063d0e30db014610586578063dd224ab11461058e578063ef7e1f68146105ae578063f4a693f0146105ce578063fc0c546a146105e457600080fd5b80638da5cb5b1461042c57806395fa6c50146104415780639e5d4c4914610461578063aed4aab614610481578063affed0e014610494578063b02c43d0146104a9578063b4a8121d146104fa57600080fd5b80632dfdf0b51161013f5780632dfdf0b5146103295780632e1a7d4d1461033f5780632e95adad1461035f578063319d63e51461037f578063365b98b21461039f5780633aecd0e3146103bf578063455f20dc146103df5780637dfbfb431461040c57600080fd5b806301ffc9a71461019d57806312065fe0146101d25780631626ba7e146101ef578063171e5ba2146102285780631ad03156146102555780631bc5fc961461028d578063205c28781461030757600080fd5b3661019857005b600080fd5b3480156101a957600080fd5b506101bd6101b8366004611a82565b61061c565b60405190151581526020015b60405180910390f35b3480156101de57600080fd5b50475b6040519081526020016101c9565b3480156101fb57600080fd5b5061020f61020a366004611b49565b61066e565b6040516001600160e01b031990911681526020016101c9565b34801561023457600080fd5b50610248610243366004611bbb565b6106ac565b6040516101c99190611c28565b34801561026157600080fd5b50600754610275906001600160a01b031681565b6040516001600160a01b0390911681526020016101c9565b34801561029957600080fd5b506102dc6102a8366004611cc9565b600d6020526000908152604090208054600182015460028301546003909301546001600160a01b0392831693919092169184565b604080516001600160a01b0395861681529490931660208501529183015260608201526080016101c9565b34801561031357600080fd5b50610327610322366004611ce2565b6107ed565b005b34801561033557600080fd5b506101e160025481565b34801561034b57600080fd5b5061032761035a366004611cc9565b610889565b34801561036b57600080fd5b5061032761037a366004611d2e565b61094c565b34801561038b57600080fd5b5061032761039a366004611ce2565b6109de565b3480156103ab57600080fd5b506102756103ba366004611cc9565b610be9565b3480156103cb57600080fd5b506101e16103da366004611bbb565b610c13565b3480156103eb57600080fd5b506101e16103fa366004611bbb565b600c6020526000908152604090205481565b34801561041857600080fd5b50610327610427366004611d6a565b610c7e565b34801561043857600080fd5b5061027561101e565b34801561044d57600080fd5b5061027561045c366004611cc9565b61110e565b61047461046f366004611e76565b61111e565b6040516101c99190611efe565b61032761048f366004611ce2565b61120c565b3480156104a057600080fd5b506000546101e1565b3480156104b557600080fd5b506102dc6104c4366004611cc9565b600360208190526000918252604090912080546001820154600283015492909301546001600160a01b0391821693909116919084565b34801561050657600080fd5b5061051a610515366004611ce2565b611308565b6040516101c99493929190611f11565b34801561053657600080fd5b506101e1600b5481565b34801561054c57600080fd5b5061056061055b366004611ce2565b6113e9565b6040516101c9959493929190611f49565b34801561057d57600080fd5b506104746114d1565b61032761155f565b34801561059a57600080fd5b506103276105a9366004611bbb565b611683565b3480156105ba57600080fd5b506102756105c9366004611f8e565b61171c565b3480156105da57600080fd5b506101e1600e5481565b3480156105f057600080fd5b506105f9611754565b604080519384526001600160a01b039092166020840152908201526060016101c9565b60006001600160e01b031982166301ffc9a760e01b148061064d57506001600160e01b03198216630801407360e31b145b8061066857506001600160e01b03198216630b135d3f60e11b145b92915050565b60008061068361067c61101e565b8585611790565b9050801561069b5750630b135d3f60e11b9050610668565b506001600160e01b03199392505050565b6001600160a01b0381166000908152600660209081526040808320805482518185028101850190935280835260609492939192909184015b828210156107e257838290600052602060002090600502016040518060a001604052908160008201805461071790611fb0565b80601f016020809104026020016040519081016040528092919081815260200182805461074390611fb0565b80156107905780601f1061076557610100808354040283529160200191610790565b820191906000526020600020905b81548152906001019060200180831161077357829003601f168201915b50505091835250506001828101546001600160a01b03908116602080850191909152600285015460408501526003850154606085015260049094015416608090920191909152918352920191016106e4565b505050509050919050565b6107f561101e565b6001600160a01b0316336001600160a01b03161461082e5760405162461bcd60e51b815260040161082590611fea565b60405180910390fd5b4781111561084e5760405162461bcd60e51b81526004016108259061202c565b6040516001600160a01b0383169082156108fc029083906000818181858888f19350505050158015610884573d6000803e3d6000fd5b505050565b61089161101e565b6001600160a01b0316336001600160a01b0316146108c15760405162461bcd60e51b815260040161082590611fea565b478111156108e15760405162461bcd60e51b81526004016108259061202c565b604051339082156108fc029083906000818181858888f1935050505015801561090e573d6000803e3d6000fd5b506040805182815242602082015233917f8cf1dfe3b4685982358f16fbcb1d9192f7945d25d503b15a39bd2bf5dfc6bf7a910160405180910390a250565b61095461101e565b6001600160a01b0316336001600160a01b0316146109ce5760405162461bcd60e51b815260206004820152603160248201527f4f6e6c792074686520636f6e7472616374206f776e65722063616e207365742060448201527074686520636f6e7472616374206e616d6560781b6064820152608401610825565b60016109da82826120a9565b5050565b6040516331a9108f60e11b81526004810182905282906001600160a01b03821690636352211e90602401602060405180830381865afa158015610a25573d6000803e3d6000fd5b505050506040513d601f19601f82011682018060405250810190610a499190612168565b6001600160a01b0316336001600160a01b031614610ab55760405162461bcd60e51b815260206004820152602360248201527f43616c6c6572206973206e6f7420746865206f776e6572206f6620746869732060448201526213919560ea1b6064820152608401610825565b6040516323b872dd60e01b8152336004820152306024820152604481018390526001600160a01b038216906323b872dd90606401600060405180830381600087803b158015610b0357600080fd5b505af1158015610b17573d6000803e3d6000fd5b5050600e8054925090506000610b2c8361219b565b909155505060408051608081018252338082526001600160a01b0386811660208085018281528587018981524260608801818152600e546000908152600d86528a9020985189549088166001600160a01b0319918216178a55935160018a01805491909816941693909317909555516002870155516003909501949094558451878152938401919091529290917f60a31190882340f80c8c258e4b073d3a4ee6fbef12f5e12063dc7be0ef1ed4eb910160405180910390a3505050565b60098181548110610bf957600080fd5b6000918252602090912001546001600160a01b0316905081565b6040516370a0823160e01b81523060048201526000906001600160a01b038316906370a0823190602401602060405180830381865afa158015610c5a573d6000803e3d6000fd5b505050506040513d601f19601f8201168201806040525081019061066891906121b4565b610c8661101e565b6001600160a01b0316336001600160a01b031614610cf85760405162461bcd60e51b815260206004820152602960248201527f4f6e6c79204e4654206f776e65722063616e206372656174652063616c656e646044820152686172206576656e747360b81b6064820152608401610825565b600754604051637dfbfb4360e01b81526001600160a01b03909116908190637dfbfb4390610d3290899089908990899089906004016121cd565b600060405180830381600087803b158015610d4c57600080fd5b505af1158015610d60573d6000803e3d6000fd5b50505050610da86040518060a001604052806060815260200160006001600160a01b03168152602001600081526020016000815260200160006001600160a01b031681525090565b868152604080820187905260608201869052306020808401919091526007546001600160a01b03166080840152336000908152600682529182208054600181018255908352912082518392600502909101908190610e0690826120a9565b50602082810151600180840180546001600160a01b039384166001600160a01b03199182161790915560408087015160028701556060870151600387015560809096015160049095018054959093169416939093179055336000908152600690915291822054610e76919061224d565b600b80549192506000610e888361219b565b909155505033600090815260066020526040902054600103610f1f576009805460018082019092557f6e1540171b6c0c960b71a7020d9f60077f6af931a8bbf590da0223dacf75c7af018054336001600160a01b03199182168117909255600a805493840181556000527fc65a7bb8d6351c1cf70c95a316cc6a92839c986682d98bc35f958f4883f9d2a890920180549092161790555b336000908152600c60205260408120805491610f3a8361219b565b919050555060005b84518110156110135760008281526008602052604090208551869083908110610f6d57610f6d612260565b60209081029190910181015182546001810184556000938452919092200180546001600160a01b0319166001600160a01b0390921691909117905584517fd48873c66feece7bbf3cbcd8d14102600b7da47eac54823e0441effd7da44c5e9083908b90889085908110610fe257610fe2612260565b6020026020010151604051610ff993929190612276565b60405180910390a18061100b8161219b565b915050610f42565b505050505050505050565b600080600080306001600160a01b031663fc0c546a6040518163ffffffff1660e01b8152600401606060405180830381865afa158015611062573d6000803e3d6000fd5b505050506040513d601f19601f8201168201806040525081019061108691906122a7565b92509250925046831461109d576000935050505090565b6040516331a9108f60e11b8152600481018290526001600160a01b03831690636352211e90602401602060405180830381865afa1580156110e2573d6000803e3d6000fd5b505050506040513d601f19601f820116820180604052508101906111069190612168565b935050505090565b600a8181548110610bf957600080fd5b606061112861101e565b6001600160a01b0316336001600160a01b03161461117a5760405162461bcd60e51b815260206004820152600f60248201526e2737ba103a37b5b2b71037bbb732b960891b6044820152606401610825565b6000856001600160a01b03168585856040516111979291906122e0565b60006040518083038185875af1925050503d80600081146111d4576040519150601f19603f3d011682016040523d82523d6000602084013e6111d9565b606091505b5092509050806111eb57815160208301fd5b60016000808282546111fd91906122f0565b90915550919695505050505050565b6001600160a01b038216600090815260046020526040812080548392906112349084906122f0565b9091555050600280549060006112498361219b565b909155505060408051608081018252338082526001600160a01b03858116602080850182815285870188815242606088018181526002805460009081526003808852908c90209a518b54908a166001600160a01b0319918216178c55955160018c01805491909a16961695909517909755915195880195909555519501949094558451348152938401919091529290917f15813e9564c507bcbca7412d2ad13afab5e7278037d8d5e34f8bb00baea2140a910160405180910390a35050565b6005602052816000526040600020818154811061132457600080fd5b90600052602060002090600402016000915091505080600001805461134890611fb0565b80601f016020809104026020016040519081016040528092919081815260200182805461137490611fb0565b80156113c15780601f10611396576101008083540402835291602001916113c1565b820191906000526020600020905b8154815290600101906020018083116113a457829003601f168201915b505050506001830154600284015460039094015492936001600160a01b039091169290915084565b6006602052816000526040600020818154811061140557600080fd5b90600052602060002090600502016000915091505080600001805461142990611fb0565b80601f016020809104026020016040519081016040528092919081815260200182805461145590611fb0565b80156114a25780601f10611477576101008083540402835291602001916114a2565b820191906000526020600020905b81548152906001019060200180831161148557829003601f168201915b50505060018401546002850154600386015460049096015494956001600160a01b039283169591945092501685565b600180546114de90611fb0565b80601f016020809104026020016040519081016040528092919081815260200182805461150a90611fb0565b80156115575780601f1061152c57610100808354040283529160200191611557565b820191906000526020600020905b81548152906001019060200180831161153a57829003601f168201915b505050505081565b600034116115be5760405162461bcd60e51b815260206004820152602660248201527f4465706f73697420616d6f756e74206d757374206265206772656174657220746044820152653430b710181760d11b6064820152608401610825565b600280549060006115ce8361219b565b90915550506040805160808101825233808252600060208084018281523485870181815242606088018181526002805488526003808852978b902099518a546001600160a01b03199081166001600160a01b03928316178c55965160018c0180549098169116179095559151938801939093555195909301949094558451918252810192909252917fa91e0c3165215fe453f5bf3de083d5fd6c4e62c491849155a042a647588c53a0910160405180910390a2565b61168b61101e565b6001600160a01b0316336001600160a01b0316146116fa5760405162461bcd60e51b815260206004820152602660248201527f4f6e6c79206f776e65722063616e206372656174652063616c656e646172206560448201526503b32b73a39960d51b6064820152608401610825565b600780546001600160a01b0319166001600160a01b0392909216919091179055565b6008602052816000526040600020818154811061173857600080fd5b6000918252602090912001546001600160a01b03169150829050565b6000808030803b906117719061176b60608461224d565b836117f3565b80602001905181019061178491906122a7565b93509350935050909192565b600080600061179f85856118a8565b909250905060008160038111156117b8576117b8612303565b1480156117d65750856001600160a01b0316826001600160a01b0316145b806117e757506117e78686866118ed565b925050505b9392505050565b6060833b60008190036118165750506040805160208101909152600081526117ec565b808411156118345750506040805160208101909152600081526117ec565b838310156118665760405163162544fd60e11b8152600481018290526024810185905260448101849052606401610825565b838303848203600082821061187b578261187d565b815b60408051603f8301601f19168101909152818152955090508087602087018a3c505050509392505050565b60008082516041036118de5760208301516040840151606085015160001a6118d2878285856119c8565b945094505050506118e6565b506000905060025b9250929050565b6000806000856001600160a01b0316858560405160240161190f929190612319565b60408051601f198184030181529181526020820180516001600160e01b0316630b135d3f60e11b179052516119449190612332565b600060405180830381855afa9150503d806000811461197f576040519150601f19603f3d011682016040523d82523d6000602084013e611984565b606091505b509150915081801561199857506020815110155b80156117e757508051630b135d3f60e11b906119bd90830160209081019084016121b4565b149695505050505050565b6000806fa2a8918ca85bafe22016d0b997e4df60600160ff1b038311156119f55750600090506003611a79565b6040805160008082526020820180845289905260ff881692820192909252606081018690526080810185905260019060a0016020604051602081039080840390855afa158015611a49573d6000803e3d6000fd5b5050604051601f1901519150506001600160a01b038116611a7257600060019250925050611a79565b9150600090505b94509492505050565b600060208284031215611a9457600080fd5b81356001600160e01b0319811681146117ec57600080fd5b634e487b7160e01b600052604160045260246000fd5b604051601f8201601f191681016001600160401b0381118282101715611aea57611aea611aac565b604052919050565b60006001600160401b03831115611b0b57611b0b611aac565b611b1e601f8401601f1916602001611ac2565b9050828152838383011115611b3257600080fd5b828260208301376000602084830101529392505050565b60008060408385031215611b5c57600080fd5b8235915060208301356001600160401b03811115611b7957600080fd5b8301601f81018513611b8a57600080fd5b611b9985823560208401611af2565b9150509250929050565b6001600160a01b0381168114611bb857600080fd5b50565b600060208284031215611bcd57600080fd5b81356117ec81611ba3565b60005b83811015611bf3578181015183820152602001611bdb565b50506000910152565b60008151808452611c14816020860160208601611bd8565b601f01601f19169290920160200192915050565b60006020808301818452808551808352604092508286019150828160051b87010184880160005b83811015611cbb57603f19898403018552815160a08151818652611c7582870182611bfc565b838b01516001600160a01b03908116888d01528a8501518b8901526060808601519089015260809485015116939096019290925250509386019390860190600101611c4f565b509098975050505050505050565b600060208284031215611cdb57600080fd5b5035919050565b60008060408385031215611cf557600080fd5b8235611d0081611ba3565b946020939093013593505050565b600082601f830112611d1f57600080fd5b6117ec83833560208501611af2565b600060208284031215611d4057600080fd5b81356001600160401b03811115611d5657600080fd5b611d6284828501611d0e565b949350505050565b600080600080600060a08688031215611d8257600080fd5b85356001600160401b0380821115611d9957600080fd5b611da589838a01611d0e565b96506020915081880135955060408801359450606088013581811115611dca57600080fd5b611dd68a828b01611d0e565b945050608088013581811115611deb57600080fd5b8801601f81018a13611dfc57600080fd5b803582811115611e0e57611e0e611aac565b8060051b9250611e1f848401611ac2565b818152928201840192848101908c851115611e3957600080fd5b928501925b84841015611e635783359250611e5383611ba3565b8282529285019290850190611e3e565b8096505050505050509295509295909350565b60008060008060608587031215611e8c57600080fd5b8435611e9781611ba3565b93506020850135925060408501356001600160401b0380821115611eba57600080fd5b818701915087601f830112611ece57600080fd5b813581811115611edd57600080fd5b886020828501011115611eef57600080fd5b95989497505060200194505050565b6020815260006117ec6020830184611bfc565b608081526000611f246080830187611bfc565b6001600160a01b03959095166020830152506040810192909252606090910152919050565b60a081526000611f5c60a0830188611bfc565b6001600160a01b0396871660208401526040830195909552506060810192909252909216608090920191909152919050565b60008060408385031215611fa157600080fd5b50508035926020909101359150565b600181811c90821680611fc457607f821691505b602082108103611fe457634e487b7160e01b600052602260045260246000fd5b50919050565b60208082526022908201527f4f6e6c7920746865206f776e65722063616e2077697468647261772066756e64604082015261399760f11b606082015260800190565b60208082526015908201527424b739bab33334b1b4b2b73a103130b630b731b29760591b604082015260600190565b601f82111561088457600081815260208120601f850160051c810160208610156120825750805b601f850160051c820191505b818110156120a15782815560010161208e565b505050505050565b81516001600160401b038111156120c2576120c2611aac565b6120d6816120d08454611fb0565b8461205b565b602080601f83116001811461210b57600084156120f35750858301515b600019600386901b1c1916600185901b1785556120a1565b600085815260208120601f198616915b8281101561213a5788860151825594840194600190910190840161211b565b50858210156121585787850151600019600388901b60f8161c191681555b5050505050600190811b01905550565b60006020828403121561217a57600080fd5b81516117ec81611ba3565b634e487b7160e01b600052601160045260246000fd5b6000600182016121ad576121ad612185565b5060010190565b6000602082840312156121c657600080fd5b5051919050565b60a0815260006121e060a0830188611bfc565b6020878185015286604085015283820360608501526121ff8287611bfc565b8481036080860152855180825282870193509082019060005b8181101561223d5784516001600160a01b031683529383019391830191600101612218565b50909a9950505050505050505050565b8181038181111561066857610668612185565b634e487b7160e01b600052603260045260246000fd5b83815260606020820152600061228f6060830185611bfc565b905060018060a01b0383166040830152949350505050565b6000806000606084860312156122bc57600080fd5b8351925060208401516122ce81611ba3565b80925050604084015190509250925092565b8183823760009101908152919050565b8082018082111561066857610668612185565b634e487b7160e01b600052602160045260246000fd5b828152604060208201526000611d626040830184611bfc565b60008251612344818460208701611bd8565b919091019291505056fea2646970667358221220372f9edcd7b14186d5107cb4ccabd836964f45a04e08fa51b182131ada3af03e64736f6c63430008130033",
  "devdoc": {
    "kind": "dev",
    "methods": {
      "isValidSignature(bytes32,bytes)": {
        "details": "Should return whether the signature provided is valid for the provided data",
        "params": {
          "hash": "Hash of the data to be signed",
          "signature": "Signature byte array associated with _data"
        }
      },
      "supportsInterface(bytes4)": {
        "details": "Returns true if this contract implements the interface defined by `interfaceId`. See the corresponding https://eips.ethereum.org/EIPS/eip-165#how-interfaces-are-identified[EIP section] to learn more about how these ids are created. This function call must use less than 30 000 gas."
      }
    },
    "version": 1
  },
  "userdoc": {
    "kind": "user",
    "methods": {},
    "version": 1
  },
  "storageLayout": {
    "storage": [
      {
        "astId": 9331,
        "contract": "contracts/BunyERC6551Account.sol:BunyERC6551Account",
        "label": "_nonce",
        "offset": 0,
        "slot": "0",
        "type": "t_uint256"
      },
      {
        "astId": 9334,
        "contract": "contracts/BunyERC6551Account.sol:BunyERC6551Account",
        "label": "accountName",
        "offset": 0,
        "slot": "1",
        "type": "t_string_storage"
      },
      {
        "astId": 9337,
        "contract": "contracts/BunyERC6551Account.sol:BunyERC6551Account",
        "label": "depositCount",
        "offset": 0,
        "slot": "2",
        "type": "t_uint256"
      },
      {
        "astId": 9342,
        "contract": "contracts/BunyERC6551Account.sol:BunyERC6551Account",
        "label": "deposits",
        "offset": 0,
        "slot": "3",
        "type": "t_mapping(t_uint256,t_struct(Deposit)9479_storage)"
      },
      {
        "astId": 9346,
        "contract": "contracts/BunyERC6551Account.sol:BunyERC6551Account",
        "label": "tokenBalances",
        "offset": 0,
        "slot": "4",
        "type": "t_mapping(t_address,t_uint256)"
      },
      {
        "astId": 9352,
        "contract": "contracts/BunyERC6551Account.sol:BunyERC6551Account",
        "label": "userPrivateEvents",
        "offset": 0,
        "slot": "5",
        "type": "t_mapping(t_address,t_array(t_struct(PrivateCalendarEvent)9450_storage)dyn_storage)"
      },
      {
        "astId": 9358,
        "contract": "contracts/BunyERC6551Account.sol:BunyERC6551Account",
        "label": "userEvents",
        "offset": 0,
        "slot": "6",
        "type": "t_mapping(t_address,t_array(t_struct(CalendarEvent)9470_storage)dyn_storage)"
      },
      {
        "astId": 9360,
        "contract": "contracts/BunyERC6551Account.sol:BunyERC6551Account",
        "label": "calendarAddress",
        "offset": 0,
        "slot": "7",
        "type": "t_address"
      },
      {
        "astId": 9365,
        "contract": "contracts/BunyERC6551Account.sol:BunyERC6551Account",
        "label": "eventInvitations",
        "offset": 0,
        "slot": "8",
        "type": "t_mapping(t_uint256,t_array(t_address)dyn_storage)"
      },
      {
        "astId": 9368,
        "contract": "contracts/BunyERC6551Account.sol:BunyERC6551Account",
        "label": "users",
        "offset": 0,
        "slot": "9",
        "type": "t_array(t_address)dyn_storage"
      },
      {
        "astId": 9371,
        "contract": "contracts/BunyERC6551Account.sol:BunyERC6551Account",
        "label": "eventCreators",
        "offset": 0,
        "slot": "10",
        "type": "t_array(t_address)dyn_storage"
      },
      {
        "astId": 9373,
        "contract": "contracts/BunyERC6551Account.sol:BunyERC6551Account",
        "label": "totalEvents",
        "offset": 0,
        "slot": "11",
        "type": "t_uint256"
      },
      {
        "astId": 9377,
        "contract": "contracts/BunyERC6551Account.sol:BunyERC6551Account",
        "label": "eventCount",
        "offset": 0,
        "slot": "12",
        "type": "t_mapping(t_address,t_uint256)"
      },
      {
        "astId": 9382,
        "contract": "contracts/BunyERC6551Account.sol:BunyERC6551Account",
        "label": "nftDeposits",
        "offset": 0,
        "slot": "13",
        "type": "t_mapping(t_uint256,t_struct(NFTDeposit)9459_storage)"
      },
      {
        "astId": 9385,
        "contract": "contracts/BunyERC6551Account.sol:BunyERC6551Account",
        "label": "nftDepositCount",
        "offset": 0,
        "slot": "14",
        "type": "t_uint256"
      }
    ],
    "types": {
      "t_address": {
        "encoding": "inplace",
        "label": "address",
        "numberOfBytes": "20"
      },
      "t_array(t_address)dyn_storage": {
        "base": "t_address",
        "encoding": "dynamic_array",
        "label": "address[]",
        "numberOfBytes": "32"
      },
      "t_array(t_struct(CalendarEvent)9470_storage)dyn_storage": {
        "base": "t_struct(CalendarEvent)9470_storage",
        "encoding": "dynamic_array",
        "label": "struct BunyERC6551Account.CalendarEvent[]",
        "numberOfBytes": "32"
      },
      "t_array(t_struct(PrivateCalendarEvent)9450_storage)dyn_storage": {
        "base": "t_struct(PrivateCalendarEvent)9450_storage",
        "encoding": "dynamic_array",
        "label": "struct BunyERC6551Account.PrivateCalendarEvent[]",
        "numberOfBytes": "32"
      },
      "t_mapping(t_address,t_array(t_struct(CalendarEvent)9470_storage)dyn_storage)": {
        "encoding": "mapping",
        "key": "t_address",
        "label": "mapping(address => struct BunyERC6551Account.CalendarEvent[])",
        "numberOfBytes": "32",
        "value": "t_array(t_struct(CalendarEvent)9470_storage)dyn_storage"
      },
      "t_mapping(t_address,t_array(t_struct(PrivateCalendarEvent)9450_storage)dyn_storage)": {
        "encoding": "mapping",
        "key": "t_address",
        "label": "mapping(address => struct BunyERC6551Account.PrivateCalendarEvent[])",
        "numberOfBytes": "32",
        "value": "t_array(t_struct(PrivateCalendarEvent)9450_storage)dyn_storage"
      },
      "t_mapping(t_address,t_uint256)": {
        "encoding": "mapping",
        "key": "t_address",
        "label": "mapping(address => uint256)",
        "numberOfBytes": "32",
        "value": "t_uint256"
      },
      "t_mapping(t_uint256,t_array(t_address)dyn_storage)": {
        "encoding": "mapping",
        "key": "t_uint256",
        "label": "mapping(uint256 => address[])",
        "numberOfBytes": "32",
        "value": "t_array(t_address)dyn_storage"
      },
      "t_mapping(t_uint256,t_struct(Deposit)9479_storage)": {
        "encoding": "mapping",
        "key": "t_uint256",
        "label": "mapping(uint256 => struct BunyERC6551Account.Deposit)",
        "numberOfBytes": "32",
        "value": "t_struct(Deposit)9479_storage"
      },
      "t_mapping(t_uint256,t_struct(NFTDeposit)9459_storage)": {
        "encoding": "mapping",
        "key": "t_uint256",
        "label": "mapping(uint256 => struct BunyERC6551Account.NFTDeposit)",
        "numberOfBytes": "32",
        "value": "t_struct(NFTDeposit)9459_storage"
      },
      "t_string_storage": {
        "encoding": "bytes",
        "label": "string",
        "numberOfBytes": "32"
      },
      "t_struct(CalendarEvent)9470_storage": {
        "encoding": "inplace",
        "label": "struct BunyERC6551Account.CalendarEvent",
        "members": [
          {
            "astId": 9461,
            "contract": "contracts/BunyERC6551Account.sol:BunyERC6551Account",
            "label": "title",
            "offset": 0,
            "slot": "0",
            "type": "t_string_storage"
          },
          {
            "astId": 9463,
            "contract": "contracts/BunyERC6551Account.sol:BunyERC6551Account",
            "label": "attendee",
            "offset": 0,
            "slot": "1",
            "type": "t_address"
          },
          {
            "astId": 9465,
            "contract": "contracts/BunyERC6551Account.sol:BunyERC6551Account",
            "label": "startTime",
            "offset": 0,
            "slot": "2",
            "type": "t_uint256"
          },
          {
            "astId": 9467,
            "contract": "contracts/BunyERC6551Account.sol:BunyERC6551Account",
            "label": "endTime",
            "offset": 0,
            "slot": "3",
            "type": "t_uint256"
          },
          {
            "astId": 9469,
            "contract": "contracts/BunyERC6551Account.sol:BunyERC6551Account",
            "label": "calendar",
            "offset": 0,
            "slot": "4",
            "type": "t_address"
          }
        ],
        "numberOfBytes": "160"
      },
      "t_struct(Deposit)9479_storage": {
        "encoding": "inplace",
        "label": "struct BunyERC6551Account.Deposit",
        "members": [
          {
            "astId": 9472,
            "contract": "contracts/BunyERC6551Account.sol:BunyERC6551Account",
            "label": "depositor",
            "offset": 0,
            "slot": "0",
            "type": "t_address"
          },
          {
            "astId": 9474,
            "contract": "contracts/BunyERC6551Account.sol:BunyERC6551Account",
            "label": "tokenAddress",
            "offset": 0,
            "slot": "1",
            "type": "t_address"
          },
          {
            "astId": 9476,
            "contract": "contracts/BunyERC6551Account.sol:BunyERC6551Account",
            "label": "amount",
            "offset": 0,
            "slot": "2",
            "type": "t_uint256"
          },
          {
            "astId": 9478,
            "contract": "contracts/BunyERC6551Account.sol:BunyERC6551Account",
            "label": "timestamp",
            "offset": 0,
            "slot": "3",
            "type": "t_uint256"
          }
        ],
        "numberOfBytes": "128"
      },
      "t_struct(NFTDeposit)9459_storage": {
        "encoding": "inplace",
        "label": "struct BunyERC6551Account.NFTDeposit",
        "members": [
          {
            "astId": 9452,
            "contract": "contracts/BunyERC6551Account.sol:BunyERC6551Account",
            "label": "depositor",
            "offset": 0,
            "slot": "0",
            "type": "t_address"
          },
          {
            "astId": 9454,
            "contract": "contracts/BunyERC6551Account.sol:BunyERC6551Account",
            "label": "nftContractAddress",
            "offset": 0,
            "slot": "1",
            "type": "t_address"
          },
          {
            "astId": 9456,
            "contract": "contracts/BunyERC6551Account.sol:BunyERC6551Account",
            "label": "tokenId",
            "offset": 0,
            "slot": "2",
            "type": "t_uint256"
          },
          {
            "astId": 9458,
            "contract": "contracts/BunyERC6551Account.sol:BunyERC6551Account",
            "label": "timestamp",
            "offset": 0,
            "slot": "3",
            "type": "t_uint256"
          }
        ],
        "numberOfBytes": "128"
      },
      "t_struct(PrivateCalendarEvent)9450_storage": {
        "encoding": "inplace",
        "label": "struct BunyERC6551Account.PrivateCalendarEvent",
        "members": [
          {
            "astId": 9443,
            "contract": "contracts/BunyERC6551Account.sol:BunyERC6551Account",
            "label": "title",
            "offset": 0,
            "slot": "0",
            "type": "t_string_storage"
          },
          {
            "astId": 9445,
            "contract": "contracts/BunyERC6551Account.sol:BunyERC6551Account",
            "label": "attendee",
            "offset": 0,
            "slot": "1",
            "type": "t_address"
          },
          {
            "astId": 9447,
            "contract": "contracts/BunyERC6551Account.sol:BunyERC6551Account",
            "label": "startTime",
            "offset": 0,
            "slot": "2",
            "type": "t_uint256"
          },
          {
            "astId": 9449,
            "contract": "contracts/BunyERC6551Account.sol:BunyERC6551Account",
            "label": "endTime",
            "offset": 0,
            "slot": "3",
            "type": "t_uint256"
          }
        ],
        "numberOfBytes": "128"
      },
      "t_uint256": {
        "encoding": "inplace",
        "label": "uint256",
        "numberOfBytes": "32"
      }
    }
  }
}