{
  "address": "0x39c47F7469b155eBCc9D7319d091b21d203bf836",
  "abi": [
    {
      "inputs": [],
      "stateMutability": "nonpayable",
      "type": "constructor"
    },
    {
      "anonymous": false,
      "inputs": [
        {
          "indexed": true,
          "internalType": "address",
          "name": "owner",
          "type": "address"
        },
        {
          "indexed": true,
          "internalType": "address",
          "name": "approved",
          "type": "address"
        },
        {
          "indexed": true,
          "internalType": "uint256",
          "name": "tokenId",
          "type": "uint256"
        }
      ],
      "name": "Approval",
      "type": "event"
    },
    {
      "anonymous": false,
      "inputs": [
        {
          "indexed": true,
          "internalType": "address",
          "name": "owner",
          "type": "address"
        },
        {
          "indexed": true,
          "internalType": "address",
          "name": "operator",
          "type": "address"
        },
        {
          "indexed": false,
          "internalType": "bool",
          "name": "approved",
          "type": "bool"
        }
      ],
      "name": "ApprovalForAll",
      "type": "event"
    },
    {
      "anonymous": false,
      "inputs": [
        {
          "indexed": true,
          "internalType": "address",
          "name": "previousOwner",
          "type": "address"
        },
        {
          "indexed": true,
          "internalType": "address",
          "name": "newOwner",
          "type": "address"
        }
      ],
      "name": "OwnershipTransferred",
      "type": "event"
    },
    {
      "anonymous": false,
      "inputs": [
        {
          "indexed": true,
          "internalType": "address",
          "name": "from",
          "type": "address"
        },
        {
          "indexed": true,
          "internalType": "address",
          "name": "to",
          "type": "address"
        },
        {
          "indexed": true,
          "internalType": "uint256",
          "name": "tokenId",
          "type": "uint256"
        }
      ],
      "name": "Transfer",
      "type": "event"
    },
    {
      "inputs": [
        {
          "internalType": "address",
          "name": "to",
          "type": "address"
        },
        {
          "internalType": "uint256",
          "name": "tokenId",
          "type": "uint256"
        }
      ],
      "name": "approve",
      "outputs": [],
      "stateMutability": "nonpayable",
      "type": "function"
    },
    {
      "inputs": [
        {
          "internalType": "address",
          "name": "owner",
          "type": "address"
        }
      ],
      "name": "balanceOf",
      "outputs": [
        {
          "internalType": "uint256",
          "name": "",
          "type": "uint256"
        }
      ],
      "stateMutability": "view",
      "type": "function"
    },
    {
      "inputs": [],
      "name": "baseURI",
      "outputs": [
        {
          "internalType": "string",
          "name": "",
          "type": "string"
        }
      ],
      "stateMutability": "view",
      "type": "function"
    },
    {
      "inputs": [],
      "name": "cost",
      "outputs": [
        {
          "internalType": "uint256",
          "name": "",
          "type": "uint256"
        }
      ],
      "stateMutability": "view",
      "type": "function"
    },
    {
      "inputs": [
        {
          "internalType": "bytes32",
          "name": "",
          "type": "bytes32"
        }
      ],
      "name": "forSale",
      "outputs": [
        {
          "internalType": "bool",
          "name": "",
          "type": "bool"
        }
      ],
      "stateMutability": "view",
      "type": "function"
    },
    {
      "inputs": [
        {
          "internalType": "uint256",
          "name": "tokenId",
          "type": "uint256"
        }
      ],
      "name": "getApproved",
      "outputs": [
        {
          "internalType": "address",
          "name": "",
          "type": "address"
        }
      ],
      "stateMutability": "view",
      "type": "function"
    },
    {
      "inputs": [
        {
          "internalType": "address",
          "name": "owner",
          "type": "address"
        },
        {
          "internalType": "address",
          "name": "operator",
          "type": "address"
        }
      ],
      "name": "isApprovedForAll",
      "outputs": [
        {
          "internalType": "bool",
          "name": "",
          "type": "bool"
        }
      ],
      "stateMutability": "view",
      "type": "function"
    },
    {
      "inputs": [],
      "name": "marketplaceAddress",
      "outputs": [
        {
          "internalType": "address",
          "name": "",
          "type": "address"
        }
      ],
      "stateMutability": "view",
      "type": "function"
    },
    {
      "inputs": [],
      "name": "maxMintAmountPerTx",
      "outputs": [
        {
          "internalType": "uint256",
          "name": "",
          "type": "uint256"
        }
      ],
      "stateMutability": "view",
      "type": "function"
    },
    {
      "inputs": [],
      "name": "maxSupply",
      "outputs": [
        {
          "internalType": "uint256",
          "name": "",
          "type": "uint256"
        }
      ],
      "stateMutability": "view",
      "type": "function"
    },
    {
      "inputs": [
        {
          "internalType": "uint256",
          "name": "_mintAmount",
          "type": "uint256"
        }
      ],
      "name": "mint",
      "outputs": [],
      "stateMutability": "payable",
      "type": "function"
    },
    {
      "inputs": [
        {
          "internalType": "uint256",
          "name": "_mintAmount",
          "type": "uint256"
        },
        {
          "internalType": "address",
          "name": "_receiver",
          "type": "address"
        }
      ],
      "name": "mintForAddress",
      "outputs": [],
      "stateMutability": "nonpayable",
      "type": "function"
    },
    {
      "inputs": [
        {
          "internalType": "uint256",
          "name": "_mintAmount",
          "type": "uint256"
        },
        {
          "internalType": "address",
          "name": "_receiver",
          "type": "address"
        }
      ],
      "name": "mintToAddress",
      "outputs": [],
      "stateMutability": "payable",
      "type": "function"
    },
    {
      "inputs": [],
      "name": "name",
      "outputs": [
        {
          "internalType": "string",
          "name": "",
          "type": "string"
        }
      ],
      "stateMutability": "view",
      "type": "function"
    },
    {
      "inputs": [],
      "name": "owner",
      "outputs": [
        {
          "internalType": "address",
          "name": "",
          "type": "address"
        }
      ],
      "stateMutability": "view",
      "type": "function"
    },
    {
      "inputs": [
        {
          "internalType": "uint256",
          "name": "tokenId",
          "type": "uint256"
        }
      ],
      "name": "ownerOf",
      "outputs": [
        {
          "internalType": "address",
          "name": "",
          "type": "address"
        }
      ],
      "stateMutability": "view",
      "type": "function"
    },
    {
      "inputs": [],
      "name": "paused",
      "outputs": [
        {
          "internalType": "bool",
          "name": "",
          "type": "bool"
        }
      ],
      "stateMutability": "view",
      "type": "function"
    },
    {
      "inputs": [],
      "name": "renounceOwnership",
      "outputs": [],
      "stateMutability": "nonpayable",
      "type": "function"
    },
    {
      "inputs": [
        {
          "internalType": "address",
          "name": "from",
          "type": "address"
        },
        {
          "internalType": "address",
          "name": "to",
          "type": "address"
        },
        {
          "internalType": "uint256",
          "name": "tokenId",
          "type": "uint256"
        }
      ],
      "name": "safeTransferFrom",
      "outputs": [],
      "stateMutability": "nonpayable",
      "type": "function"
    },
    {
      "inputs": [
        {
          "internalType": "address",
          "name": "from",
          "type": "address"
        },
        {
          "internalType": "address",
          "name": "to",
          "type": "address"
        },
        {
          "internalType": "uint256",
          "name": "tokenId",
          "type": "uint256"
        },
        {
          "internalType": "bytes",
          "name": "data",
          "type": "bytes"
        }
      ],
      "name": "safeTransferFrom",
      "outputs": [],
      "stateMutability": "nonpayable",
      "type": "function"
    },
    {
      "inputs": [
        {
          "internalType": "address",
          "name": "operator",
          "type": "address"
        },
        {
          "internalType": "bool",
          "name": "approved",
          "type": "bool"
        }
      ],
      "name": "setApprovalForAll",
      "outputs": [],
      "stateMutability": "nonpayable",
      "type": "function"
    },
    {
      "inputs": [
        {
          "internalType": "string",
          "name": "_newBaseURI",
          "type": "string"
        }
      ],
      "name": "setBaseURI",
      "outputs": [],
      "stateMutability": "nonpayable",
      "type": "function"
    },
    {
      "inputs": [
        {
          "internalType": "uint256",
          "name": "_cost",
          "type": "uint256"
        }
      ],
      "name": "setCost",
      "outputs": [],
      "stateMutability": "nonpayable",
      "type": "function"
    },
    {
      "inputs": [
        {
          "internalType": "bool",
          "name": "_state",
          "type": "bool"
        }
      ],
      "name": "setPaused",
      "outputs": [],
      "stateMutability": "nonpayable",
      "type": "function"
    },
    {
      "inputs": [
        {
          "internalType": "bytes4",
          "name": "interfaceId",
          "type": "bytes4"
        }
      ],
      "name": "supportsInterface",
      "outputs": [
        {
          "internalType": "bool",
          "name": "",
          "type": "bool"
        }
      ],
      "stateMutability": "view",
      "type": "function"
    },
    {
      "inputs": [],
      "name": "symbol",
      "outputs": [
        {
          "internalType": "string",
          "name": "",
          "type": "string"
        }
      ],
      "stateMutability": "view",
      "type": "function"
    },
    {
      "inputs": [
        {
          "internalType": "uint256",
          "name": "tokenId",
          "type": "uint256"
        }
      ],
      "name": "tokenURI",
      "outputs": [
        {
          "internalType": "string",
          "name": "",
          "type": "string"
        }
      ],
      "stateMutability": "view",
      "type": "function"
    },
    {
      "inputs": [
        {
          "internalType": "address",
          "name": "_owner",
          "type": "address"
        }
      ],
      "name": "tokensOfOwner",
      "outputs": [
        {
          "internalType": "uint256[]",
          "name": "",
          "type": "uint256[]"
        }
      ],
      "stateMutability": "view",
      "type": "function"
    },
    {
      "inputs": [],
      "name": "totalSupply",
      "outputs": [
        {
          "internalType": "uint256",
          "name": "",
          "type": "uint256"
        }
      ],
      "stateMutability": "view",
      "type": "function"
    },
    {
      "inputs": [
        {
          "internalType": "address",
          "name": "from",
          "type": "address"
        },
        {
          "internalType": "address",
          "name": "to",
          "type": "address"
        },
        {
          "internalType": "uint256",
          "name": "tokenId",
          "type": "uint256"
        }
      ],
      "name": "transferFrom",
      "outputs": [],
      "stateMutability": "nonpayable",
      "type": "function"
    },
    {
      "inputs": [
        {
          "internalType": "address",
          "name": "newOwner",
          "type": "address"
        }
      ],
      "name": "transferOwnership",
      "outputs": [],
      "stateMutability": "nonpayable",
      "type": "function"
    },
    {
      "inputs": [
        {
          "internalType": "bytes32",
          "name": "",
          "type": "bytes32"
        }
      ],
      "name": "uriToTokenId",
      "outputs": [
        {
          "internalType": "uint256",
          "name": "",
          "type": "uint256"
        }
      ],
      "stateMutability": "view",
      "type": "function"
    },
    {
      "inputs": [],
      "name": "withdraw",
      "outputs": [],
      "stateMutability": "nonpayable",
      "type": "function"
    }
  ],
  "transactionHash": "0x8a39dd601c7d4764430d7697afac959e64432a6086fd42150625dea348269b9b",
  "args": [],
  "numDeployments": 1,
  "solcInputHash": "79753afeea2c5d47470590c3896d952e",
  "bytecode": "0x6000600855621133436009556003600a5561010060405260446080818152906200225b60a039600b90620000349082620001c1565b50600c805460ff60a01b191690553480156200004f57600080fd5b5060405180606001604052806028815260200162002233602891396040805180820190915260058152644942554e5960d81b60208201526000620000948382620001c1565b506001620000a38282620001c1565b505050620000c0620000ba620000c660201b60201c565b620000ca565b6200028d565b3390565b600680546001600160a01b038381166001600160a01b0319831681179093556040519116919082907f8be0079c531659141344cd1fd0a4f28419497f9722a3daafe3b4186f6b6457e090600090a35050565b634e487b7160e01b600052604160045260246000fd5b600181811c908216806200014757607f821691505b6020821081036200016857634e487b7160e01b600052602260045260246000fd5b50919050565b601f821115620001bc57600081815260208120601f850160051c81016020861015620001975750805b601f850160051c820191505b81811015620001b857828155600101620001a3565b5050505b505050565b81516001600160401b03811115620001dd57620001dd6200011c565b620001f581620001ee845462000132565b846200016e565b602080601f8311600181146200022d5760008415620002145750858301515b600019600386901b1c1916600185901b178555620001b8565b600085815260208120601f198616915b828110156200025e578886015182559484019460019091019084016200023d565b50858210156200027d5787850151600019600388901b60f8161c191681555b5050505050600190811b01905550565b611f96806200029d6000396000f3fe6080604052600436106101ae5760003560e01c806370a08231116100ed578063ae374b9911610090578063ae374b9914610499578063b7416f2a146104c9578063b88d4fde146104f6578063c87b56dd14610516578063d5abeb0114610536578063daa17f491461054c578063e985e9c51461056c578063efbd73f41461058c578063f2fde38b146105ac57600080fd5b806370a08231146103bb578063715018a6146103db5780638462151c146103f05780638da5cb5b1461041d57806394354fd01461043b57806395d89b4114610451578063a0712d6814610466578063a22cb4651461047957600080fd5b80633ccfd60b116101555780633ccfd60b146102dd57806342842e0e146102f257806344a0d68a14610312578063512b658d1461033257806355f804b3146103455780635c975abb146103655780636352211e146103865780636c0360eb146103a657600080fd5b806301ffc9a7146101b357806306fdde03146101e8578063081812fc1461020a578063095ea7b31461024257806313faede61461026457806316c38b3c1461028857806318160ddd146102a857806323b872dd146102bd575b600080fd5b3480156101bf57600080fd5b506101d36101ce366004611758565b6105cc565b60405190151581526020015b60405180910390f35b3480156101f457600080fd5b506101fd61061e565b6040516101df91906117c5565b34801561021657600080fd5b5061022a6102253660046117d8565b6106b0565b6040516001600160a01b0390911681526020016101df565b34801561024e57600080fd5b5061026261025d36600461180d565b6106d7565b005b34801561027057600080fd5b5061027a60085481565b6040519081526020016101df565b34801561029457600080fd5b506102626102a3366004611847565b6107f1565b3480156102b457600080fd5b5061027a610817565b3480156102c957600080fd5b506102626102d8366004611862565b610827565b3480156102e957600080fd5b50610262610858565b3480156102fe57600080fd5b5061026261030d366004611862565b6108df565b34801561031e57600080fd5b5061026261032d3660046117d8565b6108fa565b61026261034036600461189e565b610907565b34801561035157600080fd5b50610262610360366004611956565b6109cc565b34801561037157600080fd5b50600c546101d390600160a01b900460ff1681565b34801561039257600080fd5b5061022a6103a13660046117d8565b6109e4565b3480156103b257600080fd5b506101fd610a19565b3480156103c757600080fd5b5061027a6103d636600461199f565b610aa7565b3480156103e757600080fd5b50610262610b2d565b3480156103fc57600080fd5b5061041061040b36600461199f565b610b41565b6040516101df91906119ba565b34801561042957600080fd5b506006546001600160a01b031661022a565b34801561044757600080fd5b5061027a600a5481565b34801561045d57600080fd5b506101fd610c21565b6102626104743660046117d8565b610c30565b34801561048557600080fd5b506102626104943660046119fe565b610cf5565b3480156104a557600080fd5b506101d36104b43660046117d8565b600d6020526000908152604090205460ff1681565b3480156104d557600080fd5b5061027a6104e43660046117d8565b600e6020526000908152604090205481565b34801561050257600080fd5b50610262610511366004611a28565b610d00565b34801561052257600080fd5b506101fd6105313660046117d8565b610d38565b34801561054257600080fd5b5061027a60095481565b34801561055857600080fd5b50600c5461022a906001600160a01b031681565b34801561057857600080fd5b506101d3610587366004611aa4565b610e04565b34801561059857600080fd5b506102626105a736600461189e565b610e32565b3480156105b857600080fd5b506102626105c736600461199f565b610e9e565b60006001600160e01b031982166380ac58cd60e01b14806105fd57506001600160e01b03198216635b5e139f60e01b145b8061061857506301ffc9a760e01b6001600160e01b03198316145b92915050565b60606000805461062d90611ace565b80601f016020809104026020016040519081016040528092919081815260200182805461065990611ace565b80156106a65780601f1061067b576101008083540402835291602001916106a6565b820191906000526020600020905b81548152906001019060200180831161068957829003601f168201915b5050505050905090565b60006106bb82610f14565b506000908152600460205260409020546001600160a01b031690565b60006106e2826109e4565b9050806001600160a01b0316836001600160a01b0316036107545760405162461bcd60e51b815260206004820152602160248201527f4552433732313a20617070726f76616c20746f2063757272656e74206f776e656044820152603960f91b60648201526084015b60405180910390fd5b336001600160a01b038216148061077057506107708133610e04565b6107e25760405162461bcd60e51b815260206004820152603d60248201527f4552433732313a20617070726f76652063616c6c6572206973206e6f7420746f60448201527f6b656e206f776e6572206f7220617070726f76656420666f7220616c6c000000606482015260840161074b565b6107ec8383610f39565b505050565b6107f9610fa7565b600c8054911515600160a01b0260ff60a01b19909216919091179055565b600061082260075490565b905090565b6108313382611001565b61084d5760405162461bcd60e51b815260040161074b90611b08565b6107ec838383611060565b610860610fa7565b6000738406a51a0e1b5f52ff61226773e6328e5da5d96460646108834782611b6b565b61088d9190611b82565b604051600081818185875af1925050503d80600081146108c9576040519150601f19603f3d011682016040523d82523d6000602084013e6108ce565b606091505b50509050806108dc57600080fd5b50565b6107ec83838360405180602001604052806000815250610d00565b610902610fa7565b600855565b8160008111801561091a5750600a548111155b6109365760405162461bcd60e51b815260040161074b90611ba4565b6009548161094360075490565b61094d9190611bec565b111561096b5760405162461bcd60e51b815260040161074b90611bff565b600c54600160a01b900460ff16156109955760405162461bcd60e51b815260040161074b90611c36565b826008546109a39190611b6b565b3410156109c25760405162461bcd60e51b815260040161074b90611c60565b6107ec82846111c4565b6109d4610fa7565b600b6109e08282611cd8565b5050565b6000818152600260205260408120546001600160a01b0316806106185760405162461bcd60e51b815260040161074b90611d98565b600b8054610a2690611ace565b80601f0160208091040260200160405190810160405280929190818152602001828054610a5290611ace565b8015610a9f5780601f10610a7457610100808354040283529160200191610a9f565b820191906000526020600020905b815481529060010190602001808311610a8257829003601f168201915b505050505081565b60006001600160a01b038216610b115760405162461bcd60e51b815260206004820152602960248201527f4552433732313a2061646472657373207a65726f206973206e6f7420612076616044820152683634b21037bbb732b960b91b606482015260840161074b565b506001600160a01b031660009081526003602052604090205490565b610b35610fa7565b610b3f6000611201565b565b60606000610b4e83610aa7565b905060008167ffffffffffffffff811115610b6b57610b6b6118ca565b604051908082528060200260200182016040528015610b94578160200160208202803683370190505b509050600160005b8381108015610bad57506009548211155b15610c17576000610bbd836109e4565b9050866001600160a01b0316816001600160a01b031603610c045782848381518110610beb57610beb611dca565b602090810291909101015281610c0081611de0565b9250505b82610c0e81611de0565b93505050610b9c565b5090949350505050565b60606001805461062d90611ace565b80600081118015610c435750600a548111155b610c5f5760405162461bcd60e51b815260040161074b90611ba4565b60095481610c6c60075490565b610c769190611bec565b1115610c945760405162461bcd60e51b815260040161074b90611bff565b600c54600160a01b900460ff1615610cbe5760405162461bcd60e51b815260040161074b90611c36565b81600854610ccc9190611b6b565b341015610ceb5760405162461bcd60e51b815260040161074b90611c60565b6109e033836111c4565b6109e0338383611253565b610d0a3383611001565b610d265760405162461bcd60e51b815260040161074b90611b08565b610d328484848461131d565b50505050565b6060610d4382611350565b610da85760405162461bcd60e51b815260206004820152603060248201527f455243373231414d657461646174613a2055524920717565727920666f72206e60448201526f37b732bc34b9ba30b73a103a37b5b2b760811b606482015260840161074b565b6000610db261136d565b90506000815111610dd25760405180602001604052806000815250610dfd565b80610ddc8461137c565b604051602001610ded929190611df9565b6040516020818303038152906040525b9392505050565b6001600160a01b03918216600090815260056020908152604080832093909416825291909152205460ff1690565b81600081118015610e455750600a548111155b610e615760405162461bcd60e51b815260040161074b90611ba4565b60095481610e6e60075490565b610e789190611bec565b1115610e965760405162461bcd60e51b815260040161074b90611bff565b6109c2610fa7565b610ea6610fa7565b6001600160a01b038116610f0b5760405162461bcd60e51b815260206004820152602660248201527f4f776e61626c653a206e6577206f776e657220697320746865207a65726f206160448201526564647265737360d01b606482015260840161074b565b6108dc81611201565b610f1d81611350565b6108dc5760405162461bcd60e51b815260040161074b90611d98565b600081815260046020526040902080546001600160a01b0319166001600160a01b0384169081179091558190610f6e826109e4565b6001600160a01b03167f8c5be1e5ebec7d5bd14f71427d1e84f3dd0314c0f7b2291e5b200ac8c7c3b92560405160405180910390a45050565b6006546001600160a01b03163314610b3f5760405162461bcd60e51b815260206004820181905260248201527f4f776e61626c653a2063616c6c6572206973206e6f7420746865206f776e6572604482015260640161074b565b60008061100d836109e4565b9050806001600160a01b0316846001600160a01b0316148061103457506110348185610e04565b806110585750836001600160a01b031661104d846106b0565b6001600160a01b0316145b949350505050565b826001600160a01b0316611073826109e4565b6001600160a01b0316146110995760405162461bcd60e51b815260040161074b90611e38565b6001600160a01b0382166110fb5760405162461bcd60e51b8152602060048201526024808201527f4552433732313a207472616e7366657220746f20746865207a65726f206164646044820152637265737360e01b606482015260840161074b565b826001600160a01b031661110e826109e4565b6001600160a01b0316146111345760405162461bcd60e51b815260040161074b90611e38565b600081815260046020908152604080832080546001600160a01b03199081169091556001600160a01b0387811680865260038552838620805460001901905590871680865283862080546001019055868652600290945282852080549092168417909155905184937fddf252ad1be2c89b69c2b068fc378daa952ba7f163c4a11628f55a4df523b3ef91a4505050565b60005b818110156107ec576111dd600780546001019055565b6111ef836111ea60075490565b61140f565b806111f981611de0565b9150506111c7565b600680546001600160a01b038381166001600160a01b0319831681179093556040519116919082907f8be0079c531659141344cd1fd0a4f28419497f9722a3daafe3b4186f6b6457e090600090a35050565b816001600160a01b0316836001600160a01b0316036112b05760405162461bcd60e51b815260206004820152601960248201527822a9219b99189d1030b8383937bb32903a379031b0b63632b960391b604482015260640161074b565b6001600160a01b03838116600081815260056020908152604080832094871680845294825291829020805460ff191686151590811790915591519182527f17307eab39ab6107e8899845ad3d59bd9653f200f220920489ca2b5937696c31910160405180910390a3505050565b611328848484611060565b61133484848484611429565b610d325760405162461bcd60e51b815260040161074b90611e7d565b6000908152600260205260409020546001600160a01b0316151590565b6060600b805461062d90611ace565b606060006113898361152a565b600101905060008167ffffffffffffffff8111156113a9576113a96118ca565b6040519080825280601f01601f1916602001820160405280156113d3576020820181803683370190505b5090508181016020015b600019016f181899199a1a9b1b9c1cb0b131b232b360811b600a86061a8153600a85049450846113dd57509392505050565b6109e0828260405180602001604052806000815250611602565b60006001600160a01b0384163b1561151f57604051630a85bd0160e11b81526001600160a01b0385169063150b7a029061146d903390899088908890600401611ecf565b6020604051808303816000875af19250505080156114a8575060408051601f3d908101601f191682019092526114a591810190611f0c565b60015b611505573d8080156114d6576040519150601f19603f3d011682016040523d82523d6000602084013e6114db565b606091505b5080516000036114fd5760405162461bcd60e51b815260040161074b90611e7d565b805181602001fd5b6001600160e01b031916630a85bd0160e11b149050611058565b506001949350505050565b60008072184f03e93ff9f4daa797ed6e38ed64bf6a1f0160401b83106115695772184f03e93ff9f4daa797ed6e38ed64bf6a1f0160401b830492506040015b6d04ee2d6d415b85acef81000000008310611595576d04ee2d6d415b85acef8100000000830492506020015b662386f26fc1000083106115b357662386f26fc10000830492506010015b6305f5e10083106115cb576305f5e100830492506008015b61271083106115df57612710830492506004015b606483106115f1576064830492506002015b600a83106106185760010192915050565b61160c8383611635565b6116196000848484611429565b6107ec5760405162461bcd60e51b815260040161074b90611e7d565b6001600160a01b03821661168b5760405162461bcd60e51b815260206004820181905260248201527f4552433732313a206d696e7420746f20746865207a65726f2061646472657373604482015260640161074b565b61169481611350565b156116b15760405162461bcd60e51b815260040161074b90611f29565b6116ba81611350565b156116d75760405162461bcd60e51b815260040161074b90611f29565b6001600160a01b038216600081815260036020908152604080832080546001019055848352600290915280822080546001600160a01b0319168417905551839291907fddf252ad1be2c89b69c2b068fc378daa952ba7f163c4a11628f55a4df523b3ef908290a45050565b6001600160e01b0319811681146108dc57600080fd5b60006020828403121561176a57600080fd5b8135610dfd81611742565b60005b83811015611790578181015183820152602001611778565b50506000910152565b600081518084526117b1816020860160208601611775565b601f01601f19169290920160200192915050565b602081526000610dfd6020830184611799565b6000602082840312156117ea57600080fd5b5035919050565b80356001600160a01b038116811461180857600080fd5b919050565b6000806040838503121561182057600080fd5b611829836117f1565b946020939093013593505050565b8035801515811461180857600080fd5b60006020828403121561185957600080fd5b610dfd82611837565b60008060006060848603121561187757600080fd5b611880846117f1565b925061188e602085016117f1565b9150604084013590509250925092565b600080604083850312156118b157600080fd5b823591506118c1602084016117f1565b90509250929050565b634e487b7160e01b600052604160045260246000fd5b600067ffffffffffffffff808411156118fb576118fb6118ca565b604051601f8501601f19908116603f01168101908282118183101715611923576119236118ca565b8160405280935085815286868601111561193c57600080fd5b858560208301376000602087830101525050509392505050565b60006020828403121561196857600080fd5b813567ffffffffffffffff81111561197f57600080fd5b8201601f8101841361199057600080fd5b611058848235602084016118e0565b6000602082840312156119b157600080fd5b610dfd826117f1565b6020808252825182820181905260009190848201906040850190845b818110156119f2578351835292840192918401916001016119d6565b50909695505050505050565b60008060408385031215611a1157600080fd5b611a1a836117f1565b91506118c160208401611837565b60008060008060808587031215611a3e57600080fd5b611a47856117f1565b9350611a55602086016117f1565b925060408501359150606085013567ffffffffffffffff811115611a7857600080fd5b8501601f81018713611a8957600080fd5b611a98878235602084016118e0565b91505092959194509250565b60008060408385031215611ab757600080fd5b611ac0836117f1565b91506118c1602084016117f1565b600181811c90821680611ae257607f821691505b602082108103611b0257634e487b7160e01b600052602260045260246000fd5b50919050565b6020808252602d908201527f4552433732313a2063616c6c6572206973206e6f7420746f6b656e206f776e6560408201526c1c881bdc88185c1c1c9bdd9959609a1b606082015260800190565b634e487b7160e01b600052601160045260246000fd5b808202811582820484141761061857610618611b55565b600082611b9f57634e487b7160e01b600052601260045260246000fd5b500490565b60208082526028908201527f4e6f7065204e6f706521204d6178206d696e7420706572207472616e73616374604082015267696f6e206973203360c01b606082015260800190565b8082018082111561061857610618611b55565b6020808252601a908201527f4d617820737570706c792069732035207065722077616c6c6574000000000000604082015260600190565b60208082526010908201526f49276d20696e2074696d65206f75742160801b604082015260600190565b60208082526010908201526f4920706974792074686520666f6f6c2160801b604082015260600190565b601f8211156107ec57600081815260208120601f850160051c81016020861015611cb15750805b601f850160051c820191505b81811015611cd057828155600101611cbd565b505050505050565b815167ffffffffffffffff811115611cf257611cf26118ca565b611d0681611d008454611ace565b84611c8a565b602080601f831160018114611d3b5760008415611d235750858301515b600019600386901b1c1916600185901b178555611cd0565b600085815260208120601f198616915b82811015611d6a57888601518255948401946001909101908401611d4b565b5085821015611d885787850151600019600388901b60f8161c191681555b5050505050600190811b01905550565b602080825260189082015277115490cdcc8c4e881a5b9d985b1a59081d1bdad95b88125160421b604082015260600190565b634e487b7160e01b600052603260045260246000fd5b600060018201611df257611df2611b55565b5060010190565b60008351611e0b818460208801611775565b835190830190611e1f818360208801611775565b64173539b7b760d91b9101908152600501949350505050565b60208082526025908201527f4552433732313a207472616e736665722066726f6d20696e636f72726563742060408201526437bbb732b960d91b606082015260800190565b60208082526032908201527f4552433732313a207472616e7366657220746f206e6f6e20455243373231526560408201527131b2b4bb32b91034b6b83632b6b2b73a32b960711b606082015260800190565b6001600160a01b0385811682528416602082015260408101839052608060608201819052600090611f0290830184611799565b9695505050505050565b600060208284031215611f1e57600080fd5b8151610dfd81611742565b6020808252601c908201527f4552433732313a20746f6b656e20616c7265616479206d696e7465640000000060408201526060019056fea26469706673582212200277d79671ba90326d4c3a23aca6270c00c5016856a9a053e71a7734bcac62d164736f6c634300081300335468652042554e592050726f6a6563742054656c6f73204e46542050726f7879204163636f756e7468747470733a2f2f697066732e696f2f697066732f516d50696637755966724b433951687850516d50624b7a665a57416a7079416242575145476d385939634d7a7a542f",
  "devdoc": {
    "events": {
      "Approval(address,address,uint256)": {
        "details": "Emitted when `owner` enables `approved` to manage the `tokenId` token."
      },
      "ApprovalForAll(address,address,bool)": {
        "details": "Emitted when `owner` enables or disables (`approved`) `operator` to manage all of its assets."
      },
      "Transfer(address,address,uint256)": {
        "details": "Emitted when `tokenId` token is transferred from `from` to `to`."
      }
    },
    "kind": "dev",
    "methods": {
      "approve(address,uint256)": {
        "details": "See {IERC721-approve}."
      },
      "balanceOf(address)": {
        "details": "See {IERC721-balanceOf}."
      },
      "getApproved(uint256)": {
        "details": "See {IERC721-getApproved}."
      },
      "isApprovedForAll(address,address)": {
        "details": "See {IERC721-isApprovedForAll}."
      },
      "name()": {
        "details": "See {IERC721Metadata-name}."
      },
      "owner()": {
        "details": "Returns the address of the current owner."
      },
      "ownerOf(uint256)": {
        "details": "See {IERC721-ownerOf}."
      },
      "renounceOwnership()": {
        "details": "Leaves the contract without owner. It will not be possible to call `onlyOwner` functions. Can only be called by the current owner. NOTE: Renouncing ownership will leave the contract without an owner, thereby disabling any functionality that is only available to the owner."
      },
      "safeTransferFrom(address,address,uint256)": {
        "details": "See {IERC721-safeTransferFrom}."
      },
      "safeTransferFrom(address,address,uint256,bytes)": {
        "details": "See {IERC721-safeTransferFrom}."
      },
      "setApprovalForAll(address,bool)": {
        "details": "See {IERC721-setApprovalForAll}."
      },
      "supportsInterface(bytes4)": {
        "details": "See {IERC165-supportsInterface}."
      },
      "symbol()": {
        "details": "See {IERC721Metadata-symbol}."
      },
      "tokenURI(uint256)": {
        "details": "See {IERC721Metadata-tokenURI}."
      },
      "transferFrom(address,address,uint256)": {
        "details": "See {IERC721-transferFrom}."
      },
      "transferOwnership(address)": {
        "details": "Transfers ownership of the contract to a new account (`newOwner`). Can only be called by the current owner."
      }
    },
    "version": 1
  },
  "userdoc": {
    "kind": "user",
    "methods": {},
    "version": 1
  },
  "storageLayout": {
    "storage": [
      {
        "astId": 138,
        "contract": "contracts/TheBUNY.sol:TheBUNY",
        "label": "_name",
        "offset": 0,
        "slot": "0",
        "type": "t_string_storage"
      },
      {
        "astId": 140,
        "contract": "contracts/TheBUNY.sol:TheBUNY",
        "label": "_symbol",
        "offset": 0,
        "slot": "1",
        "type": "t_string_storage"
      },
      {
        "astId": 144,
        "contract": "contracts/TheBUNY.sol:TheBUNY",
        "label": "_owners",
        "offset": 0,
        "slot": "2",
        "type": "t_mapping(t_uint256,t_address)"
      },
      {
        "astId": 148,
        "contract": "contracts/TheBUNY.sol:TheBUNY",
        "label": "_balances",
        "offset": 0,
        "slot": "3",
        "type": "t_mapping(t_address,t_uint256)"
      },
      {
        "astId": 152,
        "contract": "contracts/TheBUNY.sol:TheBUNY",
        "label": "_tokenApprovals",
        "offset": 0,
        "slot": "4",
        "type": "t_mapping(t_uint256,t_address)"
      },
      {
        "astId": 158,
        "contract": "contracts/TheBUNY.sol:TheBUNY",
        "label": "_operatorApprovals",
        "offset": 0,
        "slot": "5",
        "type": "t_mapping(t_address,t_mapping(t_address,t_bool))"
      },
      {
        "astId": 7,
        "contract": "contracts/TheBUNY.sol:TheBUNY",
        "label": "_owner",
        "offset": 0,
        "slot": "6",
        "type": "t_address"
      },
      {
        "astId": 2881,
        "contract": "contracts/TheBUNY.sol:TheBUNY",
        "label": "supply",
        "offset": 0,
        "slot": "7",
        "type": "t_struct(Counter)1558_storage"
      },
      {
        "astId": 2884,
        "contract": "contracts/TheBUNY.sol:TheBUNY",
        "label": "cost",
        "offset": 0,
        "slot": "8",
        "type": "t_uint256"
      },
      {
        "astId": 2887,
        "contract": "contracts/TheBUNY.sol:TheBUNY",
        "label": "maxSupply",
        "offset": 0,
        "slot": "9",
        "type": "t_uint256"
      },
      {
        "astId": 2890,
        "contract": "contracts/TheBUNY.sol:TheBUNY",
        "label": "maxMintAmountPerTx",
        "offset": 0,
        "slot": "10",
        "type": "t_uint256"
      },
      {
        "astId": 2893,
        "contract": "contracts/TheBUNY.sol:TheBUNY",
        "label": "baseURI",
        "offset": 0,
        "slot": "11",
        "type": "t_string_storage"
      },
      {
        "astId": 2895,
        "contract": "contracts/TheBUNY.sol:TheBUNY",
        "label": "marketplaceAddress",
        "offset": 0,
        "slot": "12",
        "type": "t_address"
      },
      {
        "astId": 2898,
        "contract": "contracts/TheBUNY.sol:TheBUNY",
        "label": "paused",
        "offset": 20,
        "slot": "12",
        "type": "t_bool"
      },
      {
        "astId": 2910,
        "contract": "contracts/TheBUNY.sol:TheBUNY",
        "label": "forSale",
        "offset": 0,
        "slot": "13",
        "type": "t_mapping(t_bytes32,t_bool)"
      },
      {
        "astId": 2914,
        "contract": "contracts/TheBUNY.sol:TheBUNY",
        "label": "uriToTokenId",
        "offset": 0,
        "slot": "14",
        "type": "t_mapping(t_bytes32,t_uint256)"
      }
    ],
    "types": {
      "t_address": {
        "encoding": "inplace",
        "label": "address",
        "numberOfBytes": "20"
      },
      "t_bool": {
        "encoding": "inplace",
        "label": "bool",
        "numberOfBytes": "1"
      },
      "t_bytes32": {
        "encoding": "inplace",
        "label": "bytes32",
        "numberOfBytes": "32"
      },
      "t_mapping(t_address,t_bool)": {
        "encoding": "mapping",
        "key": "t_address",
        "label": "mapping(address => bool)",
        "numberOfBytes": "32",
        "value": "t_bool"
      },
      "t_mapping(t_address,t_mapping(t_address,t_bool))": {
        "encoding": "mapping",
        "key": "t_address",
        "label": "mapping(address => mapping(address => bool))",
        "numberOfBytes": "32",
        "value": "t_mapping(t_address,t_bool)"
      },
      "t_mapping(t_address,t_uint256)": {
        "encoding": "mapping",
        "key": "t_address",
        "label": "mapping(address => uint256)",
        "numberOfBytes": "32",
        "value": "t_uint256"
      },
      "t_mapping(t_bytes32,t_bool)": {
        "encoding": "mapping",
        "key": "t_bytes32",
        "label": "mapping(bytes32 => bool)",
        "numberOfBytes": "32",
        "value": "t_bool"
      },
      "t_mapping(t_bytes32,t_uint256)": {
        "encoding": "mapping",
        "key": "t_bytes32",
        "label": "mapping(bytes32 => uint256)",
        "numberOfBytes": "32",
        "value": "t_uint256"
      },
      "t_mapping(t_uint256,t_address)": {
        "encoding": "mapping",
        "key": "t_uint256",
        "label": "mapping(uint256 => address)",
        "numberOfBytes": "32",
        "value": "t_address"
      },
      "t_string_storage": {
        "encoding": "bytes",
        "label": "string",
        "numberOfBytes": "32"
      },
      "t_struct(Counter)1558_storage": {
        "encoding": "inplace",
        "label": "struct Counters.Counter",
        "members": [
          {
            "astId": 1557,
            "contract": "contracts/TheBUNY.sol:TheBUNY",
            "label": "_value",
            "offset": 0,
            "slot": "0",
            "type": "t_uint256"
          }
        ],
        "numberOfBytes": "32"
      },
      "t_uint256": {
        "encoding": "inplace",
        "label": "uint256",
        "numberOfBytes": "32"
      }
    }
  }
}