{
  "_format": "hh-sol-artifact-1",
  "contractName": "Token",
  "sourceName": "contracts/Bots/BEP20.sol",
  "abi": [
    {
      "inputs": [],
      "stateMutability": "nonpayable",
      "type": "constructor"
    },
    {
      "anonymous": false,
      "inputs": [
        {
          "indexed": true,
          "internalType": "address",
          "name": "from",
          "type": "address"
        },
        {
          "indexed": true,
          "internalType": "address",
          "name": "to",
          "type": "address"
        },
        {
          "indexed": false,
          "internalType": "uint256",
          "name": "value",
          "type": "uint256"
        }
      ],
      "name": "Transfer",
      "type": "event"
    },
    {
      "inputs": [
        {
          "internalType": "address",
          "name": "owner",
          "type": "address"
        }
      ],
      "name": "balanceOf",
      "outputs": [
        {
          "internalType": "uint256",
          "name": "",
          "type": "uint256"
        }
      ],
      "stateMutability": "view",
      "type": "function"
    },
    {
      "inputs": [
        {
          "internalType": "address",
          "name": "",
          "type": "address"
        }
      ],
      "name": "balances",
      "outputs": [
        {
          "internalType": "uint256",
          "name": "",
          "type": "uint256"
        }
      ],
      "stateMutability": "view",
      "type": "function"
    },
    {
      "inputs": [],
      "name": "decimals",
      "outputs": [
        {
          "internalType": "uint256",
          "name": "",
          "type": "uint256"
        }
      ],
      "stateMutability": "view",
      "type": "function"
    },
    {
      "inputs": [],
      "name": "name",
      "outputs": [
        {
          "internalType": "string",
          "name": "",
          "type": "string"
        }
      ],
      "stateMutability": "view",
      "type": "function"
    },
    {
      "inputs": [],
      "name": "symbol",
      "outputs": [
        {
          "internalType": "string",
          "name": "",
          "type": "string"
        }
      ],
      "stateMutability": "view",
      "type": "function"
    },
    {
      "inputs": [],
      "name": "totalSupply",
      "outputs": [
        {
          "internalType": "uint256",
          "name": "",
          "type": "uint256"
        }
      ],
      "stateMutability": "view",
      "type": "function"
    },
    {
      "inputs": [
        {
          "internalType": "address",
          "name": "to",
          "type": "address"
        },
        {
          "internalType": "uint256",
          "name": "value",
          "type": "uint256"
        }
      ],
      "name": "transfer",
      "outputs": [
        {
          "internalType": "bool",
          "name": "",
          "type": "bool"
        }
      ],
      "stateMutability": "nonpayable",
      "type": "function"
    }
  ],
  "bytecode": "0x683635c9adc5dea0000060015560c0604052600860809081526726bc902a37b5b2b760c11b60a0526002906100349082610125565b50604080518082019091526003808252624d544b60e81b60208301529061005b9082610125565b50601260045534801561006d57600080fd5b50600154336000908152602081905260409020556101e4565b634e487b7160e01b600052604160045260246000fd5b600181811c908216806100b057607f821691505b6020821081036100d057634e487b7160e01b600052602260045260246000fd5b50919050565b601f82111561012057600081815260208120601f850160051c810160208610156100fd5750805b601f850160051c820191505b8181101561011c57828155600101610109565b5050505b505050565b81516001600160401b0381111561013e5761013e610086565b6101528161014c845461009c565b846100d6565b602080601f831160018114610187576000841561016f5750858301515b600019600386901b1c1916600185901b17855561011c565b600085815260208120601f198616915b828110156101b657888601518255948401946001909101908401610197565b50858210156101d45787850151600019600388901b60f8161c191681555b5050505050600190811b01905550565b610426806101f36000396000f3fe608060405234801561001057600080fd5b506004361061007d5760003560e01c8063313ce5671161005b578063313ce567146100d757806370a08231146100e057806395d89b4114610109578063a9059cbb1461011157600080fd5b806306fdde031461008257806318160ddd146100a057806327e235e3146100b7575b600080fd5b61008a610134565b60405161009791906102c4565b60405180910390f35b6100a960015481565b604051908152602001610097565b6100a96100c536600461032e565b60006020819052908152604090205481565b6100a960045481565b6100a96100ee36600461032e565b6001600160a01b031660009081526020819052604090205490565b61008a6101c2565b61012461011f366004610350565b6101cf565b6040519015158152602001610097565b600280546101419061037a565b80601f016020809104026020016040519081016040528092919081815260200182805461016d9061037a565b80156101ba5780601f1061018f576101008083540402835291602001916101ba565b820191906000526020600020905b81548152906001019060200180831161019d57829003601f168201915b505050505081565b600380546101419061037a565b336000908152602081905260408120548211156102295760405162461bcd60e51b8152602060048201526014602482015273496e73756666696369656e742062616c616e636560601b604482015260640160405180910390fd5b6001600160a01b038316600090815260208190526040812080548492906102519084906103ca565b909155505033600090815260208190526040812080548492906102759084906103dd565b90915550506040518281526001600160a01b0384169033907fddf252ad1be2c89b69c2b068fc378daa952ba7f163c4a11628f55a4df523b3ef9060200160405180910390a35060015b92915050565b600060208083528351808285015260005b818110156102f1578581018301518582016040015282016102d5565b506000604082860101526040601f19601f8301168501019250505092915050565b80356001600160a01b038116811461032957600080fd5b919050565b60006020828403121561034057600080fd5b61034982610312565b9392505050565b6000806040838503121561036357600080fd5b61036c83610312565b946020939093013593505050565b600181811c9082168061038e57607f821691505b6020821081036103ae57634e487b7160e01b600052602260045260246000fd5b50919050565b634e487b7160e01b600052601160045260246000fd5b808201808211156102be576102be6103b4565b818103818111156102be576102be6103b456fea26469706673582212205ee1001dcc32ba396c4c8c25c40c47654b072c5309d6e7e700ed09e45cca2d7864736f6c63430008120033",
  "linkReferences": {},
  "deployedLinkReferences": {}
}