{
  "address": "0xAd387c107b53Bc48a04e28abf900eBC5A27b00dc",
  "abi": [
    {
      "inputs": [
        {
          "internalType": "uint256",
          "name": "_size",
          "type": "uint256"
        },
        {
          "internalType": "uint256",
          "name": "_start",
          "type": "uint256"
        },
        {
          "internalType": "uint256",
          "name": "_end",
          "type": "uint256"
        }
      ],
      "name": "InvalidCodeAtRange",
      "type": "error"
    },
    {
      "anonymous": false,
      "inputs": [
        {
          "indexed": true,
          "internalType": "address",
          "name": "depositor",
          "type": "address"
        },
        {
          "indexed": false,
          "internalType": "uint256",
          "name": "amount",
          "type": "uint256"
        },
        {
          "indexed": false,
          "internalType": "uint256",
          "name": "timestamp",
          "type": "uint256"
        }
      ],
      "name": "NewDeposit",
      "type": "event"
    },
    {
      "anonymous": false,
      "inputs": [
        {
          "indexed": true,
          "internalType": "address",
          "name": "depositor",
          "type": "address"
        },
        {
          "indexed": true,
          "internalType": "address",
          "name": "tokenAddress",
          "type": "address"
        },
        {
          "indexed": false,
          "internalType": "uint256",
          "name": "amount",
          "type": "uint256"
        },
        {
          "indexed": false,
          "internalType": "uint256",
          "name": "timestamp",
          "type": "uint256"
        }
      ],
      "name": "NewERC20Deposit",
      "type": "event"
    },
    {
      "anonymous": false,
      "inputs": [
        {
          "indexed": true,
          "internalType": "address",
          "name": "depositor",
          "type": "address"
        },
        {
          "indexed": true,
          "internalType": "address",
          "name": "nftContractAddress",
          "type": "address"
        },
        {
          "indexed": false,
          "internalType": "uint256",
          "name": "tokenId",
          "type": "uint256"
        },
        {
          "indexed": false,
          "internalType": "uint256",
          "name": "timestamp",
          "type": "uint256"
        }
      ],
      "name": "NewNFTDeposit",
      "type": "event"
    },
    {
      "anonymous": false,
      "inputs": [
        {
          "indexed": false,
          "internalType": "string",
          "name": "title",
          "type": "string"
        },
        {
          "indexed": true,
          "internalType": "address",
          "name": "attendee",
          "type": "address"
        },
        {
          "indexed": false,
          "internalType": "uint256",
          "name": "startTime",
          "type": "uint256"
        },
        {
          "indexed": false,
          "internalType": "uint256",
          "name": "endTime",
          "type": "uint256"
        },
        {
          "indexed": false,
          "internalType": "uint256",
          "name": "timestamp",
          "type": "uint256"
        }
      ],
      "name": "NewPrivateEventCreated",
      "type": "event"
    },
    {
      "anonymous": false,
      "inputs": [
        {
          "indexed": false,
          "internalType": "uint256",
          "name": "eventID",
          "type": "uint256"
        },
        {
          "indexed": false,
          "internalType": "string",
          "name": "title",
          "type": "string"
        },
        {
          "indexed": false,
          "internalType": "address",
          "name": "invitee",
          "type": "address"
        }
      ],
      "name": "UserInvited",
      "type": "event"
    },
    {
      "anonymous": false,
      "inputs": [
        {
          "indexed": false,
          "internalType": "uint256",
          "name": "amount",
          "type": "uint256"
        },
        {
          "indexed": true,
          "internalType": "address",
          "name": "recipient",
          "type": "address"
        },
        {
          "indexed": false,
          "internalType": "uint256",
          "name": "timestamp",
          "type": "uint256"
        }
      ],
      "name": "WithdrawEvent",
      "type": "event"
    },
    {
      "inputs": [],
      "name": "accountName",
      "outputs": [
        {
          "internalType": "string",
          "name": "",
          "type": "string"
        }
      ],
      "stateMutability": "view",
      "type": "function"
    },
    {
      "inputs": [],
      "name": "calendarAddress",
      "outputs": [
        {
          "internalType": "address",
          "name": "",
          "type": "address"
        }
      ],
      "stateMutability": "view",
      "type": "function"
    },
    {
      "inputs": [
        {
          "internalType": "string",
          "name": "title",
          "type": "string"
        },
        {
          "internalType": "uint256",
          "name": "startTime",
          "type": "uint256"
        },
        {
          "internalType": "uint256",
          "name": "endTime",
          "type": "uint256"
        },
        {
          "internalType": "string",
          "name": "metadataURI",
          "type": "string"
        },
        {
          "internalType": "address[]",
          "name": "invitees",
          "type": "address[]"
        }
      ],
      "name": "createEvent",
      "outputs": [],
      "stateMutability": "nonpayable",
      "type": "function"
    },
    {
      "inputs": [],
      "name": "deposit",
      "outputs": [],
      "stateMutability": "payable",
      "type": "function"
    },
    {
      "inputs": [],
      "name": "depositCount",
      "outputs": [
        {
          "internalType": "uint256",
          "name": "",
          "type": "uint256"
        }
      ],
      "stateMutability": "view",
      "type": "function"
    },
    {
      "inputs": [
        {
          "internalType": "uint256",
          "name": "",
          "type": "uint256"
        }
      ],
      "name": "deposits",
      "outputs": [
        {
          "internalType": "address",
          "name": "depositor",
          "type": "address"
        },
        {
          "internalType": "address",
          "name": "tokenAddress",
          "type": "address"
        },
        {
          "internalType": "uint256",
          "name": "amount",
          "type": "uint256"
        },
        {
          "internalType": "uint256",
          "name": "timestamp",
          "type": "uint256"
        }
      ],
      "stateMutability": "view",
      "type": "function"
    },
    {
      "inputs": [
        {
          "internalType": "address",
          "name": "",
          "type": "address"
        }
      ],
      "name": "eventCount",
      "outputs": [
        {
          "internalType": "uint256",
          "name": "",
          "type": "uint256"
        }
      ],
      "stateMutability": "view",
      "type": "function"
    },
    {
      "inputs": [
        {
          "internalType": "uint256",
          "name": "",
          "type": "uint256"
        }
      ],
      "name": "eventCreators",
      "outputs": [
        {
          "internalType": "address",
          "name": "",
          "type": "address"
        }
      ],
      "stateMutability": "view",
      "type": "function"
    },
    {
      "inputs": [
        {
          "internalType": "uint256",
          "name": "",
          "type": "uint256"
        },
        {
          "internalType": "uint256",
          "name": "",
          "type": "uint256"
        }
      ],
      "name": "eventInvitations",
      "outputs": [
        {
          "internalType": "address",
          "name": "",
          "type": "address"
        }
      ],
      "stateMutability": "view",
      "type": "function"
    },
    {
      "inputs": [
        {
          "internalType": "address",
          "name": "to",
          "type": "address"
        },
        {
          "internalType": "uint256",
          "name": "value",
          "type": "uint256"
        },
        {
          "internalType": "bytes",
          "name": "data",
          "type": "bytes"
        }
      ],
      "name": "executeCall",
      "outputs": [
        {
          "internalType": "bytes",
          "name": "result",
          "type": "bytes"
        }
      ],
      "stateMutability": "payable",
      "type": "function"
    },
    {
      "inputs": [],
      "name": "getBalance",
      "outputs": [
        {
          "internalType": "uint256",
          "name": "",
          "type": "uint256"
        }
      ],
      "stateMutability": "view",
      "type": "function"
    },
    {
      "inputs": [
        {
          "internalType": "address",
          "name": "_erc20Token",
          "type": "address"
        }
      ],
      "name": "getTokenBalance",
      "outputs": [
        {
          "internalType": "uint256",
          "name": "",
          "type": "uint256"
        }
      ],
      "stateMutability": "view",
      "type": "function"
    },
    {
      "inputs": [
        {
          "internalType": "address",
          "name": "user",
          "type": "address"
        }
      ],
      "name": "getUserEvents",
      "outputs": [
        {
          "components": [
            {
              "internalType": "string",
              "name": "title",
              "type": "string"
            },
            {
              "internalType": "address",
              "name": "attendee",
              "type": "address"
            },
            {
              "internalType": "uint256",
              "name": "startTime",
              "type": "uint256"
            },
            {
              "internalType": "uint256",
              "name": "endTime",
              "type": "uint256"
            },
            {
              "internalType": "address",
              "name": "calendar",
              "type": "address"
            }
          ],
          "internalType": "struct BunyERC6551Account.CalendarEvent[]",
          "name": "",
          "type": "tuple[]"
        }
      ],
      "stateMutability": "view",
      "type": "function"
    },
    {
      "inputs": [
        {
          "internalType": "bytes32",
          "name": "hash",
          "type": "bytes32"
        },
        {
          "internalType": "bytes",
          "name": "signature",
          "type": "bytes"
        }
      ],
      "name": "isValidSignature",
      "outputs": [
        {
          "internalType": "bytes4",
          "name": "magicValue",
          "type": "bytes4"
        }
      ],
      "stateMutability": "view",
      "type": "function"
    },
    {
      "inputs": [],
      "name": "nftDepositCount",
      "outputs": [
        {
          "internalType": "uint256",
          "name": "",
          "type": "uint256"
        }
      ],
      "stateMutability": "view",
      "type": "function"
    },
    {
      "inputs": [
        {
          "internalType": "uint256",
          "name": "",
          "type": "uint256"
        }
      ],
      "name": "nftDeposits",
      "outputs": [
        {
          "internalType": "address",
          "name": "depositor",
          "type": "address"
        },
        {
          "internalType": "address",
          "name": "nftContractAddress",
          "type": "address"
        },
        {
          "internalType": "uint256",
          "name": "tokenId",
          "type": "uint256"
        },
        {
          "internalType": "uint256",
          "name": "timestamp",
          "type": "uint256"
        }
      ],
      "stateMutability": "view",
      "type": "function"
    },
    {
      "inputs": [],
      "name": "nonce",
      "outputs": [
        {
          "internalType": "uint256",
          "name": "",
          "type": "uint256"
        }
      ],
      "stateMutability": "view",
      "type": "function"
    },
    {
      "inputs": [],
      "name": "owner",
      "outputs": [
        {
          "internalType": "address",
          "name": "",
          "type": "address"
        }
      ],
      "stateMutability": "view",
      "type": "function"
    },
    {
      "inputs": [
        {
          "internalType": "address",
          "name": "_erc20Token",
          "type": "address"
        },
        {
          "internalType": "uint256",
          "name": "amount",
          "type": "uint256"
        }
      ],
      "name": "receiveERC20",
      "outputs": [],
      "stateMutability": "payable",
      "type": "function"
    },
    {
      "inputs": [
        {
          "internalType": "address",
          "name": "_nftContract",
          "type": "address"
        },
        {
          "internalType": "uint256",
          "name": "_tokenId",
          "type": "uint256"
        }
      ],
      "name": "receiveNFT",
      "outputs": [],
      "stateMutability": "nonpayable",
      "type": "function"
    },
    {
      "inputs": [
        {
          "internalType": "string",
          "name": "newName",
          "type": "string"
        }
      ],
      "name": "setAccountName",
      "outputs": [],
      "stateMutability": "nonpayable",
      "type": "function"
    },
    {
      "inputs": [
        {
          "internalType": "address",
          "name": "_contractAddress",
          "type": "address"
        }
      ],
      "name": "setCalendarAddress",
      "outputs": [],
      "stateMutability": "nonpayable",
      "type": "function"
    },
    {
      "inputs": [
        {
          "internalType": "bytes4",
          "name": "interfaceId",
          "type": "bytes4"
        }
      ],
      "name": "supportsInterface",
      "outputs": [
        {
          "internalType": "bool",
          "name": "",
          "type": "bool"
        }
      ],
      "stateMutability": "pure",
      "type": "function"
    },
    {
      "inputs": [],
      "name": "token",
      "outputs": [
        {
          "internalType": "uint256",
          "name": "chainId",
          "type": "uint256"
        },
        {
          "internalType": "address",
          "name": "tokenContract",
          "type": "address"
        },
        {
          "internalType": "uint256",
          "name": "tokenId",
          "type": "uint256"
        }
      ],
      "stateMutability": "view",
      "type": "function"
    },
    {
      "inputs": [],
      "name": "totalEvents",
      "outputs": [
        {
          "internalType": "uint256",
          "name": "",
          "type": "uint256"
        }
      ],
      "stateMutability": "view",
      "type": "function"
    },
    {
      "inputs": [
        {
          "internalType": "address",
          "name": "",
          "type": "address"
        },
        {
          "internalType": "uint256",
          "name": "",
          "type": "uint256"
        }
      ],
      "name": "userEvents",
      "outputs": [
        {
          "internalType": "string",
          "name": "title",
          "type": "string"
        },
        {
          "internalType": "address",
          "name": "attendee",
          "type": "address"
        },
        {
          "internalType": "uint256",
          "name": "startTime",
          "type": "uint256"
        },
        {
          "internalType": "uint256",
          "name": "endTime",
          "type": "uint256"
        },
        {
          "internalType": "address",
          "name": "calendar",
          "type": "address"
        }
      ],
      "stateMutability": "view",
      "type": "function"
    },
    {
      "inputs": [
        {
          "internalType": "address",
          "name": "",
          "type": "address"
        },
        {
          "internalType": "uint256",
          "name": "",
          "type": "uint256"
        }
      ],
      "name": "userPrivateEvents",
      "outputs": [
        {
          "internalType": "string",
          "name": "title",
          "type": "string"
        },
        {
          "internalType": "address",
          "name": "attendee",
          "type": "address"
        },
        {
          "internalType": "uint256",
          "name": "startTime",
          "type": "uint256"
        },
        {
          "internalType": "uint256",
          "name": "endTime",
          "type": "uint256"
        }
      ],
      "stateMutability": "view",
      "type": "function"
    },
    {
      "inputs": [
        {
          "internalType": "uint256",
          "name": "",
          "type": "uint256"
        }
      ],
      "name": "users",
      "outputs": [
        {
          "internalType": "address",
          "name": "",
          "type": "address"
        }
      ],
      "stateMutability": "view",
      "type": "function"
    },
    {
      "inputs": [
        {
          "internalType": "uint256",
          "name": "amount",
          "type": "uint256"
        }
      ],
      "name": "withdraw",
      "outputs": [],
      "stateMutability": "nonpayable",
      "type": "function"
    },
    {
      "inputs": [
        {
          "internalType": "address payable",
          "name": "recipient",
          "type": "address"
        },
        {
          "internalType": "uint256",
          "name": "amount",
          "type": "uint256"
        }
      ],
      "name": "withdrawTo",
      "outputs": [],
      "stateMutability": "nonpayable",
      "type": "function"
    },
    {
      "stateMutability": "payable",
      "type": "receive"
    }
  ],
  "transactionHash": "0xb45f936daeba87db89c97b0a7cf7cb094b1b415f1c41078124353af510121931",
  "args": [],
  "numDeployments": 1,
  "solcInputHash": "4192cae1536f9be71e4dff3e2fa023f2",
  "bytecode": "0x60c0604052601f60809081527f4461696c792054656c6f7320546f6b656e204f776e6564204163636f756e740060a0526001906200003e908262000102565b5060006002556000600e553480156200005657600080fd5b50620001ce565b634e487b7160e01b600052604160045260246000fd5b600181811c908216806200008857607f821691505b602082108103620000a957634e487b7160e01b600052602260045260246000fd5b50919050565b601f821115620000fd57600081815260208120601f850160051c81016020861015620000d85750805b601f850160051c820191505b81811015620000f957828155600101620000e4565b5050505b505050565b81516001600160401b038111156200011e576200011e6200005d565b62000136816200012f845462000073565b84620000af565b602080601f8311600181146200016e5760008415620001555750858301515b600019600386901b1c1916600185901b178555620000f9565b600085815260208120601f198616915b828110156200019f578886015182559484019460019091019084016200017e565b5085821015620001be5787850151600019600388901b60f8161c191681555b5050505050600190811b01905550565b6123f680620001de6000396000f3fe6080604052600436106101d15760003560e01c80638da5cb5b116100f7578063ba87068611610095578063dd224ab111610064578063dd224ab1146105ce578063ef7e1f68146105ee578063f4a693f01461060e578063fc0c546a1461062457600080fd5b8063ba8706861461056a578063bdfc989314610580578063c5e57985146105b1578063d0e30db0146105c657600080fd5b8063aed4aab6116100d1578063aed4aab6146104c1578063affed0e0146104d4578063b02c43d0146104e9578063b4a8121d1461053a57600080fd5b80638da5cb5b1461046c57806395fa6c50146104815780639e5d4c49146104a157600080fd5b80632dfdf0b51161016f578063365b98b21161013e578063365b98b2146103df5780633aecd0e3146103ff578063455f20dc1461041f5780637dfbfb431461044c57600080fd5b80632dfdf0b5146103695780632e1a7d4d1461037f5780632e95adad1461039f578063319d63e5146103bf57600080fd5b8063171e5ba2116101ab578063171e5ba2146102685780631ad03156146102955780631bc5fc96146102cd578063205c28781461034757600080fd5b806301ffc9a7146101dd57806312065fe0146102125780631626ba7e1461022f57600080fd5b366101d857005b600080fd5b3480156101e957600080fd5b506101fd6101f8366004611b1c565b61065c565b60405190151581526020015b60405180910390f35b34801561021e57600080fd5b50475b604051908152602001610209565b34801561023b57600080fd5b5061024f61024a366004611be5565b6106ae565b6040516001600160e01b03199091168152602001610209565b34801561027457600080fd5b50610288610283366004611c58565b6106ec565b6040516102099190611cc5565b3480156102a157600080fd5b506007546102b5906001600160a01b031681565b6040516001600160a01b039091168152602001610209565b3480156102d957600080fd5b5061031c6102e8366004611d66565b600d6020526000908152604090208054600182015460028301546003909301546001600160a01b0392831693919092169184565b604080516001600160a01b039586168152949093166020850152918301526060820152608001610209565b34801561035357600080fd5b50610367610362366004611d7f565b61082d565b005b34801561037557600080fd5b5061022160025481565b34801561038b57600080fd5b5061036761039a366004611d66565b6108f1565b3480156103ab57600080fd5b506103676103ba366004611dcb565b6109dc565b3480156103cb57600080fd5b506103676103da366004611d7f565b610a6e565b3480156103eb57600080fd5b506102b56103fa366004611d66565b610c79565b34801561040b57600080fd5b5061022161041a366004611c58565b610ca3565b34801561042b57600080fd5b5061022161043a366004611c58565b600c6020526000908152604090205481565b34801561045857600080fd5b50610367610467366004611e08565b610d0e565b34801561047857600080fd5b506102b56110ae565b34801561048d57600080fd5b506102b561049c366004611d66565b61119e565b6104b46104af366004611f15565b6111ae565b6040516102099190611f9e565b6103676104cf366004611d7f565b61129c565b3480156104e057600080fd5b50600054610221565b3480156104f557600080fd5b5061031c610504366004611d66565b600360208190526000918252604090912080546001820154600283015492909301546001600160a01b0391821693909116919084565b34801561054657600080fd5b5061055a610555366004611d7f565b611398565b6040516102099493929190611fb1565b34801561057657600080fd5b50610221600b5481565b34801561058c57600080fd5b506105a061059b366004611d7f565b611479565b604051610209959493929190611fe9565b3480156105bd57600080fd5b506104b4611561565b6103676115ef565b3480156105da57600080fd5b506103676105e9366004611c58565b611713565b3480156105fa57600080fd5b506102b561060936600461202e565b6117ac565b34801561061a57600080fd5b50610221600e5481565b34801561063057600080fd5b506106396117e4565b604080519384526001600160a01b03909216602084015290820152606001610209565b60006001600160e01b031982166301ffc9a760e01b148061068d57506001600160e01b03198216630801407360e31b145b806106a857506001600160e01b03198216630b135d3f60e11b145b92915050565b6000806106c36106bc6110ae565b8585611820565b905080156106db5750630b135d3f60e11b90506106a8565b506001600160e01b03199392505050565b6001600160a01b0381166000908152600660209081526040808320805482518185028101850190935280835260609492939192909184015b8282101561082257838290600052602060002090600502016040518060a001604052908160008201805461075790612050565b80601f016020809104026020016040519081016040528092919081815260200182805461078390612050565b80156107d05780601f106107a5576101008083540402835291602001916107d0565b820191906000526020600020905b8154815290600101906020018083116107b357829003601f168201915b50505091835250506001828101546001600160a01b0390811660208085019190915260028501546040850152600385015460608501526004909401541660809092019190915291835292019101610724565b505050509050919050565b6108356110ae565b6001600160a01b0316336001600160a01b03161461086e5760405162461bcd60e51b81526004016108659061208a565b60405180910390fd5b478111156108b65760405162461bcd60e51b815260206004820152601560248201527424b739bab33334b1b4b2b73a103130b630b731b29760591b6044820152606401610865565b6040516001600160a01b0383169082156108fc029083906000818181858888f193505050501580156108ec573d6000803e3d6000fd5b505050565b6108f96110ae565b6001600160a01b0316336001600160a01b0316146109295760405162461bcd60e51b81526004016108659061208a565b478111156109715760405162461bcd60e51b815260206004820152601560248201527424b739bab33334b1b4b2b73a103130b630b731b29760591b6044820152606401610865565b604051339082156108fc029083906000818181858888f1935050505015801561099e573d6000803e3d6000fd5b506040805182815242602082015233917f8cf1dfe3b4685982358f16fbcb1d9192f7945d25d503b15a39bd2bf5dfc6bf7a910160405180910390a250565b6109e46110ae565b6001600160a01b0316336001600160a01b031614610a5e5760405162461bcd60e51b815260206004820152603160248201527f4f6e6c792074686520636f6e7472616374206f776e65722063616e207365742060448201527074686520636f6e7472616374206e616d6560781b6064820152608401610865565b6001610a6a828261211a565b5050565b6040516331a9108f60e11b81526004810182905282906001600160a01b03821690636352211e90602401602060405180830381865afa158015610ab5573d6000803e3d6000fd5b505050506040513d601f19601f82011682018060405250810190610ad991906121da565b6001600160a01b0316336001600160a01b031614610b455760405162461bcd60e51b815260206004820152602360248201527f43616c6c6572206973206e6f7420746865206f776e6572206f6620746869732060448201526213919560ea1b6064820152608401610865565b6040516323b872dd60e01b8152336004820152306024820152604481018390526001600160a01b038216906323b872dd90606401600060405180830381600087803b158015610b9357600080fd5b505af1158015610ba7573d6000803e3d6000fd5b5050600e8054925090506000610bbc8361220d565b909155505060408051608081018252338082526001600160a01b0386811660208085018281528587018981524260608801818152600e546000908152600d86528a9020985189549088166001600160a01b0319918216178a55935160018a01805491909816941693909317909555516002870155516003909501949094558451878152938401919091529290917f60a31190882340f80c8c258e4b073d3a4ee6fbef12f5e12063dc7be0ef1ed4eb910160405180910390a3505050565b60098181548110610c8957600080fd5b6000918252602090912001546001600160a01b0316905081565b6040516370a0823160e01b81523060048201526000906001600160a01b038316906370a0823190602401602060405180830381865afa158015610cea573d6000803e3d6000fd5b505050506040513d601f19601f820116820180604052508101906106a89190612226565b610d166110ae565b6001600160a01b0316336001600160a01b031614610d885760405162461bcd60e51b815260206004820152602960248201527f4f6e6c79204e4654206f776e65722063616e206372656174652063616c656e646044820152686172206576656e747360b81b6064820152608401610865565b600754604051637dfbfb4360e01b81526001600160a01b03909116908190637dfbfb4390610dc2908990899089908990899060040161223f565b600060405180830381600087803b158015610ddc57600080fd5b505af1158015610df0573d6000803e3d6000fd5b50505050610e386040518060a001604052806060815260200160006001600160a01b03168152602001600081526020016000815260200160006001600160a01b031681525090565b868152604080820187905260608201869052306020808401919091526007546001600160a01b03166080840152336000908152600682529182208054600181018255908352912082518392600502909101908190610e96908261211a565b50602082810151600180840180546001600160a01b039384166001600160a01b03199182161790915560408087015160028701556060870151600387015560809096015160049095018054959093169416939093179055336000908152600690915291822054610f0691906122bf565b600b80549192506000610f188361220d565b909155505033600090815260066020526040902054600103610faf576009805460018082019092557f6e1540171b6c0c960b71a7020d9f60077f6af931a8bbf590da0223dacf75c7af018054336001600160a01b03199182168117909255600a805493840181556000527fc65a7bb8d6351c1cf70c95a316cc6a92839c986682d98bc35f958f4883f9d2a890920180549092161790555b336000908152600c60205260408120805491610fca8361220d565b919050555060005b84518110156110a35760008281526008602052604090208551869083908110610ffd57610ffd6122d2565b60209081029190910181015182546001810184556000938452919092200180546001600160a01b0319166001600160a01b0390921691909117905584517fd48873c66feece7bbf3cbcd8d14102600b7da47eac54823e0441effd7da44c5e9083908b90889085908110611072576110726122d2565b6020026020010151604051611089939291906122e8565b60405180910390a18061109b8161220d565b915050610fd2565b505050505050505050565b600080600080306001600160a01b031663fc0c546a6040518163ffffffff1660e01b8152600401606060405180830381865afa1580156110f2573d6000803e3d6000fd5b505050506040513d601f19601f820116820180604052508101906111169190612319565b92509250925046831461112d576000935050505090565b6040516331a9108f60e11b8152600481018290526001600160a01b03831690636352211e90602401602060405180830381865afa158015611172573d6000803e3d6000fd5b505050506040513d601f19601f8201168201806040525081019061119691906121da565b935050505090565b600a8181548110610c8957600080fd5b60606111b86110ae565b6001600160a01b0316336001600160a01b03161461120a5760405162461bcd60e51b815260206004820152600f60248201526e2737ba103a37b5b2b71037bbb732b960891b6044820152606401610865565b6000856001600160a01b0316858585604051611227929190612352565b60006040518083038185875af1925050503d8060008114611264576040519150601f19603f3d011682016040523d82523d6000602084013e611269565b606091505b50925090508061127b57815160208301fd5b600160008082825461128d9190612362565b90915550919695505050505050565b6001600160a01b038216600090815260046020526040812080548392906112c4908490612362565b9091555050600280549060006112d98361220d565b909155505060408051608081018252338082526001600160a01b03858116602080850182815285870188815242606088018181526002805460009081526003808852908c90209a518b54908a166001600160a01b0319918216178c55955160018c01805491909a16961695909517909755915195880195909555519501949094558451348152938401919091529290917f15813e9564c507bcbca7412d2ad13afab5e7278037d8d5e34f8bb00baea2140a910160405180910390a35050565b600560205281600052604060002081815481106113b457600080fd5b9060005260206000209060040201600091509150508060000180546113d890612050565b80601f016020809104026020016040519081016040528092919081815260200182805461140490612050565b80156114515780601f1061142657610100808354040283529160200191611451565b820191906000526020600020905b81548152906001019060200180831161143457829003601f168201915b505050506001830154600284015460039094015492936001600160a01b039091169290915084565b6006602052816000526040600020818154811061149557600080fd5b9060005260206000209060050201600091509150508060000180546114b990612050565b80601f01602080910402602001604051908101604052809291908181526020018280546114e590612050565b80156115325780601f1061150757610100808354040283529160200191611532565b820191906000526020600020905b81548152906001019060200180831161151557829003601f168201915b50505060018401546002850154600386015460049096015494956001600160a01b039283169591945092501685565b6001805461156e90612050565b80601f016020809104026020016040519081016040528092919081815260200182805461159a90612050565b80156115e75780601f106115bc576101008083540402835291602001916115e7565b820191906000526020600020905b8154815290600101906020018083116115ca57829003601f168201915b505050505081565b6000341161164e5760405162461bcd60e51b815260206004820152602660248201527f4465706f73697420616d6f756e74206d757374206265206772656174657220746044820152653430b710181760d11b6064820152608401610865565b6002805490600061165e8361220d565b90915550506040805160808101825233808252600060208084018281523485870181815242606088018181526002805488526003808852978b902099518a546001600160a01b03199081166001600160a01b03928316178c55965160018c0180549098169116179095559151938801939093555195909301949094558451918252810192909252917fa91e0c3165215fe453f5bf3de083d5fd6c4e62c491849155a042a647588c53a0910160405180910390a2565b61171b6110ae565b6001600160a01b0316336001600160a01b03161461178a5760405162461bcd60e51b815260206004820152602660248201527f4f6e6c79206f776e65722063616e206372656174652063616c656e646172206560448201526503b32b73a39960d51b6064820152608401610865565b600780546001600160a01b0319166001600160a01b0392909216919091179055565b600860205281600052604060002081815481106117c857600080fd5b6000918252602090912001546001600160a01b03169150829050565b6000808030803b90611801906117fb6060846122bf565b83611883565b8060200190518101906118149190612319565b93509350935050909192565b600080600061182f8585611938565b9092509050600081600381111561184857611848612375565b1480156118665750856001600160a01b0316826001600160a01b0316145b80611877575061187786868661197d565b925050505b9392505050565b6060833b60008190036118a657505060408051602081019091526000815261187c565b808411156118c457505060408051602081019091526000815261187c565b838310156118f65760405163162544fd60e11b8152600481018290526024810185905260448101849052606401610865565b838303848203600082821061190b578261190d565b815b60408051603f8301601f19168101909152818152955090508087602087018a3c505050509392505050565b600080825160410361196e5760208301516040840151606085015160001a61196287828585611a58565b94509450505050611976565b506000905060025b9250929050565b6000806000856001600160a01b0316858560405160240161199f92919061238b565b60408051601f198184030181529181526020820180516001600160e01b0316630b135d3f60e11b179052516119d491906123a4565b600060405180830381855afa9150503d8060008114611a0f576040519150601f19603f3d011682016040523d82523d6000602084013e611a14565b606091505b5091509150818015611a2857506020815110155b801561187757508051630b135d3f60e11b90611a4d9083016020908101908401612226565b149695505050505050565b6000807f7fffffffffffffffffffffffffffffff5d576e7357a4501ddfe92f46681b20a0831115611a8f5750600090506003611b13565b6040805160008082526020820180845289905260ff881692820192909252606081018690526080810185905260019060a0016020604051602081039080840390855afa158015611ae3573d6000803e3d6000fd5b5050604051601f1901519150506001600160a01b038116611b0c57600060019250925050611b13565b9150600090505b94509492505050565b600060208284031215611b2e57600080fd5b81356001600160e01b03198116811461187c57600080fd5b634e487b7160e01b600052604160045260246000fd5b604051601f8201601f1916810167ffffffffffffffff81118282101715611b8557611b85611b46565b604052919050565b600067ffffffffffffffff831115611ba757611ba7611b46565b611bba601f8401601f1916602001611b5c565b9050828152838383011115611bce57600080fd5b828260208301376000602084830101529392505050565b60008060408385031215611bf857600080fd5b82359150602083013567ffffffffffffffff811115611c1657600080fd5b8301601f81018513611c2757600080fd5b611c3685823560208401611b8d565b9150509250929050565b6001600160a01b0381168114611c5557600080fd5b50565b600060208284031215611c6a57600080fd5b813561187c81611c40565b60005b83811015611c90578181015183820152602001611c78565b50506000910152565b60008151808452611cb1816020860160208601611c75565b601f01601f19169290920160200192915050565b60006020808301818452808551808352604092508286019150828160051b87010184880160005b83811015611d5857603f19898403018552815160a08151818652611d1282870182611c99565b838b01516001600160a01b03908116888d01528a8501518b8901526060808601519089015260809485015116939096019290925250509386019390860190600101611cec565b509098975050505050505050565b600060208284031215611d7857600080fd5b5035919050565b60008060408385031215611d9257600080fd5b8235611d9d81611c40565b946020939093013593505050565b600082601f830112611dbc57600080fd5b61187c83833560208501611b8d565b600060208284031215611ddd57600080fd5b813567ffffffffffffffff811115611df457600080fd5b611e0084828501611dab565b949350505050565b600080600080600060a08688031215611e2057600080fd5b853567ffffffffffffffff80821115611e3857600080fd5b611e4489838a01611dab565b96506020915081880135955060408801359450606088013581811115611e6957600080fd5b611e758a828b01611dab565b945050608088013581811115611e8a57600080fd5b8801601f81018a13611e9b57600080fd5b803582811115611ead57611ead611b46565b8060051b9250611ebe848401611b5c565b818152928201840192848101908c851115611ed857600080fd5b928501925b84841015611f025783359250611ef283611c40565b8282529285019290850190611edd565b8096505050505050509295509295909350565b60008060008060608587031215611f2b57600080fd5b8435611f3681611c40565b935060208501359250604085013567ffffffffffffffff80821115611f5a57600080fd5b818701915087601f830112611f6e57600080fd5b813581811115611f7d57600080fd5b886020828501011115611f8f57600080fd5b95989497505060200194505050565b60208152600061187c6020830184611c99565b608081526000611fc46080830187611c99565b6001600160a01b03959095166020830152506040810192909252606090910152919050565b60a081526000611ffc60a0830188611c99565b6001600160a01b0396871660208401526040830195909552506060810192909252909216608090920191909152919050565b6000806040838503121561204157600080fd5b50508035926020909101359150565b600181811c9082168061206457607f821691505b60208210810361208457634e487b7160e01b600052602260045260246000fd5b50919050565b60208082526022908201527f4f6e6c7920746865206f776e65722063616e2077697468647261772066756e64604082015261399760f11b606082015260800190565b601f8211156108ec57600081815260208120601f850160051c810160208610156120f35750805b601f850160051c820191505b81811015612112578281556001016120ff565b505050505050565b815167ffffffffffffffff81111561213457612134611b46565b612148816121428454612050565b846120cc565b602080601f83116001811461217d57600084156121655750858301515b600019600386901b1c1916600185901b178555612112565b600085815260208120601f198616915b828110156121ac5788860151825594840194600190910190840161218d565b50858210156121ca5787850151600019600388901b60f8161c191681555b5050505050600190811b01905550565b6000602082840312156121ec57600080fd5b815161187c81611c40565b634e487b7160e01b600052601160045260246000fd5b60006001820161221f5761221f6121f7565b5060010190565b60006020828403121561223857600080fd5b5051919050565b60a08152600061225260a0830188611c99565b6020878185015286604085015283820360608501526122718287611c99565b8481036080860152855180825282870193509082019060005b818110156122af5784516001600160a01b03168352938301939183019160010161228a565b50909a9950505050505050505050565b818103818111156106a8576106a86121f7565b634e487b7160e01b600052603260045260246000fd5b8381526060602082015260006123016060830185611c99565b905060018060a01b0383166040830152949350505050565b60008060006060848603121561232e57600080fd5b83519250602084015161234081611c40565b80925050604084015190509250925092565b8183823760009101908152919050565b808201808211156106a8576106a86121f7565b634e487b7160e01b600052602160045260246000fd5b828152604060208201526000611e006040830184611c99565b600082516123b6818460208701611c75565b919091019291505056fea2646970667358221220b889ad3ba323b6c7c32c8400246a71043afc211b3de903055116e7ded204d06b64736f6c63430008130033",
  "devdoc": {
    "kind": "dev",
    "methods": {
      "isValidSignature(bytes32,bytes)": {
        "details": "Should return whether the signature provided is valid for the provided data",
        "params": {
          "hash": "Hash of the data to be signed",
          "signature": "Signature byte array associated with _data"
        }
      },
      "supportsInterface(bytes4)": {
        "details": "Returns true if this contract implements the interface defined by `interfaceId`. See the corresponding https://eips.ethereum.org/EIPS/eip-165#how-interfaces-are-identified[EIP section] to learn more about how these ids are created. This function call must use less than 30 000 gas."
      }
    },
    "version": 1
  },
  "userdoc": {
    "kind": "user",
    "methods": {},
    "version": 1
  },
  "storageLayout": {
    "storage": [
      {
        "astId": 39190,
        "contract": "contracts/BunyERC6551Account.sol:BunyERC6551Account",
        "label": "_nonce",
        "offset": 0,
        "slot": "0",
        "type": "t_uint256"
      },
      {
        "astId": 39193,
        "contract": "contracts/BunyERC6551Account.sol:BunyERC6551Account",
        "label": "accountName",
        "offset": 0,
        "slot": "1",
        "type": "t_string_storage"
      },
      {
        "astId": 39196,
        "contract": "contracts/BunyERC6551Account.sol:BunyERC6551Account",
        "label": "depositCount",
        "offset": 0,
        "slot": "2",
        "type": "t_uint256"
      },
      {
        "astId": 39201,
        "contract": "contracts/BunyERC6551Account.sol:BunyERC6551Account",
        "label": "deposits",
        "offset": 0,
        "slot": "3",
        "type": "t_mapping(t_uint256,t_struct(Deposit)39338_storage)"
      },
      {
        "astId": 39205,
        "contract": "contracts/BunyERC6551Account.sol:BunyERC6551Account",
        "label": "tokenBalances",
        "offset": 0,
        "slot": "4",
        "type": "t_mapping(t_address,t_uint256)"
      },
      {
        "astId": 39211,
        "contract": "contracts/BunyERC6551Account.sol:BunyERC6551Account",
        "label": "userPrivateEvents",
        "offset": 0,
        "slot": "5",
        "type": "t_mapping(t_address,t_array(t_struct(PrivateCalendarEvent)39309_storage)dyn_storage)"
      },
      {
        "astId": 39217,
        "contract": "contracts/BunyERC6551Account.sol:BunyERC6551Account",
        "label": "userEvents",
        "offset": 0,
        "slot": "6",
        "type": "t_mapping(t_address,t_array(t_struct(CalendarEvent)39329_storage)dyn_storage)"
      },
      {
        "astId": 39219,
        "contract": "contracts/BunyERC6551Account.sol:BunyERC6551Account",
        "label": "calendarAddress",
        "offset": 0,
        "slot": "7",
        "type": "t_address"
      },
      {
        "astId": 39224,
        "contract": "contracts/BunyERC6551Account.sol:BunyERC6551Account",
        "label": "eventInvitations",
        "offset": 0,
        "slot": "8",
        "type": "t_mapping(t_uint256,t_array(t_address)dyn_storage)"
      },
      {
        "astId": 39227,
        "contract": "contracts/BunyERC6551Account.sol:BunyERC6551Account",
        "label": "users",
        "offset": 0,
        "slot": "9",
        "type": "t_array(t_address)dyn_storage"
      },
      {
        "astId": 39230,
        "contract": "contracts/BunyERC6551Account.sol:BunyERC6551Account",
        "label": "eventCreators",
        "offset": 0,
        "slot": "10",
        "type": "t_array(t_address)dyn_storage"
      },
      {
        "astId": 39232,
        "contract": "contracts/BunyERC6551Account.sol:BunyERC6551Account",
        "label": "totalEvents",
        "offset": 0,
        "slot": "11",
        "type": "t_uint256"
      },
      {
        "astId": 39236,
        "contract": "contracts/BunyERC6551Account.sol:BunyERC6551Account",
        "label": "eventCount",
        "offset": 0,
        "slot": "12",
        "type": "t_mapping(t_address,t_uint256)"
      },
      {
        "astId": 39241,
        "contract": "contracts/BunyERC6551Account.sol:BunyERC6551Account",
        "label": "nftDeposits",
        "offset": 0,
        "slot": "13",
        "type": "t_mapping(t_uint256,t_struct(NFTDeposit)39318_storage)"
      },
      {
        "astId": 39244,
        "contract": "contracts/BunyERC6551Account.sol:BunyERC6551Account",
        "label": "nftDepositCount",
        "offset": 0,
        "slot": "14",
        "type": "t_uint256"
      }
    ],
    "types": {
      "t_address": {
        "encoding": "inplace",
        "label": "address",
        "numberOfBytes": "20"
      },
      "t_array(t_address)dyn_storage": {
        "base": "t_address",
        "encoding": "dynamic_array",
        "label": "address[]",
        "numberOfBytes": "32"
      },
      "t_array(t_struct(CalendarEvent)39329_storage)dyn_storage": {
        "base": "t_struct(CalendarEvent)39329_storage",
        "encoding": "dynamic_array",
        "label": "struct BunyERC6551Account.CalendarEvent[]",
        "numberOfBytes": "32"
      },
      "t_array(t_struct(PrivateCalendarEvent)39309_storage)dyn_storage": {
        "base": "t_struct(PrivateCalendarEvent)39309_storage",
        "encoding": "dynamic_array",
        "label": "struct BunyERC6551Account.PrivateCalendarEvent[]",
        "numberOfBytes": "32"
      },
      "t_mapping(t_address,t_array(t_struct(CalendarEvent)39329_storage)dyn_storage)": {
        "encoding": "mapping",
        "key": "t_address",
        "label": "mapping(address => struct BunyERC6551Account.CalendarEvent[])",
        "numberOfBytes": "32",
        "value": "t_array(t_struct(CalendarEvent)39329_storage)dyn_storage"
      },
      "t_mapping(t_address,t_array(t_struct(PrivateCalendarEvent)39309_storage)dyn_storage)": {
        "encoding": "mapping",
        "key": "t_address",
        "label": "mapping(address => struct BunyERC6551Account.PrivateCalendarEvent[])",
        "numberOfBytes": "32",
        "value": "t_array(t_struct(PrivateCalendarEvent)39309_storage)dyn_storage"
      },
      "t_mapping(t_address,t_uint256)": {
        "encoding": "mapping",
        "key": "t_address",
        "label": "mapping(address => uint256)",
        "numberOfBytes": "32",
        "value": "t_uint256"
      },
      "t_mapping(t_uint256,t_array(t_address)dyn_storage)": {
        "encoding": "mapping",
        "key": "t_uint256",
        "label": "mapping(uint256 => address[])",
        "numberOfBytes": "32",
        "value": "t_array(t_address)dyn_storage"
      },
      "t_mapping(t_uint256,t_struct(Deposit)39338_storage)": {
        "encoding": "mapping",
        "key": "t_uint256",
        "label": "mapping(uint256 => struct BunyERC6551Account.Deposit)",
        "numberOfBytes": "32",
        "value": "t_struct(Deposit)39338_storage"
      },
      "t_mapping(t_uint256,t_struct(NFTDeposit)39318_storage)": {
        "encoding": "mapping",
        "key": "t_uint256",
        "label": "mapping(uint256 => struct BunyERC6551Account.NFTDeposit)",
        "numberOfBytes": "32",
        "value": "t_struct(NFTDeposit)39318_storage"
      },
      "t_string_storage": {
        "encoding": "bytes",
        "label": "string",
        "numberOfBytes": "32"
      },
      "t_struct(CalendarEvent)39329_storage": {
        "encoding": "inplace",
        "label": "struct BunyERC6551Account.CalendarEvent",
        "members": [
          {
            "astId": 39320,
            "contract": "contracts/BunyERC6551Account.sol:BunyERC6551Account",
            "label": "title",
            "offset": 0,
            "slot": "0",
            "type": "t_string_storage"
          },
          {
            "astId": 39322,
            "contract": "contracts/BunyERC6551Account.sol:BunyERC6551Account",
            "label": "attendee",
            "offset": 0,
            "slot": "1",
            "type": "t_address"
          },
          {
            "astId": 39324,
            "contract": "contracts/BunyERC6551Account.sol:BunyERC6551Account",
            "label": "startTime",
            "offset": 0,
            "slot": "2",
            "type": "t_uint256"
          },
          {
            "astId": 39326,
            "contract": "contracts/BunyERC6551Account.sol:BunyERC6551Account",
            "label": "endTime",
            "offset": 0,
            "slot": "3",
            "type": "t_uint256"
          },
          {
            "astId": 39328,
            "contract": "contracts/BunyERC6551Account.sol:BunyERC6551Account",
            "label": "calendar",
            "offset": 0,
            "slot": "4",
            "type": "t_address"
          }
        ],
        "numberOfBytes": "160"
      },
      "t_struct(Deposit)39338_storage": {
        "encoding": "inplace",
        "label": "struct BunyERC6551Account.Deposit",
        "members": [
          {
            "astId": 39331,
            "contract": "contracts/BunyERC6551Account.sol:BunyERC6551Account",
            "label": "depositor",
            "offset": 0,
            "slot": "0",
            "type": "t_address"
          },
          {
            "astId": 39333,
            "contract": "contracts/BunyERC6551Account.sol:BunyERC6551Account",
            "label": "tokenAddress",
            "offset": 0,
            "slot": "1",
            "type": "t_address"
          },
          {
            "astId": 39335,
            "contract": "contracts/BunyERC6551Account.sol:BunyERC6551Account",
            "label": "amount",
            "offset": 0,
            "slot": "2",
            "type": "t_uint256"
          },
          {
            "astId": 39337,
            "contract": "contracts/BunyERC6551Account.sol:BunyERC6551Account",
            "label": "timestamp",
            "offset": 0,
            "slot": "3",
            "type": "t_uint256"
          }
        ],
        "numberOfBytes": "128"
      },
      "t_struct(NFTDeposit)39318_storage": {
        "encoding": "inplace",
        "label": "struct BunyERC6551Account.NFTDeposit",
        "members": [
          {
            "astId": 39311,
            "contract": "contracts/BunyERC6551Account.sol:BunyERC6551Account",
            "label": "depositor",
            "offset": 0,
            "slot": "0",
            "type": "t_address"
          },
          {
            "astId": 39313,
            "contract": "contracts/BunyERC6551Account.sol:BunyERC6551Account",
            "label": "nftContractAddress",
            "offset": 0,
            "slot": "1",
            "type": "t_address"
          },
          {
            "astId": 39315,
            "contract": "contracts/BunyERC6551Account.sol:BunyERC6551Account",
            "label": "tokenId",
            "offset": 0,
            "slot": "2",
            "type": "t_uint256"
          },
          {
            "astId": 39317,
            "contract": "contracts/BunyERC6551Account.sol:BunyERC6551Account",
            "label": "timestamp",
            "offset": 0,
            "slot": "3",
            "type": "t_uint256"
          }
        ],
        "numberOfBytes": "128"
      },
      "t_struct(PrivateCalendarEvent)39309_storage": {
        "encoding": "inplace",
        "label": "struct BunyERC6551Account.PrivateCalendarEvent",
        "members": [
          {
            "astId": 39302,
            "contract": "contracts/BunyERC6551Account.sol:BunyERC6551Account",
            "label": "title",
            "offset": 0,
            "slot": "0",
            "type": "t_string_storage"
          },
          {
            "astId": 39304,
            "contract": "contracts/BunyERC6551Account.sol:BunyERC6551Account",
            "label": "attendee",
            "offset": 0,
            "slot": "1",
            "type": "t_address"
          },
          {
            "astId": 39306,
            "contract": "contracts/BunyERC6551Account.sol:BunyERC6551Account",
            "label": "startTime",
            "offset": 0,
            "slot": "2",
            "type": "t_uint256"
          },
          {
            "astId": 39308,
            "contract": "contracts/BunyERC6551Account.sol:BunyERC6551Account",
            "label": "endTime",
            "offset": 0,
            "slot": "3",
            "type": "t_uint256"
          }
        ],
        "numberOfBytes": "128"
      },
      "t_uint256": {
        "encoding": "inplace",
        "label": "uint256",
        "numberOfBytes": "32"
      }
    }
  }
}