{
  "_format": "hh-sol-artifact-1",
  "contractName": "CalendarDailyTelos",
  "sourceName": "contracts/CalendarDailyTelos.sol",
  "address": "0x5B640a5E947c41c439e2141537387DA9e58716F0",
  "abi": [
    {
      "inputs": [
        {
          "internalType": "string",
          "name": "_calendarName",
          "type": "string"
        },
        {
          "internalType": "address",
          "name": "_calendarAdmin",
          "type": "address"
        }
      ],
      "stateMutability": "nonpayable",
      "type": "constructor"
    },
    {
      "anonymous": false,
      "inputs": [
        {
          "indexed": true,
          "internalType": "uint256",
          "name": "eventID",
          "type": "uint256"
        },
        {
          "indexed": false,
          "internalType": "string",
          "name": "title",
          "type": "string"
        },
        {
          "indexed": true,
          "internalType": "address",
          "name": "organizer",
          "type": "address"
        },
        {
          "indexed": false,
          "internalType": "uint256",
          "name": "startTime",
          "type": "uint256"
        },
        {
          "indexed": false,
          "internalType": "uint256",
          "name": "endTime",
          "type": "uint256"
        },
        {
          "indexed": false,
          "internalType": "string",
          "name": "metadataURI",
          "type": "string"
        },
        {
          "indexed": false,
          "internalType": "uint256",
          "name": "timestamp",
          "type": "uint256"
        },
        {
          "indexed": false,
          "internalType": "bytes32",
          "name": "role",
          "type": "bytes32"
        }
      ],
      "name": "NewEventCreated",
      "type": "event"
    },
    {
      "anonymous": false,
      "inputs": [
        {
          "indexed": true,
          "internalType": "bytes32",
          "name": "role",
          "type": "bytes32"
        },
        {
          "indexed": true,
          "internalType": "bytes32",
          "name": "previousAdminRole",
          "type": "bytes32"
        },
        {
          "indexed": true,
          "internalType": "bytes32",
          "name": "newAdminRole",
          "type": "bytes32"
        }
      ],
      "name": "RoleAdminChanged",
      "type": "event"
    },
    {
      "anonymous": false,
      "inputs": [
        {
          "indexed": true,
          "internalType": "bytes32",
          "name": "role",
          "type": "bytes32"
        },
        {
          "indexed": true,
          "internalType": "address",
          "name": "account",
          "type": "address"
        },
        {
          "indexed": true,
          "internalType": "address",
          "name": "sender",
          "type": "address"
        }
      ],
      "name": "RoleGranted",
      "type": "event"
    },
    {
      "anonymous": false,
      "inputs": [
        {
          "indexed": true,
          "internalType": "bytes32",
          "name": "role",
          "type": "bytes32"
        },
        {
          "indexed": true,
          "internalType": "address",
          "name": "account",
          "type": "address"
        },
        {
          "indexed": true,
          "internalType": "address",
          "name": "sender",
          "type": "address"
        }
      ],
      "name": "RoleRevoked",
      "type": "event"
    },
    {
      "anonymous": false,
      "inputs": [
        {
          "indexed": true,
          "internalType": "uint256",
          "name": "eventID",
          "type": "uint256"
        },
        {
          "indexed": false,
          "internalType": "string",
          "name": "title",
          "type": "string"
        },
        {
          "indexed": false,
          "internalType": "address",
          "name": "invitedUser",
          "type": "address"
        }
      ],
      "name": "UserInvited",
      "type": "event"
    },
    {
      "inputs": [],
      "name": "ADMIN_ROLE",
      "outputs": [
        {
          "internalType": "bytes32",
          "name": "",
          "type": "bytes32"
        }
      ],
      "stateMutability": "view",
      "type": "function"
    },
    {
      "inputs": [],
      "name": "DEFAULT_ADMIN_ROLE",
      "outputs": [
        {
          "internalType": "bytes32",
          "name": "",
          "type": "bytes32"
        }
      ],
      "stateMutability": "view",
      "type": "function"
    },
    {
      "inputs": [],
      "name": "GUEST_ROLE",
      "outputs": [
        {
          "internalType": "bytes32",
          "name": "",
          "type": "bytes32"
        }
      ],
      "stateMutability": "view",
      "type": "function"
    },
    {
      "inputs": [],
      "name": "MEMBER_ROLE",
      "outputs": [
        {
          "internalType": "bytes32",
          "name": "",
          "type": "bytes32"
        }
      ],
      "stateMutability": "view",
      "type": "function"
    },
    {
      "inputs": [
        {
          "internalType": "uint256",
          "name": "eventID",
          "type": "uint256"
        }
      ],
      "name": "acceptInvitation",
      "outputs": [],
      "stateMutability": "nonpayable",
      "type": "function"
    },
    {
      "inputs": [
        {
          "internalType": "address[]",
          "name": "adminAddresses",
          "type": "address[]"
        }
      ],
      "name": "addAdmins",
      "outputs": [],
      "stateMutability": "nonpayable",
      "type": "function"
    },
    {
      "inputs": [
        {
          "internalType": "address",
          "name": "guestAddress",
          "type": "address"
        }
      ],
      "name": "addGuest",
      "outputs": [],
      "stateMutability": "nonpayable",
      "type": "function"
    },
    {
      "inputs": [
        {
          "internalType": "address",
          "name": "memberAddress",
          "type": "address"
        }
      ],
      "name": "addMember",
      "outputs": [],
      "stateMutability": "nonpayable",
      "type": "function"
    },
    {
      "inputs": [
        {
          "internalType": "address[]",
          "name": "memberAddresses",
          "type": "address[]"
        }
      ],
      "name": "addMembers",
      "outputs": [],
      "stateMutability": "nonpayable",
      "type": "function"
    },
    {
      "inputs": [],
      "name": "adminCount",
      "outputs": [
        {
          "internalType": "uint256",
          "name": "",
          "type": "uint256"
        }
      ],
      "stateMutability": "view",
      "type": "function"
    },
    {
      "inputs": [
        {
          "internalType": "address",
          "name": "",
          "type": "address"
        },
        {
          "internalType": "uint256",
          "name": "",
          "type": "uint256"
        }
      ],
      "name": "adminEvents",
      "outputs": [
        {
          "internalType": "uint256",
          "name": "eventId",
          "type": "uint256"
        },
        {
          "internalType": "string",
          "name": "title",
          "type": "string"
        },
        {
          "internalType": "address",
          "name": "organizer",
          "type": "address"
        },
        {
          "internalType": "uint256",
          "name": "startTime",
          "type": "uint256"
        },
        {
          "internalType": "uint256",
          "name": "endTime",
          "type": "uint256"
        },
        {
          "internalType": "uint256",
          "name": "created",
          "type": "uint256"
        },
        {
          "internalType": "string",
          "name": "metadataURI",
          "type": "string"
        }
      ],
      "stateMutability": "view",
      "type": "function"
    },
    {
      "inputs": [
        {
          "internalType": "address",
          "name": "",
          "type": "address"
        }
      ],
      "name": "admins",
      "outputs": [
        {
          "internalType": "address",
          "name": "addr",
          "type": "address"
        }
      ],
      "stateMutability": "view",
      "type": "function"
    },
    {
      "inputs": [],
      "name": "calendarAdmin",
      "outputs": [
        {
          "internalType": "address",
          "name": "",
          "type": "address"
        }
      ],
      "stateMutability": "view",
      "type": "function"
    },
    {
      "inputs": [],
      "name": "calendarName",
      "outputs": [
        {
          "internalType": "string",
          "name": "",
          "type": "string"
        }
      ],
      "stateMutability": "view",
      "type": "function"
    },
    {
      "inputs": [
        {
          "internalType": "string",
          "name": "title",
          "type": "string"
        },
        {
          "internalType": "uint256",
          "name": "startTime",
          "type": "uint256"
        },
        {
          "internalType": "uint256",
          "name": "endTime",
          "type": "uint256"
        },
        {
          "internalType": "string",
          "name": "metadataURI",
          "type": "string"
        },
        {
          "internalType": "address[]",
          "name": "invitees",
          "type": "address[]"
        }
      ],
      "name": "createEvent",
      "outputs": [],
      "stateMutability": "nonpayable",
      "type": "function"
    },
    {
      "inputs": [
        {
          "internalType": "uint256",
          "name": "eventID",
          "type": "uint256"
        }
      ],
      "name": "deleteEvent",
      "outputs": [],
      "stateMutability": "nonpayable",
      "type": "function"
    },
    {
      "inputs": [
        {
          "internalType": "address",
          "name": "",
          "type": "address"
        }
      ],
      "name": "eventCount",
      "outputs": [
        {
          "internalType": "uint256",
          "name": "",
          "type": "uint256"
        }
      ],
      "stateMutability": "view",
      "type": "function"
    },
    {
      "inputs": [
        {
          "internalType": "uint256",
          "name": "",
          "type": "uint256"
        }
      ],
      "name": "eventCreators",
      "outputs": [
        {
          "internalType": "address",
          "name": "",
          "type": "address"
        }
      ],
      "stateMutability": "view",
      "type": "function"
    },
    {
      "inputs": [
        {
          "internalType": "uint256",
          "name": "",
          "type": "uint256"
        },
        {
          "internalType": "uint256",
          "name": "",
          "type": "uint256"
        }
      ],
      "name": "eventInvitations",
      "outputs": [
        {
          "internalType": "address",
          "name": "",
          "type": "address"
        }
      ],
      "stateMutability": "view",
      "type": "function"
    },
    {
      "inputs": [
        {
          "internalType": "uint256",
          "name": "",
          "type": "uint256"
        }
      ],
      "name": "eventsById",
      "outputs": [
        {
          "internalType": "uint256",
          "name": "eventId",
          "type": "uint256"
        },
        {
          "internalType": "string",
          "name": "title",
          "type": "string"
        },
        {
          "internalType": "address",
          "name": "organizer",
          "type": "address"
        },
        {
          "internalType": "uint256",
          "name": "startTime",
          "type": "uint256"
        },
        {
          "internalType": "uint256",
          "name": "endTime",
          "type": "uint256"
        },
        {
          "internalType": "uint256",
          "name": "created",
          "type": "uint256"
        },
        {
          "internalType": "string",
          "name": "metadataURI",
          "type": "string"
        }
      ],
      "stateMutability": "view",
      "type": "function"
    },
    {
      "inputs": [
        {
          "internalType": "address",
          "name": "adminAddress",
          "type": "address"
        }
      ],
      "name": "getAdminEvents",
      "outputs": [
        {
          "components": [
            {
              "internalType": "uint256",
              "name": "eventId",
              "type": "uint256"
            },
            {
              "internalType": "string",
              "name": "title",
              "type": "string"
            },
            {
              "internalType": "address",
              "name": "organizer",
              "type": "address"
            },
            {
              "internalType": "uint256",
              "name": "startTime",
              "type": "uint256"
            },
            {
              "internalType": "uint256",
              "name": "endTime",
              "type": "uint256"
            },
            {
              "internalType": "uint256",
              "name": "created",
              "type": "uint256"
            },
            {
              "internalType": "string",
              "name": "metadataURI",
              "type": "string"
            },
            {
              "internalType": "address[]",
              "name": "invitedAttendees",
              "type": "address[]"
            },
            {
              "internalType": "address[]",
              "name": "confirmedAttendees",
              "type": "address[]"
            }
          ],
          "internalType": "struct CalendarDailyTelos.CalendarEvent[]",
          "name": "",
          "type": "tuple[]"
        }
      ],
      "stateMutability": "view",
      "type": "function"
    },
    {
      "inputs": [],
      "name": "getAllAddresses",
      "outputs": [
        {
          "internalType": "address[]",
          "name": "",
          "type": "address[]"
        },
        {
          "internalType": "address[]",
          "name": "",
          "type": "address[]"
        },
        {
          "internalType": "address[]",
          "name": "",
          "type": "address[]"
        }
      ],
      "stateMutability": "view",
      "type": "function"
    },
    {
      "inputs": [],
      "name": "getAllAdminEvents",
      "outputs": [
        {
          "components": [
            {
              "internalType": "uint256",
              "name": "eventId",
              "type": "uint256"
            },
            {
              "internalType": "string",
              "name": "title",
              "type": "string"
            },
            {
              "internalType": "address",
              "name": "organizer",
              "type": "address"
            },
            {
              "internalType": "uint256",
              "name": "startTime",
              "type": "uint256"
            },
            {
              "internalType": "uint256",
              "name": "endTime",
              "type": "uint256"
            },
            {
              "internalType": "uint256",
              "name": "created",
              "type": "uint256"
            },
            {
              "internalType": "string",
              "name": "metadataURI",
              "type": "string"
            },
            {
              "internalType": "address[]",
              "name": "invitedAttendees",
              "type": "address[]"
            },
            {
              "internalType": "address[]",
              "name": "confirmedAttendees",
              "type": "address[]"
            }
          ],
          "internalType": "struct CalendarDailyTelos.CalendarEvent[]",
          "name": "",
          "type": "tuple[]"
        }
      ],
      "stateMutability": "view",
      "type": "function"
    },
    {
      "inputs": [],
      "name": "getAllEvents",
      "outputs": [
        {
          "components": [
            {
              "internalType": "uint256",
              "name": "eventId",
              "type": "uint256"
            },
            {
              "internalType": "string",
              "name": "title",
              "type": "string"
            },
            {
              "internalType": "address",
              "name": "organizer",
              "type": "address"
            },
            {
              "internalType": "uint256",
              "name": "startTime",
              "type": "uint256"
            },
            {
              "internalType": "uint256",
              "name": "endTime",
              "type": "uint256"
            },
            {
              "internalType": "uint256",
              "name": "created",
              "type": "uint256"
            },
            {
              "internalType": "string",
              "name": "metadataURI",
              "type": "string"
            },
            {
              "internalType": "address[]",
              "name": "invitedAttendees",
              "type": "address[]"
            },
            {
              "internalType": "address[]",
              "name": "confirmedAttendees",
              "type": "address[]"
            }
          ],
          "internalType": "struct CalendarDailyTelos.CalendarEvent[]",
          "name": "",
          "type": "tuple[]"
        }
      ],
      "stateMutability": "view",
      "type": "function"
    },
    {
      "inputs": [],
      "name": "getAllGuestAddresses",
      "outputs": [
        {
          "internalType": "address[]",
          "name": "",
          "type": "address[]"
        }
      ],
      "stateMutability": "view",
      "type": "function"
    },
    {
      "inputs": [],
      "name": "getAllGuestEvents",
      "outputs": [
        {
          "components": [
            {
              "internalType": "uint256",
              "name": "eventId",
              "type": "uint256"
            },
            {
              "internalType": "string",
              "name": "title",
              "type": "string"
            },
            {
              "internalType": "address",
              "name": "organizer",
              "type": "address"
            },
            {
              "internalType": "uint256",
              "name": "startTime",
              "type": "uint256"
            },
            {
              "internalType": "uint256",
              "name": "endTime",
              "type": "uint256"
            },
            {
              "internalType": "uint256",
              "name": "created",
              "type": "uint256"
            },
            {
              "internalType": "string",
              "name": "metadataURI",
              "type": "string"
            },
            {
              "internalType": "address[]",
              "name": "invitedAttendees",
              "type": "address[]"
            },
            {
              "internalType": "address[]",
              "name": "confirmedAttendees",
              "type": "address[]"
            }
          ],
          "internalType": "struct CalendarDailyTelos.CalendarEvent[]",
          "name": "",
          "type": "tuple[]"
        }
      ],
      "stateMutability": "view",
      "type": "function"
    },
    {
      "inputs": [],
      "name": "getAllMemberAddresses",
      "outputs": [
        {
          "internalType": "address[]",
          "name": "",
          "type": "address[]"
        }
      ],
      "stateMutability": "view",
      "type": "function"
    },
    {
      "inputs": [],
      "name": "getAllMemberEvents",
      "outputs": [
        {
          "components": [
            {
              "internalType": "uint256",
              "name": "eventId",
              "type": "uint256"
            },
            {
              "internalType": "string",
              "name": "title",
              "type": "string"
            },
            {
              "internalType": "address",
              "name": "organizer",
              "type": "address"
            },
            {
              "internalType": "uint256",
              "name": "startTime",
              "type": "uint256"
            },
            {
              "internalType": "uint256",
              "name": "endTime",
              "type": "uint256"
            },
            {
              "internalType": "uint256",
              "name": "created",
              "type": "uint256"
            },
            {
              "internalType": "string",
              "name": "metadataURI",
              "type": "string"
            },
            {
              "internalType": "address[]",
              "name": "invitedAttendees",
              "type": "address[]"
            },
            {
              "internalType": "address[]",
              "name": "confirmedAttendees",
              "type": "address[]"
            }
          ],
          "internalType": "struct CalendarDailyTelos.CalendarEvent[]",
          "name": "",
          "type": "tuple[]"
        }
      ],
      "stateMutability": "view",
      "type": "function"
    },
    {
      "inputs": [
        {
          "internalType": "uint256",
          "name": "eventId",
          "type": "uint256"
        }
      ],
      "name": "getEventById",
      "outputs": [
        {
          "components": [
            {
              "internalType": "uint256",
              "name": "eventId",
              "type": "uint256"
            },
            {
              "internalType": "string",
              "name": "title",
              "type": "string"
            },
            {
              "internalType": "address",
              "name": "organizer",
              "type": "address"
            },
            {
              "internalType": "uint256",
              "name": "startTime",
              "type": "uint256"
            },
            {
              "internalType": "uint256",
              "name": "endTime",
              "type": "uint256"
            },
            {
              "internalType": "uint256",
              "name": "created",
              "type": "uint256"
            },
            {
              "internalType": "string",
              "name": "metadataURI",
              "type": "string"
            },
            {
              "internalType": "address[]",
              "name": "invitedAttendees",
              "type": "address[]"
            },
            {
              "internalType": "address[]",
              "name": "confirmedAttendees",
              "type": "address[]"
            }
          ],
          "internalType": "struct CalendarDailyTelos.CalendarEvent",
          "name": "",
          "type": "tuple"
        }
      ],
      "stateMutability": "view",
      "type": "function"
    },
    {
      "inputs": [
        {
          "internalType": "address",
          "name": "guestAddress",
          "type": "address"
        }
      ],
      "name": "getGuestEvents",
      "outputs": [
        {
          "components": [
            {
              "internalType": "uint256",
              "name": "eventId",
              "type": "uint256"
            },
            {
              "internalType": "string",
              "name": "title",
              "type": "string"
            },
            {
              "internalType": "address",
              "name": "organizer",
              "type": "address"
            },
            {
              "internalType": "uint256",
              "name": "startTime",
              "type": "uint256"
            },
            {
              "internalType": "uint256",
              "name": "endTime",
              "type": "uint256"
            },
            {
              "internalType": "uint256",
              "name": "created",
              "type": "uint256"
            },
            {
              "internalType": "string",
              "name": "metadataURI",
              "type": "string"
            },
            {
              "internalType": "address[]",
              "name": "invitedAttendees",
              "type": "address[]"
            },
            {
              "internalType": "address[]",
              "name": "confirmedAttendees",
              "type": "address[]"
            }
          ],
          "internalType": "struct CalendarDailyTelos.CalendarEvent[]",
          "name": "",
          "type": "tuple[]"
        }
      ],
      "stateMutability": "view",
      "type": "function"
    },
    {
      "inputs": [
        {
          "internalType": "address",
          "name": "userAddress",
          "type": "address"
        }
      ],
      "name": "getInvitations",
      "outputs": [
        {
          "internalType": "uint256[]",
          "name": "",
          "type": "uint256[]"
        }
      ],
      "stateMutability": "view",
      "type": "function"
    },
    {
      "inputs": [
        {
          "internalType": "address",
          "name": "memberAddress",
          "type": "address"
        }
      ],
      "name": "getMemberEvents",
      "outputs": [
        {
          "components": [
            {
              "internalType": "uint256",
              "name": "eventId",
              "type": "uint256"
            },
            {
              "internalType": "string",
              "name": "title",
              "type": "string"
            },
            {
              "internalType": "address",
              "name": "organizer",
              "type": "address"
            },
            {
              "internalType": "uint256",
              "name": "startTime",
              "type": "uint256"
            },
            {
              "internalType": "uint256",
              "name": "endTime",
              "type": "uint256"
            },
            {
              "internalType": "uint256",
              "name": "created",
              "type": "uint256"
            },
            {
              "internalType": "string",
              "name": "metadataURI",
              "type": "string"
            },
            {
              "internalType": "address[]",
              "name": "invitedAttendees",
              "type": "address[]"
            },
            {
              "internalType": "address[]",
              "name": "confirmedAttendees",
              "type": "address[]"
            }
          ],
          "internalType": "struct CalendarDailyTelos.CalendarEvent[]",
          "name": "",
          "type": "tuple[]"
        }
      ],
      "stateMutability": "view",
      "type": "function"
    },
    {
      "inputs": [
        {
          "internalType": "bytes32",
          "name": "role",
          "type": "bytes32"
        }
      ],
      "name": "getRoleAdmin",
      "outputs": [
        {
          "internalType": "bytes32",
          "name": "",
          "type": "bytes32"
        }
      ],
      "stateMutability": "view",
      "type": "function"
    },
    {
      "inputs": [
        {
          "internalType": "bytes32",
          "name": "role",
          "type": "bytes32"
        },
        {
          "internalType": "address",
          "name": "account",
          "type": "address"
        }
      ],
      "name": "grantRole",
      "outputs": [],
      "stateMutability": "nonpayable",
      "type": "function"
    },
    {
      "inputs": [],
      "name": "guestCount",
      "outputs": [
        {
          "internalType": "uint256",
          "name": "",
          "type": "uint256"
        }
      ],
      "stateMutability": "view",
      "type": "function"
    },
    {
      "inputs": [
        {
          "internalType": "address",
          "name": "",
          "type": "address"
        },
        {
          "internalType": "uint256",
          "name": "",
          "type": "uint256"
        }
      ],
      "name": "guestEvents",
      "outputs": [
        {
          "internalType": "uint256",
          "name": "eventId",
          "type": "uint256"
        },
        {
          "internalType": "string",
          "name": "title",
          "type": "string"
        },
        {
          "internalType": "address",
          "name": "organizer",
          "type": "address"
        },
        {
          "internalType": "uint256",
          "name": "startTime",
          "type": "uint256"
        },
        {
          "internalType": "uint256",
          "name": "endTime",
          "type": "uint256"
        },
        {
          "internalType": "uint256",
          "name": "created",
          "type": "uint256"
        },
        {
          "internalType": "string",
          "name": "metadataURI",
          "type": "string"
        }
      ],
      "stateMutability": "view",
      "type": "function"
    },
    {
      "inputs": [
        {
          "internalType": "address",
          "name": "",
          "type": "address"
        }
      ],
      "name": "guests",
      "outputs": [
        {
          "internalType": "address",
          "name": "addr",
          "type": "address"
        }
      ],
      "stateMutability": "view",
      "type": "function"
    },
    {
      "inputs": [
        {
          "internalType": "bytes32",
          "name": "role",
          "type": "bytes32"
        },
        {
          "internalType": "address",
          "name": "account",
          "type": "address"
        }
      ],
      "name": "hasRole",
      "outputs": [
        {
          "internalType": "bool",
          "name": "",
          "type": "bool"
        }
      ],
      "stateMutability": "view",
      "type": "function"
    },
    {
      "inputs": [],
      "name": "memberCount",
      "outputs": [
        {
          "internalType": "uint256",
          "name": "",
          "type": "uint256"
        }
      ],
      "stateMutability": "view",
      "type": "function"
    },
    {
      "inputs": [
        {
          "internalType": "address",
          "name": "",
          "type": "address"
        },
        {
          "internalType": "uint256",
          "name": "",
          "type": "uint256"
        }
      ],
      "name": "memberEvents",
      "outputs": [
        {
          "internalType": "uint256",
          "name": "eventId",
          "type": "uint256"
        },
        {
          "internalType": "string",
          "name": "title",
          "type": "string"
        },
        {
          "internalType": "address",
          "name": "organizer",
          "type": "address"
        },
        {
          "internalType": "uint256",
          "name": "startTime",
          "type": "uint256"
        },
        {
          "internalType": "uint256",
          "name": "endTime",
          "type": "uint256"
        },
        {
          "internalType": "uint256",
          "name": "created",
          "type": "uint256"
        },
        {
          "internalType": "string",
          "name": "metadataURI",
          "type": "string"
        }
      ],
      "stateMutability": "view",
      "type": "function"
    },
    {
      "inputs": [
        {
          "internalType": "address",
          "name": "",
          "type": "address"
        }
      ],
      "name": "members",
      "outputs": [
        {
          "internalType": "address",
          "name": "addr",
          "type": "address"
        }
      ],
      "stateMutability": "view",
      "type": "function"
    },
    {
      "inputs": [
        {
          "internalType": "address",
          "name": "memberAddress",
          "type": "address"
        }
      ],
      "name": "removeMember",
      "outputs": [],
      "stateMutability": "nonpayable",
      "type": "function"
    },
    {
      "inputs": [
        {
          "internalType": "bytes32",
          "name": "role",
          "type": "bytes32"
        },
        {
          "internalType": "address",
          "name": "account",
          "type": "address"
        }
      ],
      "name": "renounceRole",
      "outputs": [],
      "stateMutability": "nonpayable",
      "type": "function"
    },
    {
      "inputs": [
        {
          "internalType": "bytes32",
          "name": "role",
          "type": "bytes32"
        },
        {
          "internalType": "address",
          "name": "account",
          "type": "address"
        }
      ],
      "name": "revokeRole",
      "outputs": [],
      "stateMutability": "nonpayable",
      "type": "function"
    },
    {
      "inputs": [
        {
          "internalType": "bytes4",
          "name": "interfaceId",
          "type": "bytes4"
        }
      ],
      "name": "supportsInterface",
      "outputs": [
        {
          "internalType": "bool",
          "name": "",
          "type": "bool"
        }
      ],
      "stateMutability": "view",
      "type": "function"
    },
    {
      "inputs": [],
      "name": "totalEvents",
      "outputs": [
        {
          "internalType": "uint256",
          "name": "",
          "type": "uint256"
        }
      ],
      "stateMutability": "view",
      "type": "function"
    },
    {
      "inputs": [
        {
          "internalType": "uint256",
          "name": "eventID",
          "type": "uint256"
        },
        {
          "internalType": "string",
          "name": "title",
          "type": "string"
        },
        {
          "internalType": "uint256",
          "name": "startTime",
          "type": "uint256"
        },
        {
          "internalType": "uint256",
          "name": "endTime",
          "type": "uint256"
        },
        {
          "internalType": "string",
          "name": "metadataURI",
          "type": "string"
        }
      ],
      "name": "updateEvent",
      "outputs": [],
      "stateMutability": "nonpayable",
      "type": "function"
    },
    {
      "inputs": [
        {
          "internalType": "address",
          "name": "",
          "type": "address"
        },
        {
          "internalType": "uint256",
          "name": "",
          "type": "uint256"
        }
      ],
      "name": "userEvents",
      "outputs": [
        {
          "internalType": "uint256",
          "name": "eventId",
          "type": "uint256"
        },
        {
          "internalType": "string",
          "name": "title",
          "type": "string"
        },
        {
          "internalType": "address",
          "name": "organizer",
          "type": "address"
        },
        {
          "internalType": "uint256",
          "name": "startTime",
          "type": "uint256"
        },
        {
          "internalType": "uint256",
          "name": "endTime",
          "type": "uint256"
        },
        {
          "internalType": "uint256",
          "name": "created",
          "type": "uint256"
        },
        {
          "internalType": "string",
          "name": "metadataURI",
          "type": "string"
        }
      ],
      "stateMutability": "view",
      "type": "function"
    },
    {
      "inputs": [
        {
          "internalType": "address",
          "name": "",
          "type": "address"
        }
      ],
      "name": "userInvitations",
      "outputs": [
        {
          "internalType": "address",
          "name": "userAddress",
          "type": "address"
        }
      ],
      "stateMutability": "view",
      "type": "function"
    },
    {
      "inputs": [
        {
          "internalType": "uint256",
          "name": "",
          "type": "uint256"
        }
      ],
      "name": "users",
      "outputs": [
        {
          "internalType": "address",
          "name": "",
          "type": "address"
        }
      ],
      "stateMutability": "view",
      "type": "function"
    }
  ],
  "bytecode": "0x60806040523480156200001157600080fd5b506040516200583f3803806200583f8339810160408190526200003491620001c5565b60016200004283826200033c565b50600280546001600160a01b0383166001600160a01b03199182168117909255600380549091169091179055620000896000805160206200581f83398151915282620000e2565b620000b57f829b824e2329e205435d941c9f13baf578548505283d29261236d8e6596d463682620000e2565b620000d06000805160206200581f83398151915230620000e2565b50506001600855600060095562000408565b620000ee8282620000f2565b5050565b6000828152602081815260408083206001600160a01b038516845290915290205460ff16620000ee576000828152602081815260408083206001600160a01b03851684529091529020805460ff191660011790556200014e3390565b6001600160a01b0316816001600160a01b0316837f2f8788117e7eff1d82e926ec794901d17c78024a50270940304540a733656f0d60405160405180910390a45050565b634e487b7160e01b600052604160045260246000fd5b80516001600160a01b0381168114620001c057600080fd5b919050565b60008060408385031215620001d957600080fd5b82516001600160401b0380821115620001f157600080fd5b818501915085601f8301126200020657600080fd5b8151818111156200021b576200021b62000192565b604051601f8201601f19908116603f0116810190838211818310171562000246576200024662000192565b816040528281526020935088848487010111156200026357600080fd5b600091505b8282101562000287578482018401518183018501529083019062000268565b6000848483010152809650505050620002a2818601620001a8565b925050509250929050565b600181811c90821680620002c257607f821691505b602082108103620002e357634e487b7160e01b600052602260045260246000fd5b50919050565b601f8211156200033757600081815260208120601f850160051c81016020861015620003125750805b601f850160051c820191505b8181101562000333578281556001016200031e565b5050505b505050565b81516001600160401b0381111562000358576200035862000192565b6200037081620003698454620002ad565b84620002e9565b602080601f831160018114620003a857600084156200038f5750858301515b600019600386901b1c1916600185901b17855562000333565b600085815260208120601f198616915b82811015620003d957888601518255948401946001909101908401620003b8565b5085821015620003f85787850151600019600388901b60f8161c191681555b5050505050600190811b01905550565b61540780620004186000396000f3fe608060405234801561001057600080fd5b50600436106102d65760003560e01c806377ef09a011610182578063ba870686116100e9578063d5dd1b50116100a2578063ef7e1f681161007c578063ef7e1f68146106ca578063f71f67f4146106dd578063f8749a58146106e5578063fc3d2e46146106f857600080fd5b8063d5dd1b5014610684578063d98b88fa14610697578063ef44b478146106b757600080fd5b8063ba87068614610632578063bdfc98931461063b578063c1ce869b1461064e578063c27a500d14610656578063ca6d56dc1461065e578063d547741f1461067157600080fd5b806395fa6c501161013b57806395fa6c50146105c75780639c54df64146105da578063a0cb1333146105ed578063a10f469e146105f5578063a217fddf1461060a578063b98079bc1461061257600080fd5b806377ef09a01461055957806378b2250f1461056c5780637dfbfb43146105755780638c5f24081461058857806391d148541461059d5780639516a104146105b057600080fd5b806336568abe116102415780635c7e8863116101fa5780636d7524ee116101d45780636d7524ee1461050b5780636dc4c2af1461051e5780636f4d469b1461053157806375b238fc1461054457600080fd5b80635c7e8863146104db5780635e0e2804146104f057806369ca75fc1461050357600080fd5b806336568abe14610446578063365b98b214610459578063429b62e51461046c578063455f20dc14610495578063464c5b6c146104b55780635136f358146104c857600080fd5b806311aee3801161029357806311aee380146103c8578063248a9ca3146103df578063286482f9146104025780632b7832b3146104155780632f2ff15d1461041e5780632fd1949d1461043157600080fd5b806301ffc9a7146102db57806308ae4b0c146103035780630b1ca49a146103445780630eda85ee146103595780630f5c4a2b14610382578063110cd100146103a8575b600080fd5b6102ee6102e93660046149ff565b610721565b60405190151581526020015b60405180910390f35b61032c610311366004614a40565b600c602052600090815260409020546001600160a01b031681565b6040516001600160a01b0390911681526020016102fa565b610357610352366004614a40565b610758565b005b61032c610367366004614a40565b600b602052600090815260409020546001600160a01b031681565b610395610390366004614a5b565b6107fb565b6040516102fa9796959493929190614ad5565b6103bb6103b6366004614a40565b610979565b6040516102fa9190614c28565b6103d160085481565b6040519081526020016102fa565b6103d16103ed366004614c8a565b60009081526020819052604090206001015490565b6103bb610410366004614a40565b610c48565b6103d160075481565b61035761042c366004614ca3565b610f34565b610439611064565b6040516102fa9190614ccf565b610357610454366004614ca3565b611183565b61032c610467366004614c8a565b6111fd565b61032c61047a366004614a40565b600d602052600090815260409020546001600160a01b031681565b6103d16104a3366004614a40565b60136020526000908152604090205481565b6103576104c3366004614c8a565b611227565b6103576104d6366004614a40565b6113d6565b6103d160008051602061537283398151915281565b6103956104fe366004614a5b565b611521565b61043961153d565b610395610519366004614c8a565b61169a565b61035761052c366004614d97565b6116bc565b61035761053f366004614e9d565b611937565b6103d160008051602061539283398151915281565b60025461032c906001600160a01b031681565b6103d160095481565b610357610583366004614ed9565b611ba1565b6105906121a4565b6040516102fa9190614f67565b6102ee6105ab366004614ca3565b612232565b6105b861225b565b6040516102fa93929190614f7a565b61032c6105d5366004614c8a565b6125ee565b6103576105e8366004614e9d565b6125fe565b6103bb612868565b6103d16000805160206153b283398151915281565b6103d1600081565b610625610620366004614c8a565b612d4c565b6040516102fa9190614fb3565b6103d160065481565b610395610649366004614a5b565b61314c565b6103bb613168565b6103bb613641565b61035761066c366004614a40565b613816565b61035761067f366004614ca3565b6139ef565b610395610692366004614a5b565b613afc565b6106aa6106a5366004614a40565b613b18565b6040516102fa9190614fc6565b6103bb6106c5366004614a40565b613b8a565b61032c6106d8366004614ffe565b613e75565b6103bb613ead565b6103576106f3366004614c8a565b614386565b61032c610706366004614a40565b600a602052600090815260409020546001600160a01b031681565b60006001600160e01b03198216637965db0b60e01b148061075257506301ffc9a760e01b6001600160e01b03198316145b92915050565b61077060008051602061539283398151915233612232565b6107955760405162461bcd60e51b815260040161078c90615020565b60405180910390fd5b6107ad6000805160206153b2833981519152826139ef565b6001600160a01b0381166000908152600c6020526040812080546001600160a01b0319168155906107e160018301826148a1565b5050600880549060006107f383615066565b919050555050565b6012602052816000526040600020818154811061081757600080fd5b9060005260206000209060090201600091509150508060000154908060010180546108419061507d565b80601f016020809104026020016040519081016040528092919081815260200182805461086d9061507d565b80156108ba5780601f1061088f576101008083540402835291602001916108ba565b820191906000526020600020905b81548152906001019060200180831161089d57829003601f168201915b505050600284015460038501546004860154600587015460068801805497986001600160a01b039095169793965091945092916108f69061507d565b80601f01602080910402602001604051908101604052809291908181526020018280546109229061507d565b801561096f5780601f106109445761010080835404028352916020019161096f565b820191906000526020600020905b81548152906001019060200180831161095257829003601f168201915b5050505050905087565b606061099360008051602061539283398151915233612232565b6109af5760405162461bcd60e51b815260040161078c90615020565b6001600160a01b038216600090815260116020908152604080832080548251818502810185019093528083529193909284015b82821015610c3c57838290600052602060002090600902016040518061012001604052908160008201548152602001600182018054610a209061507d565b80601f0160208091040260200160405190810160405280929190818152602001828054610a4c9061507d565b8015610a995780601f10610a6e57610100808354040283529160200191610a99565b820191906000526020600020905b815481529060010190602001808311610a7c57829003601f168201915b505050918352505060028201546001600160a01b0316602082015260038201546040820152600482015460608201526005820154608082015260068201805460a090920191610ae79061507d565b80601f0160208091040260200160405190810160405280929190818152602001828054610b139061507d565b8015610b605780601f10610b3557610100808354040283529160200191610b60565b820191906000526020600020905b815481529060010190602001808311610b4357829003601f168201915b5050505050815260200160078201805480602002602001604051908101604052809291908181526020018280548015610bc257602002820191906000526020600020905b81546001600160a01b03168152600190910190602001808311610ba4575b5050505050815260200160088201805480602002602001604051908101604052809291908181526020018280548015610c2457602002820191906000526020600020905b81546001600160a01b03168152600190910190602001808311610c06575b505050505081525050815260200190600101906109e2565b5050505090505b919050565b6060610c626000805160206153b283398151915233612232565b610ca75760405162461bcd60e51b815260206004820152601660248201527521b0b63632b91034b9903737ba10309036b2b6b132b960511b604482015260640161078c565b6001600160a01b038216600090815260126020908152604080832080548251818502810185019093528083529193909284015b82821015610c3c57838290600052602060002090600902016040518061012001604052908160008201548152602001600182018054610d189061507d565b80601f0160208091040260200160405190810160405280929190818152602001828054610d449061507d565b8015610d915780601f10610d6657610100808354040283529160200191610d91565b820191906000526020600020905b815481529060010190602001808311610d7457829003601f168201915b505050918352505060028201546001600160a01b0316602082015260038201546040820152600482015460608201526005820154608082015260068201805460a090920191610ddf9061507d565b80601f0160208091040260200160405190810160405280929190818152602001828054610e0b9061507d565b8015610e585780601f10610e2d57610100808354040283529160200191610e58565b820191906000526020600020905b815481529060010190602001808311610e3b57829003601f168201915b5050505050815260200160078201805480602002602001604051908101604052809291908181526020018280548015610eba57602002820191906000526020600020905b81546001600160a01b03168152600190910190602001808311610e9c575b5050505050815260200160088201805480602002602001604051908101604052809291908181526020018280548015610f1c57602002820191906000526020600020905b81546001600160a01b03168152600190910190602001808311610efe575b50505050508152505081526020019060010190610cda565b610f4c60008051602061539283398151915233612232565b610f685760405162461bcd60e51b815260040161078c90615020565b610f8060008051602061539283398151915233612232565b610f9c5760405162461bcd60e51b815260040161078c90615020565b610fa68282614548565b6000805160206153b2833981519152820361103b576040805180820182526001600160a01b038381168083528351600080825260208083018752808601928352928152600c835294909420835181546001600160a01b0319169316929092178255925180519293919261101f92600185019201906148bf565b50506008805491506000611032836150b7565b91905055505050565b60008051602061537283398151915282036110605760098054906000611032836150b7565b5050565b606060006008546001600160401b0381111561108257611082614ce2565b6040519080825280602002602001820160405280156110ab578160200160208202803683370190505b5090506000805b60045481101561117b576110fb6000805160206153b2833981519152600483815481106110e1576110e16150d0565b6000918252602090912001546001600160a01b0316612232565b156111695760048181548110611113576111136150d0565b9060005260206000200160009054906101000a90046001600160a01b0316838381518110611143576111436150d0565b6001600160a01b039092166020928302919091019091015281611165816150b7565b9250505b80611173816150b7565b9150506110b2565b509092915050565b6001600160a01b03811633146111f35760405162461bcd60e51b815260206004820152602f60248201527f416363657373436f6e74726f6c3a2063616e206f6e6c792072656e6f756e636560448201526e103937b632b9903337b91039b2b63360891b606482015260840161078c565b6110608282614572565b6004818154811061120d57600080fd5b6000918252602090912001546001600160a01b0316905081565b61123f6000805160206153b283398151915233612232565b8061125d575061125d60008051602061539283398151915233612232565b6112bf5760405162461bcd60e51b815260206004820152602d60248201527f4f6e6c79206d656d62657273206f722061646d696e732063616e20616363657060448201526c7420696e7669746174696f6e7360981b606482015260840161078c565b60006112ca33613b18565b90506000805b825181101561131457838382815181106112ec576112ec6150d0565b6020026020010151036113025760019150611314565b8061130c816150b7565b9150506112d0565b508061136c5760405162461bcd60e51b815260206004820152602160248201527f596f7520617265206e6f7420696e766974656420746f2074686973206576656e6044820152601d60fa1b606482015260840161078c565b6000838152600e6020908152604080832060088101805460018101825590855292842090920180546001600160a01b0319163390811790915590519192909186917f3d7c4cad0e306b726e83345c42fc0d920259e72cdf2dc9b1a8f98d246540363491a350505050565b6113ee600080516020615372833981519152826145d7565b6040805180820182526001600160a01b038381168083528351600080825260208083018752808601928352928152600b835294909420835181546001600160a01b0319169316929092178255925180519293919261145292600185019201906148bf565b50506009805491506000611465836150b7565b91905055506000805b6004548110156114ca57826001600160a01b031660048281548110611495576114956150d0565b6000918252602090912001546001600160a01b0316036114b857600191506114ca565b806114c2816150b7565b91505061146e565b508061106057600480546001810182556000919091527f8a35acfbc15ff81a39ae7d344fd709f28e8600b4aa8c65c6b64bfe7fe36bd19b0180546001600160a01b0384166001600160a01b03199091161790555050565b6010602052816000526040600020818154811061081757600080fd5b60606000805b60045481101561159757611572600080516020615372833981519152600483815481106110e1576110e16150d0565b156115855781611581816150b7565b9250505b8061158f816150b7565b915050611543565b506000816001600160401b038111156115b2576115b2614ce2565b6040519080825280602002602001820160405280156115db578160200160208202803683370190505b5090506000805b60045481101561169157611611600080516020615372833981519152600483815481106110e1576110e16150d0565b1561167f5760048181548110611629576116296150d0565b9060005260206000200160009054906101000a90046001600160a01b0316838381518110611659576116596150d0565b6001600160a01b03909216602092830291909101909101528161167b816150b7565b9250505b80611689816150b7565b9150506115e2565b50909392505050565b600e60205260009081526040902080546001820180549192916108419061507d565b6116d460008051602061537283398151915233612232565b806116f257506116f26000805160206153b283398151915233612232565b80611710575061171060008051602061539283398151915233612232565b61176a5760405162461bcd60e51b815260206004820152602560248201527f43616c6c6572206973206e6f74206120757365722c206d656d626572206f722060448201526430b236b4b760d91b606482015260840161078c565b61178260008051602061537283398151915233612232565b1561181b57336000908152600f602052604090205485106117b55760405162461bcd60e51b815260040161078c906150e6565b336000908152600f602052604081208054879081106117d6576117d66150d0565b90600052602060002090600902019050848160010190816117f7919061515e565b50600381018490556004810183905560068101611814838261515e565b50506118e6565b6118336000805160206153b283398151915233612232565b80611851575061185160008051602061539283398151915233612232565b156118e6573360009081526012602052604090205485106118845760405162461bcd60e51b815260040161078c906150e6565b3360009081526012602052604081208054879081106118a5576118a56150d0565b90600052602060002090600902019050848160010190816118c6919061515e565b506003810184905560048101839055600681016118e3838261515e565b50505b336001600160a01b0316857f71bbeb2ea5afee5184d7de266ec09583703adc8d55ab5e5d5ef0f004d383ea9a868686864260405161192895949392919061521d565b60405180910390a35050505050565b61194f60008051602061539283398151915233612232565b61196b5760405162461bcd60e51b815260040161078c90615020565b60005b815181101561106057600082828151811061198b5761198b6150d0565b602002602001015190506119ad6000805160206153b2833981519152826145d7565b6040805180820182526001600160a01b038381168083528351600080825260208083018752808601928352928152600c835294909420835181546001600160a01b03191693169290921782559251805192939192611a1192600185019201906148bf565b50506008805491506000611a24836150b7565b9190505550611a4160008051602061537283398151915282612232565b611ada57611a5d600080516020615372833981519152826145d7565b6040805180820182526001600160a01b038381168083528351600080825260208083018752808601928352928152600b835294909420835181546001600160a01b03191693169290921782559251805192939192611ac192600185019201906148bf565b50506009805491506000611ad4836150b7565b91905055505b6000805b600454811015611b3a57826001600160a01b031660048281548110611b0557611b056150d0565b6000918252602090912001546001600160a01b031603611b285760019150611b3a565b80611b32816150b7565b915050611ade565b5080611b8c57600480546001810182556000919091527f8a35acfbc15ff81a39ae7d344fd709f28e8600b4aa8c65c6b64bfe7fe36bd19b0180546001600160a01b0319166001600160a01b0384161790555b50508080611b99906150b7565b91505061196e565b611bb96000805160206153b283398151915233612232565b158015611bdb5750611bd960008051602061539283398151915233612232565b155b8015611bfc5750611bfa60008051602061537283398151915233612232565b155b15611c2057611c0a336113d6565b60098054906000611c1a836150b7565b91905055505b611c2861490a565b600654611c36906001615261565b81526020810186905260608101859052608081018490523360408201524260a082015260c0810183905260e081018290526000604051908082528060200260200182016040528015611c92578160200160208202803683370190505b50610100820152611cb16000805160206153b283398151915233612232565b80611ccf5750611ccf60008051602061539283398151915233612232565b15611dd757336000908152601260209081526040822080546001818101835591845292829020845160099094020192835590830151839291820190611d14908261515e565b5060408201516002820180546001600160a01b0319166001600160a01b03909216919091179055606082015160038201556080820151600482015560a0820151600582015560c08201516006820190611d6d908261515e565b5060e08201518051611d8991600784019160209091019061495f565b506101008201518051611da691600884019160209091019061495f565b5050336000908152600c60209081526040822084516001918201805492830181558452919092209091015550611fab565b336000908152600f60209081526040822080546001818101835591845292829020845160099094020192835590830151839291820190611e17908261515e565b5060408201516002820180546001600160a01b0319166001600160a01b03909216919091179055606082015160038201556080820151600482015560a0820151600582015560c08201516006820190611e70908261515e565b5060e08201518051611e8c91600784019160209091019061495f565b506101008201518051611ea991600884019160209091019061495f565b505033600090815260106020908152604082208054600181810183559184529282902085516009909402019283559084015184935090820190611eec908261515e565b5060408201516002820180546001600160a01b0319166001600160a01b03909216919091179055606082015160038201556080820151600482015560a0820151600582015560c08201516006820190611f45908261515e565b5060e08201518051611f6191600784019160209091019061495f565b506101008201518051611f7e91600884019160209091019061495f565b5050336000908152600b602090815260408220845160019182018054928301815584529190922090910155505b805160068054906000611fbd836150b7565b90915550506005805460018101825560009182527f036b6384b5eca791c62761152d0c79bb0604c104a5fb6f4eb0703f3154bb3db00180546001600160a01b031916331790555b83518110156120de576000848281518110612021576120216150d0565b60209081029190910181015160008581526014835260408082208054600180820183559184528584200180546001600160a01b0386166001600160a01b03199182168117909255818552600a875292842080549093161782559081018054918201815582529290209091018490559050827fd48873c66feece7bbf3cbcd8d14102600b7da47eac54823e0441effd7da44c5e8a836040516120c3929190615274565b60405180910390a250806120d6816150b7565b915050612004565b506000805160206153b283398151915261210660008051602061539283398151915233612232565b15612120575060008051602061539283398151915261214e565b61213860008051602061537283398151915233612232565b1561214e57506000805160206153728339815191525b336001600160a01b0316827fb0cd684d8e2468fcd73b7ad59b2b57f99cc49f0a2f66ea314ecc7da59c83b8378a8a8a8a42886040516121929695949392919061529e565b60405180910390a35050505050505050565b600180546121b19061507d565b80601f01602080910402602001604051908101604052809291908181526020018280546121dd9061507d565b801561222a5780601f106121ff5761010080835404028352916020019161222a565b820191906000526020600020905b81548152906001019060200180831161220d57829003601f168201915b505050505081565b6000918252602082815260408084206001600160a01b0393909316845291905290205460ff1690565b60608060606000806000805b60045481101561232b57612296600080516020615392833981519152600483815481106110e1576110e16150d0565b156122a957836122a5816150b7565b9450505b6122ce6000805160206153b2833981519152600483815481106110e1576110e16150d0565b156122e157826122dd816150b7565b9350505b612306600080516020615372833981519152600483815481106110e1576110e16150d0565b156123195781612315816150b7565b9250505b80612323816150b7565b915050612267565b506000836001600160401b0381111561234657612346614ce2565b60405190808252806020026020018201604052801561236f578160200160208202803683370190505b5090506000836001600160401b0381111561238c5761238c614ce2565b6040519080825280602002602001820160405280156123b5578160200160208202803683370190505b5090506000836001600160401b038111156123d2576123d2614ce2565b6040519080825280602002602001820160405280156123fb578160200160208202803683370190505b5090506000806000805b6004548110156125da57612434600080516020615392833981519152600483815481106110e1576110e16150d0565b156124a2576004818154811061244c5761244c6150d0565b9060005260206000200160009054906101000a90046001600160a01b031687858151811061247c5761247c6150d0565b6001600160a01b03909216602092830291909101909101528361249e816150b7565b9450505b6124c76000805160206153b2833981519152600483815481106110e1576110e16150d0565b1561253557600481815481106124df576124df6150d0565b9060005260206000200160009054906101000a90046001600160a01b031686848151811061250f5761250f6150d0565b6001600160a01b039092166020928302919091019091015282612531816150b7565b9350505b61255a600080516020615372833981519152600483815481106110e1576110e16150d0565b156125c85760048181548110612572576125726150d0565b9060005260206000200160009054906101000a90046001600160a01b03168583815181106125a2576125a26150d0565b6001600160a01b0390921660209283029190910190910152816125c4816150b7565b9250505b806125d2816150b7565b915050612405565b50949b939a50919850919650505050505050565b6005818154811061120d57600080fd5b61261660008051602061539283398151915233612232565b6126325760405162461bcd60e51b815260040161078c90615020565b60005b8151811015611060576000828281518110612652576126526150d0565b60200260200101519050612674600080516020615392833981519152826145d7565b6040805180820182526001600160a01b038381168083528351600080825260208083018752808601928352928152600d835294909420835181546001600160a01b031916931692909217825592518051929391926126d892600185019201906148bf565b505060078054915060006126eb836150b7565b91905055506127086000805160206153b283398151915282612232565b6127a1576127246000805160206153b2833981519152826145d7565b6040805180820182526001600160a01b038381168083528351600080825260208083018752808601928352928152600c835294909420835181546001600160a01b0319169316929092178255925180519293919261278892600185019201906148bf565b5050600880549150600061279b836150b7565b91905055505b6000805b60045481101561280157826001600160a01b0316600482815481106127cc576127cc6150d0565b6000918252602090912001546001600160a01b0316036127ef5760019150612801565b806127f9816150b7565b9150506127a5565b508061285357600480546001810182556000919091527f8a35acfbc15ff81a39ae7d344fd709f28e8600b4aa8c65c6b64bfe7fe36bd19b0180546001600160a01b0319166001600160a01b0384161790555b50508080612860906150b7565b915050612635565b60606000806004805490506001600160401b0381111561288a5761288a614ce2565b6040519080825280602002602001820160405280156128b3578160200160208202803683370190505b5090506000805b6004548110156129b1576128e9600080516020615372833981519152600483815481106110e1576110e16150d0565b1561299f5760048181548110612901576129016150d0565b9060005260206000200160009054906101000a90046001600160a01b0316838381518110612931576129316150d0565b6001600160a01b039092166020928302919091019091015281612953816150b7565b925050601060006004838154811061296d5761296d6150d0565b60009182526020808320909101546001600160a01b0316835282019290925260400190205461299c9085615261565b93505b806129a9816150b7565b9150506128ba565b506000836001600160401b038111156129cc576129cc614ce2565b604051908082528060200260200182016040528015612a0557816020015b6129f261490a565b8152602001906001900390816129ea5790505b5090506000805b83811015612d415760005b60106000878481518110612a2d57612a2d6150d0565b60200260200101516001600160a01b03166001600160a01b0316815260200190815260200160002080549050811015612d2e5760106000878481518110612a7657612a766150d0565b60200260200101516001600160a01b03166001600160a01b031681526020019081526020016000208181548110612aaf57612aaf6150d0565b90600052602060002090600902016040518061012001604052908160008201548152602001600182018054612ae39061507d565b80601f0160208091040260200160405190810160405280929190818152602001828054612b0f9061507d565b8015612b5c5780601f10612b3157610100808354040283529160200191612b5c565b820191906000526020600020905b815481529060010190602001808311612b3f57829003601f168201915b505050918352505060028201546001600160a01b0316602082015260038201546040820152600482015460608201526005820154608082015260068201805460a090920191612baa9061507d565b80601f0160208091040260200160405190810160405280929190818152602001828054612bd69061507d565b8015612c235780601f10612bf857610100808354040283529160200191612c23565b820191906000526020600020905b815481529060010190602001808311612c0657829003601f168201915b5050505050815260200160078201805480602002602001604051908101604052809291908181526020018280548015612c8557602002820191906000526020600020905b81546001600160a01b03168152600190910190602001808311612c67575b5050505050815260200160088201805480602002602001604051908101604052809291908181526020018280548015612ce757602002820191906000526020600020905b81546001600160a01b03168152600190910190602001808311612cc9575b505050505081525050848481518110612d0257612d026150d0565b60200260200101819052508280612d18906150b7565b9350508080612d26906150b7565b915050612a17565b5080612d39816150b7565b915050612a0c565b509095945050505050565b612d5461490a565b60005b600554811015613111576000612d886000805160206153b2833981519152600584815481106110e1576110e16150d0565b15612dcf576012600060058481548110612da457612da46150d0565b60009182526020808320909101546001600160a01b0316835282019290925260400190209050612e57565b612df4600080516020615372833981519152600584815481106110e1576110e16150d0565b15612e10576010600060058481548110612da457612da46150d0565b612e35600080516020615392833981519152600584815481106110e1576110e16150d0565b15612e51576011600060058481548110612da457612da46150d0565b506130ff565b60005b81548110156130fc5784828281548110612e7657612e766150d0565b906000526020600020906009020160000154036130ea57818181548110612e9f57612e9f6150d0565b90600052602060002090600902016040518061012001604052908160008201548152602001600182018054612ed39061507d565b80601f0160208091040260200160405190810160405280929190818152602001828054612eff9061507d565b8015612f4c5780601f10612f2157610100808354040283529160200191612f4c565b820191906000526020600020905b815481529060010190602001808311612f2f57829003601f168201915b505050918352505060028201546001600160a01b0316602082015260038201546040820152600482015460608201526005820154608082015260068201805460a090920191612f9a9061507d565b80601f0160208091040260200160405190810160405280929190818152602001828054612fc69061507d565b80156130135780601f10612fe857610100808354040283529160200191613013565b820191906000526020600020905b815481529060010190602001808311612ff657829003601f168201915b505050505081526020016007820180548060200260200160405190810160405280929190818152602001828054801561307557602002820191906000526020600020905b81546001600160a01b03168152600190910190602001808311613057575b50505050508152602001600882018054806020026020016040519081016040528092919081815260200182805480156130d757602002820191906000526020600020905b81546001600160a01b031681526001909101906020018083116130b9575b5050505050815250509350505050919050565b806130f4816150b7565b915050612e5a565b50505b80613109816150b7565b915050612d57565b5060405162461bcd60e51b815260206004820152600f60248201526e115d995b9d081b9bdd08199bdd5b99608a1b604482015260640161078c565b600f602052816000526040600020818154811061081757600080fd5b60606000806004805490506001600160401b0381111561318a5761318a614ce2565b6040519080825280602002602001820160405280156131b3578160200160208202803683370190505b5090506000805b6004548110156132b1576131e96000805160206153b2833981519152600483815481106110e1576110e16150d0565b1561329f5760048181548110613201576132016150d0565b9060005260206000200160009054906101000a90046001600160a01b0316838381518110613231576132316150d0565b6001600160a01b039092166020928302919091019091015281613253816150b7565b925050601260006004838154811061326d5761326d6150d0565b60009182526020808320909101546001600160a01b0316835282019290925260400190205461329c9085615261565b93505b806132a9816150b7565b9150506131ba565b506000836001600160401b038111156132cc576132cc614ce2565b60405190808252806020026020018201604052801561330557816020015b6132f261490a565b8152602001906001900390816132ea5790505b5090506000805b83811015612d415760005b6012600087848151811061332d5761332d6150d0565b60200260200101516001600160a01b03166001600160a01b031681526020019081526020016000208054905081101561362e5760126000878481518110613376576133766150d0565b60200260200101516001600160a01b03166001600160a01b0316815260200190815260200160002081815481106133af576133af6150d0565b906000526020600020906009020160405180610120016040529081600082015481526020016001820180546133e39061507d565b80601f016020809104026020016040519081016040528092919081815260200182805461340f9061507d565b801561345c5780601f106134315761010080835404028352916020019161345c565b820191906000526020600020905b81548152906001019060200180831161343f57829003601f168201915b505050918352505060028201546001600160a01b0316602082015260038201546040820152600482015460608201526005820154608082015260068201805460a0909201916134aa9061507d565b80601f01602080910402602001604051908101604052809291908181526020018280546134d69061507d565b80156135235780601f106134f857610100808354040283529160200191613523565b820191906000526020600020905b81548152906001019060200180831161350657829003601f168201915b505050505081526020016007820180548060200260200160405190810160405280929190818152602001828054801561358557602002820191906000526020600020905b81546001600160a01b03168152600190910190602001808311613567575b50505050508152602001600882018054806020026020016040519081016040528092919081815260200182805480156135e757602002820191906000526020600020905b81546001600160a01b031681526001909101906020018083116135c9575b505050505081525050848481518110613602576136026150d0565b60200260200101819052508280613618906150b7565b9350508080613626906150b7565b915050613317565b5080613639816150b7565b91505061330c565b6060600061364d613168565b90506000613659612868565b90506000613665613ead565b905060008151835185516136799190615261565b6136839190615261565b90506000816001600160401b0381111561369f5761369f614ce2565b6040519080825280602002602001820160405280156136d857816020015b6136c561490a565b8152602001906001900390816136bd5790505b5090506000805b8651811015613740578681815181106136fa576136fa6150d0565b6020026020010151838381518110613714576137146150d0565b6020026020010181905250818061372a906150b7565b9250508080613738906150b7565b9150506136df565b5060005b85518110156137a55785818151811061375f5761375f6150d0565b6020026020010151838381518110613779576137796150d0565b6020026020010181905250818061378f906150b7565b925050808061379d906150b7565b915050613744565b5060005b845181101561380a578481815181106137c4576137c46150d0565b60200260200101518383815181106137de576137de6150d0565b602002602001018190525081806137f4906150b7565b9250508080613802906150b7565b9150506137a9565b50909695505050505050565b61382e60008051602061539283398151915233612232565b61384a5760405162461bcd60e51b815260040161078c90615020565b6138626000805160206153b2833981519152826145d7565b6040805180820182526001600160a01b038381168083528351600080825260208083018752808601928352928152600c835294909420835181546001600160a01b031916931692909217825592518051929391926138c692600185019201906148bf565b505060088054915060006138d9836150b7565b91905055506138f660008051602061537283398151915282612232565b61398f57613912600080516020615372833981519152826145d7565b6040805180820182526001600160a01b038381168083528351600080825260208083018752808601928352928152600b835294909420835181546001600160a01b0319169316929092178255925180519293919261397692600185019201906148bf565b50506009805491506000613989836150b7565b91905055505b6000805b6004548110156114ca57826001600160a01b0316600482815481106139ba576139ba6150d0565b6000918252602090912001546001600160a01b0316036139dd57600191506114ca565b806139e7816150b7565b915050613993565b613a0760008051602061539283398151915233612232565b613a235760405162461bcd60e51b815260040161078c90615020565b613a3b60008051602061539283398151915233612232565b613a575760405162461bcd60e51b815260040161078c90615020565b613a6182826145e1565b613a7960008051602061539283398151915282612232565b158015613a995750613a996000805160206153b283398151915282612232565b1561106057613ab66000805160206153b2833981519152826139ef565b6001600160a01b0381166000908152600c6020526040812080546001600160a01b031916815590613aea60018301826148a1565b50506008805490600061103283615066565b6011602052816000526040600020818154811061081757600080fd5b6001600160a01b0381166000908152600a60209081526040918290206001810180548451818502810185019095528085526060949293830182828015613b7d57602002820191906000526020600020905b815481526020019060010190808311613b69575b5050505050915050919050565b6060613ba460008051602061537283398151915283612232565b613be85760405162461bcd60e51b815260206004820152601560248201527410d85b1b195c881a5cc81b9bdd08184819dd595cdd605a1b604482015260640161078c565b6001600160a01b038216600090815260106020908152604080832080548251818502810185019093528083529193909284015b82821015610c3c57838290600052602060002090600902016040518061012001604052908160008201548152602001600182018054613c599061507d565b80601f0160208091040260200160405190810160405280929190818152602001828054613c859061507d565b8015613cd25780601f10613ca757610100808354040283529160200191613cd2565b820191906000526020600020905b815481529060010190602001808311613cb557829003601f168201915b505050918352505060028201546001600160a01b0316602082015260038201546040820152600482015460608201526005820154608082015260068201805460a090920191613d209061507d565b80601f0160208091040260200160405190810160405280929190818152602001828054613d4c9061507d565b8015613d995780601f10613d6e57610100808354040283529160200191613d99565b820191906000526020600020905b815481529060010190602001808311613d7c57829003601f168201915b5050505050815260200160078201805480602002602001604051908101604052809291908181526020018280548015613dfb57602002820191906000526020600020905b81546001600160a01b03168152600190910190602001808311613ddd575b5050505050815260200160088201805480602002602001604051908101604052809291908181526020018280548015613e5d57602002820191906000526020600020905b81546001600160a01b03168152600190910190602001808311613e3f575b50505050508152505081526020019060010190613c1b565b60146020528160005260406000208181548110613e9157600080fd5b6000918252602090912001546001600160a01b03169150829050565b60606000806004805490506001600160401b03811115613ecf57613ecf614ce2565b604051908082528060200260200182016040528015613ef8578160200160208202803683370190505b5090506000805b600454811015613ff657613f2e600080516020615392833981519152600483815481106110e1576110e16150d0565b15613fe45760048181548110613f4657613f466150d0565b9060005260206000200160009054906101000a90046001600160a01b0316838381518110613f7657613f766150d0565b6001600160a01b039092166020928302919091019091015281613f98816150b7565b9250506011600060048381548110613fb257613fb26150d0565b60009182526020808320909101546001600160a01b03168352820192909252604001902054613fe19085615261565b93505b80613fee816150b7565b915050613eff565b506000836001600160401b0381111561401157614011614ce2565b60405190808252806020026020018201604052801561404a57816020015b61403761490a565b81526020019060019003908161402f5790505b5090506000805b83811015612d415760005b60116000878481518110614072576140726150d0565b60200260200101516001600160a01b03166001600160a01b031681526020019081526020016000208054905081101561437357601160008784815181106140bb576140bb6150d0565b60200260200101516001600160a01b03166001600160a01b0316815260200190815260200160002081815481106140f4576140f46150d0565b906000526020600020906009020160405180610120016040529081600082015481526020016001820180546141289061507d565b80601f01602080910402602001604051908101604052809291908181526020018280546141549061507d565b80156141a15780601f10614176576101008083540402835291602001916141a1565b820191906000526020600020905b81548152906001019060200180831161418457829003601f168201915b505050918352505060028201546001600160a01b0316602082015260038201546040820152600482015460608201526005820154608082015260068201805460a0909201916141ef9061507d565b80601f016020809104026020016040519081016040528092919081815260200182805461421b9061507d565b80156142685780601f1061423d57610100808354040283529160200191614268565b820191906000526020600020905b81548152906001019060200180831161424b57829003601f168201915b50505050508152602001600782018054806020026020016040519081016040528092919081815260200182805480156142ca57602002820191906000526020600020905b81546001600160a01b031681526001909101906020018083116142ac575b505050505081526020016008820180548060200260200160405190810160405280929190818152602001828054801561432c57602002820191906000526020600020905b81546001600160a01b0316815260019091019060200180831161430e575b505050505081525050848481518110614347576143476150d0565b6020026020010181905250828061435d906150b7565b935050808061436b906150b7565b91505061405c565b508061437e816150b7565b915050614051565b61439e60008051602061539283398151915233612232565b6143e25760405162461bcd60e51b815260206004820152601560248201527421b0b63632b91034b9903737ba10309030b236b4b760591b604482015260640161078c565b6143fa60008051602061539283398151915233612232565b156145455733600090815260126020526040902054811061442d5760405162461bcd60e51b815260040161078c906150e6565b3360009081526012602052604090208054819083908110614450576144506150d0565b600091825260209091206002600990920201015481546001600160a01b0390911690829084908110614484576144846150d0565b6000918252602082206009909102015460405190917f16db49e67c562ba0602f6e76a9641870ffe48f8931703dee31cf6d16713754cf91a38082815481106144ce576144ce6150d0565b600091825260208220600990910201818155906144ee60018301826149b4565b6002820180546001600160a01b031916905560006003830181905560048301819055600583018190556145259060068401906149b4565b6145336007830160006148a1565b6145416008830160006148a1565b5050505b50565b60008281526020819052604090206001015461456381614606565b61456d8383614610565b505050565b61457c8282612232565b15611060576000828152602081815260408083206001600160a01b0385168085529252808320805460ff1916905551339285917ff6391f5c32d9c69d2a47ea670b442974b53935d1edc7fd64eb21e047a839171b9190a45050565b6110608282614610565b6000828152602081905260409020600101546145fc81614606565b61456d8383614572565b6145458133614694565b61461a8282612232565b611060576000828152602081815260408083206001600160a01b03851684529091529020805460ff191660011790556146503390565b6001600160a01b0316816001600160a01b0316837f2f8788117e7eff1d82e926ec794901d17c78024a50270940304540a733656f0d60405160405180910390a45050565b61469e8282612232565b611060576146ab816146ed565b6146b68360206146ff565b6040516020016146c79291906152e5565b60408051601f198184030181529082905262461bcd60e51b825261078c91600401614f67565b60606107526001600160a01b03831660145b6060600061470e83600261535a565b614719906002615261565b6001600160401b0381111561473057614730614ce2565b6040519080825280601f01601f19166020018201604052801561475a576020820181803683370190505b509050600360fc1b81600081518110614775576147756150d0565b60200101906001600160f81b031916908160001a905350600f60fb1b816001815181106147a4576147a46150d0565b60200101906001600160f81b031916908160001a90535060006147c884600261535a565b6147d3906001615261565b90505b600181111561484b576f181899199a1a9b1b9c1cb0b131b232b360811b85600f1660108110614807576148076150d0565b1a60f81b82828151811061481d5761481d6150d0565b60200101906001600160f81b031916908160001a90535060049490941c9361484481615066565b90506147d6565b50831561489a5760405162461bcd60e51b815260206004820181905260248201527f537472696e67733a20686578206c656e67746820696e73756666696369656e74604482015260640161078c565b9392505050565b508054600082559060005260206000209081019061454591906149ea565b8280548282559060005260206000209081019282156148fa579160200282015b828111156148fa5782518255916020019190600101906148df565b506149069291506149ea565b5090565b604051806101200160405280600081526020016060815260200160006001600160a01b031681526020016000815260200160008152602001600081526020016060815260200160608152602001606081525090565b8280548282559060005260206000209081019282156148fa579160200282015b828111156148fa57825182546001600160a01b0319166001600160a01b0390911617825560209092019160019091019061497f565b5080546149c09061507d565b6000825580601f106149d0575050565b601f01602090049060005260206000209081019061454591905b5b8082111561490657600081556001016149eb565b600060208284031215614a1157600080fd5b81356001600160e01b03198116811461489a57600080fd5b80356001600160a01b0381168114610c4357600080fd5b600060208284031215614a5257600080fd5b61489a82614a29565b60008060408385031215614a6e57600080fd5b614a7783614a29565b946020939093013593505050565b60005b83811015614aa0578181015183820152602001614a88565b50506000910152565b60008151808452614ac1816020860160208601614a85565b601f01601f19169290920160200192915050565b87815260e060208201526000614aee60e0830189614aa9565b6001600160a01b0388166040840152606083018790526080830186905260a0830185905282810360c0840152614b248185614aa9565b9a9950505050505050505050565b600081518084526020808501945080840160005b83811015614b6b5781516001600160a01b031687529582019590820190600101614b46565b509495945050505050565b6000610120825184526020830151816020860152614b9682860182614aa9565b9150506040830151614bb360408601826001600160a01b03169052565b50606083015160608501526080830151608085015260a083015160a085015260c083015184820360c0860152614be98282614aa9565b91505060e083015184820360e0860152614c038282614b32565b9150506101008084015185830382870152614c1e8382614b32565b9695505050505050565b6000602080830181845280855180835260408601915060408160051b870101925083870160005b82811015614c7d57603f19888603018452614c6b858351614b76565b94509285019290850190600101614c4f565b5092979650505050505050565b600060208284031215614c9c57600080fd5b5035919050565b60008060408385031215614cb657600080fd5b82359150614cc660208401614a29565b90509250929050565b60208152600061489a6020830184614b32565b634e487b7160e01b600052604160045260246000fd5b604051601f8201601f191681016001600160401b0381118282101715614d2057614d20614ce2565b604052919050565b600082601f830112614d3957600080fd5b81356001600160401b03811115614d5257614d52614ce2565b614d65601f8201601f1916602001614cf8565b818152846020838601011115614d7a57600080fd5b816020850160208301376000918101602001919091529392505050565b600080600080600060a08688031215614daf57600080fd5b8535945060208601356001600160401b0380821115614dcd57600080fd5b614dd989838a01614d28565b955060408801359450606088013593506080880135915080821115614dfd57600080fd5b50614e0a88828901614d28565b9150509295509295909350565b600082601f830112614e2857600080fd5b813560206001600160401b03821115614e4357614e43614ce2565b8160051b614e52828201614cf8565b9283528481018201928281019087851115614e6c57600080fd5b83870192505b84831015614e9257614e8383614a29565b82529183019190830190614e72565b979650505050505050565b600060208284031215614eaf57600080fd5b81356001600160401b03811115614ec557600080fd5b614ed184828501614e17565b949350505050565b600080600080600060a08688031215614ef157600080fd5b85356001600160401b0380821115614f0857600080fd5b614f1489838a01614d28565b965060208801359550604088013594506060880135915080821115614f3857600080fd5b614f4489838a01614d28565b93506080880135915080821115614f5a57600080fd5b50614e0a88828901614e17565b60208152600061489a6020830184614aa9565b606081526000614f8d6060830186614b32565b8281036020840152614f9f8186614b32565b90508281036040840152614c1e8185614b32565b60208152600061489a6020830184614b76565b6020808252825182820181905260009190848201906040850190845b8181101561380a57835183529284019291840191600101614fe2565b6000806040838503121561501157600080fd5b50508035926020909101359150565b60208082526016908201527521b0b63632b91034b9903737ba1030b71030b236b4b760511b604082015260600190565b634e487b7160e01b600052601160045260246000fd5b60008161507557615075615050565b506000190190565b600181811c9082168061509157607f821691505b6020821081036150b157634e487b7160e01b600052602260045260246000fd5b50919050565b6000600182016150c9576150c9615050565b5060010190565b634e487b7160e01b600052603260045260246000fd5b60208082526010908201526f125b9d985b1a5908195d995b9d08125160821b604082015260600190565b601f82111561456d57600081815260208120601f850160051c810160208610156151375750805b601f850160051c820191505b8181101561515657828155600101615143565b505050505050565b81516001600160401b0381111561517757615177614ce2565b61518b81615185845461507d565b84615110565b602080601f8311600181146151c057600084156151a85750858301515b600019600386901b1c1916600185901b178555615156565b600085815260208120601f198616915b828110156151ef578886015182559484019460019091019084016151d0565b508582101561520d5787850151600019600388901b60f8161c191681555b5050505050600190811b01905550565b60a08152600061523060a0830188614aa9565b866020840152856040840152828103606084015261524e8186614aa9565b9150508260808301529695505050505050565b8082018082111561075257610752615050565b6040815260006152876040830185614aa9565b905060018060a01b03831660208301529392505050565b60c0815260006152b160c0830189614aa9565b87602084015286604084015282810360608401526152cf8187614aa9565b6080840195909552505060a00152949350505050565b7f416363657373436f6e74726f6c3a206163636f756e742000000000000000000081526000835161531d816017850160208801614a85565b7001034b99036b4b9b9b4b733903937b6329607d1b601791840191820152835161534e816028840160208801614a85565b01602801949350505050565b80820281158282048414176107525761075261505056feb6a185f76b0ff8a0f9708ffce8e6b63ce2df58f28ad66179fb4e230e98d0a52fa49807205ce4d355092ef5a8a18f56e8913cf4a201fbe287825b095693c21775829b824e2329e205435d941c9f13baf578548505283d29261236d8e6596d4636a2646970667358221220bbc078dabee34a9107289eaae4bb76a4f7a8c61998782e08930dcda0088217e264736f6c63430008130033a49807205ce4d355092ef5a8a18f56e8913cf4a201fbe287825b095693c21775",
  "linkReferences": {},
  "deployedLinkReferences": {}
}