{
  "address": "0xD6a47B326662EF14EfC104eFb21Ec50009de372C",
  "abi": [
    {
      "inputs": [
        {
          "internalType": "address",
          "name": "_implementation",
          "type": "address"
        },
        {
          "internalType": "address payable",
          "name": "organizerBank",
          "type": "address"
        }
      ],
      "stateMutability": "nonpayable",
      "type": "constructor"
    },
    {
      "anonymous": false,
      "inputs": [
        {
          "indexed": true,
          "internalType": "uint256",
          "name": "editionId",
          "type": "uint256"
        },
        {
          "indexed": true,
          "internalType": "address",
          "name": "creator",
          "type": "address"
        },
        {
          "indexed": false,
          "internalType": "uint256",
          "name": "editionSize",
          "type": "uint256"
        },
        {
          "indexed": true,
          "internalType": "address",
          "name": "editionContractAddress",
          "type": "address"
        },
        {
          "indexed": false,
          "internalType": "uint256",
          "name": "minPlayers",
          "type": "uint256"
        },
        {
          "indexed": false,
          "internalType": "uint256",
          "name": "maxTokens",
          "type": "uint256"
        },
        {
          "indexed": false,
          "internalType": "uint256",
          "name": "salePrice",
          "type": "uint256"
        }
      ],
      "name": "CreatedEdition",
      "type": "event"
    },
    {
      "anonymous": false,
      "inputs": [
        {
          "indexed": false,
          "internalType": "uint8",
          "name": "version",
          "type": "uint8"
        }
      ],
      "name": "Initialized",
      "type": "event"
    },
    {
      "anonymous": false,
      "inputs": [
        {
          "indexed": true,
          "internalType": "address",
          "name": "previousOwner",
          "type": "address"
        },
        {
          "indexed": true,
          "internalType": "address",
          "name": "newOwner",
          "type": "address"
        }
      ],
      "name": "OwnershipTransferred",
      "type": "event"
    },
    {
      "inputs": [],
      "name": "_organizerBank",
      "outputs": [
        {
          "internalType": "address payable",
          "name": "",
          "type": "address"
        }
      ],
      "stateMutability": "view",
      "type": "function"
    },
    {
      "inputs": [
        {
          "internalType": "uint256",
          "name": "",
          "type": "uint256"
        }
      ],
      "name": "collection",
      "outputs": [
        {
          "internalType": "string",
          "name": "_name",
          "type": "string"
        },
        {
          "internalType": "address",
          "name": "editionContractAddress",
          "type": "address"
        },
        {
          "internalType": "uint256",
          "name": "_editionSize",
          "type": "uint256"
        },
        {
          "internalType": "uint256",
          "name": "newId",
          "type": "uint256"
        },
        {
          "internalType": "uint256",
          "name": "_minPlayers",
          "type": "uint256"
        },
        {
          "internalType": "uint256",
          "name": "_maxTokens",
          "type": "uint256"
        },
        {
          "internalType": "uint256",
          "name": "_salePrice",
          "type": "uint256"
        },
        {
          "internalType": "string",
          "name": "_animationUrl",
          "type": "string"
        },
        {
          "internalType": "string",
          "name": "_imageUrl",
          "type": "string"
        }
      ],
      "stateMutability": "view",
      "type": "function"
    },
    {
      "inputs": [],
      "name": "collectionCount",
      "outputs": [
        {
          "internalType": "uint256",
          "name": "",
          "type": "uint256"
        }
      ],
      "stateMutability": "view",
      "type": "function"
    },
    {
      "inputs": [
        {
          "internalType": "string",
          "name": "_description",
          "type": "string"
        },
        {
          "internalType": "string",
          "name": "_imageUrl",
          "type": "string"
        },
        {
          "internalType": "uint256",
          "name": "_editionSize",
          "type": "uint256"
        },
        {
          "internalType": "uint256",
          "name": "_salePrice",
          "type": "uint256"
        },
        {
          "internalType": "uint256",
          "name": "_minPlayers",
          "type": "uint256"
        },
        {
          "internalType": "uint256",
          "name": "_maxTokens",
          "type": "uint256"
        }
      ],
      "name": "createEdition",
      "outputs": [
        {
          "internalType": "uint256",
          "name": "",
          "type": "uint256"
        }
      ],
      "stateMutability": "nonpayable",
      "type": "function"
    },
    {
      "inputs": [
        {
          "internalType": "uint256",
          "name": "raffleId",
          "type": "uint256"
        }
      ],
      "name": "getEventAtId",
      "outputs": [
        {
          "internalType": "contract TicketNftV1",
          "name": "",
          "type": "address"
        }
      ],
      "stateMutability": "view",
      "type": "function"
    },
    {
      "inputs": [],
      "name": "implementation",
      "outputs": [
        {
          "internalType": "address",
          "name": "",
          "type": "address"
        }
      ],
      "stateMutability": "view",
      "type": "function"
    },
    {
      "inputs": [],
      "name": "owner",
      "outputs": [
        {
          "internalType": "address",
          "name": "",
          "type": "address"
        }
      ],
      "stateMutability": "view",
      "type": "function"
    },
    {
      "inputs": [],
      "name": "readAllCollections",
      "outputs": [
        {
          "components": [
            {
              "internalType": "string",
              "name": "_name",
              "type": "string"
            },
            {
              "internalType": "address",
              "name": "editionContractAddress",
              "type": "address"
            },
            {
              "internalType": "uint256",
              "name": "_editionSize",
              "type": "uint256"
            },
            {
              "internalType": "uint256",
              "name": "newId",
              "type": "uint256"
            },
            {
              "internalType": "uint256",
              "name": "_minPlayers",
              "type": "uint256"
            },
            {
              "internalType": "uint256",
              "name": "_maxTokens",
              "type": "uint256"
            },
            {
              "internalType": "uint256",
              "name": "_salePrice",
              "type": "uint256"
            },
            {
              "internalType": "string",
              "name": "_animationUrl",
              "type": "string"
            },
            {
              "internalType": "string",
              "name": "_imageUrl",
              "type": "string"
            }
          ],
          "internalType": "struct TicketFactory.Collection[]",
          "name": "",
          "type": "tuple[]"
        }
      ],
      "stateMutability": "view",
      "type": "function"
    },
    {
      "inputs": [],
      "name": "renounceOwnership",
      "outputs": [],
      "stateMutability": "nonpayable",
      "type": "function"
    },
    {
      "inputs": [
        {
          "internalType": "address payable",
          "name": "organizerBank",
          "type": "address"
        }
      ],
      "name": "setBunyBankAddress",
      "outputs": [],
      "stateMutability": "nonpayable",
      "type": "function"
    },
    {
      "inputs": [
        {
          "internalType": "address",
          "name": "newOwner",
          "type": "address"
        }
      ],
      "name": "transferOwnership",
      "outputs": [],
      "stateMutability": "nonpayable",
      "type": "function"
    }
  ],
  "transactionHash": "0xf0e10183773e629d3992a7668980f9f7a9c806a75753efc45c1cfb9502d4c716",
  "args": [
    "0xF10f1e500381c17B0502A2f1c5aC902e69875b01",
    "0xcAdF84Bb9b1f9E1f875B1fb7f5b933c7F2E1502e"
  ],
  "numDeployments": 1,
  "solcInputHash": "99ee01edcfab135a6d33fabd8e8d97ea",
  "bytecode": "0x60c0604052601260809081527111185a5b1e4815195b1bdcc8151a58dad95d60721b60a05260679062000033908262000195565b506040805180820190915260048152631110525360e21b60208201526068906200005e908262000195565b50604051806080016040528060438152602001620016506043913960699062000088908262000195565b506000606b553480156200009b57600080fd5b506040516200169338038062001693833981016040819052620000be916200027a565b606680546001600160a01b039384166001600160a01b031991821617909155606a8054929093169116179055620002b9565b634e487b7160e01b600052604160045260246000fd5b600181811c908216806200011b57607f821691505b6020821081036200013c57634e487b7160e01b600052602260045260246000fd5b50919050565b601f8211156200019057600081815260208120601f850160051c810160208610156200016b5750805b601f850160051c820191505b818110156200018c5782815560010162000177565b5050505b505050565b81516001600160401b03811115620001b157620001b1620000f0565b620001c981620001c2845462000106565b8462000142565b602080601f831160018114620002015760008415620001e85750858301515b600019600386901b1c1916600185901b1785556200018c565b600085815260208120601f198616915b82811015620002325788860151825594840194600190910190840162000211565b5085821015620002515787850151600019600388901b60f8161c191681555b5050505050600190811b01905550565b6001600160a01b03811681146200027757600080fd5b50565b600080604083850312156200028e57600080fd5b82516200029b8162000261565b6020840151909250620002ae8162000261565b809150509250929050565b61138780620002c96000396000f3fe608060405234801561001057600080fd5b50600436106100a95760003560e01c8063d57f966b11610071578063d57f966b14610118578063df18d1fd1461012f578063e803383a14610142578063ef5c18bf14610155578063f077237714610168578063f2fde38b1461019057600080fd5b80635c60da1b146100ae578063715018a6146100de5780638da5cb5b146100e8578063adee9cc4146100f0578063d11b0c4a14610105575b600080fd5b6066546100c1906001600160a01b031681565b6040516001600160a01b0390911681526020015b60405180910390f35b6100e66101a3565b005b6100c16101b7565b6100f86101d0565b6040516100d59190610da1565b6100c1610113366004610e93565b6104ea565b610121606b5481565b6040519081526020016100d5565b6100e661013d366004610ec1565b610584565b606a546100c1906001600160a01b031681565b610121610163366004610f88565b6105fb565b61017b610176366004610e93565b61098b565b6040516100d59998979695949392919061100f565b6100e661019e366004610ec1565b610b94565b6101ab610c0d565b6101b56000610c6c565b565b60006101cb6033546001600160a01b031690565b905090565b60606000606b5467ffffffffffffffff8111156101ef576101ef610ee5565b60405190808252806020026020018201604052801561027857816020015b6102656040518061012001604052806060815260200160006001600160a01b03168152602001600081526020016000815260200160008152602001600081526020016000815260200160608152602001606081525090565b81526020019060019003908161020d5790505b50905060005b606b548110156104e457606c818154811061029b5761029b611088565b9060005260206000209060090201604051806101200160405290816000820180546102c59061109e565b80601f01602080910402602001604051908101604052809291908181526020018280546102f19061109e565b801561033e5780601f106103135761010080835404028352916020019161033e565b820191906000526020600020905b81548152906001019060200180831161032157829003601f168201915b505050918352505060018201546001600160a01b03166020820152600282015460408201526003820154606082015260048201546080820152600582015460a0820152600682015460c082015260078201805460e0909201916103a09061109e565b80601f01602080910402602001604051908101604052809291908181526020018280546103cc9061109e565b80156104195780601f106103ee57610100808354040283529160200191610419565b820191906000526020600020905b8154815290600101906020018083116103fc57829003601f168201915b505050505081526020016008820180546104329061109e565b80601f016020809104026020016040519081016040528092919081815260200182805461045e9061109e565b80156104ab5780601f10610480576101008083540402835291602001916104ab565b820191906000526020600020905b81548152906001019060200180831161048e57829003601f168201915b5050505050815250508282815181106104c6576104c6611088565b602002602001018190525080806104dc906110d2565b91505061027e565b50919050565b606654604080516020810184905260009261057e926001600160a01b039091169101604051602081830303815290604052610524906110f9565b6040513060388201526f5af43d82803e903d91602b57fd5bf3ff60248201526014810192909252733d602d80600a3d3981f3363d3d373d3d3d363d73825260588201526037600c8201206078820152605560439091012090565b92915050565b61058c610c0d565b6001600160a01b0381166105d95760405162461bcd60e51b815260206004820152600f60248201526e496e76616c6964206164647265737360881b60448201526064015b60405180910390fd5b606a80546001600160a01b0319166001600160a01b0392909216919091179055565b60008061060760655490565b6066546040805160208101849052929350600092610647926001600160a01b03169101604051602081830303815290604052610642906110f9565b610cbe565b9050806001600160a01b03166375b66e6233606760688d60698e8e8e8e606a60009054906101000a90046001600160a01b03168f6040518c63ffffffff1660e01b81526004016106a19b9a9998979695949392919061119a565b600060405180830381600087803b1580156106bb57600080fd5b505af11580156106cf573d6000803e3d6000fd5b5050604080518a815260208101899052908101879052606081018990526001600160a01b038416925033915084907f226927875e8fc1b20c8057e25b363b96220e510f97e084791642716d186327d59060800160405180910390a4610738606580546001019055565b6000604051806101200160405280606780546107539061109e565b80601f016020809104026020016040519081016040528092919081815260200182805461077f9061109e565b80156107cc5780601f106107a1576101008083540402835291602001916107cc565b820191906000526020600020905b8154815290600101906020018083116107af57829003601f168201915b50505050508152602001836001600160a01b03168152602001898152602001848152602001878152602001868152602001888152602001606980546108109061109e565b80601f016020809104026020016040519081016040528092919081815260200182805461083c9061109e565b80156108895780601f1061085e57610100808354040283529160200191610889565b820191906000526020600020905b81548152906001019060200180831161086c57829003601f168201915b50505091835250506020018a9052606c80546001810182556000919091528151919250829160099091027f2b4a51ab505fc96a0952efda2ba61bcd3078d4c02c39a186ec16f21883fbe016019081906108e29082611291565b5060208201516001820180546001600160a01b0319166001600160a01b0390921691909117905560408201516002820155606082015160038201556080820151600482015560a0820151600582015560c0820151600682015560e0820151600782019061094f9082611291565b5061010082015160088201906109659082611291565b5050606b805491506000610978836110d2565b90915550929a9950505050505050505050565b606c818154811061099b57600080fd5b90600052602060002090600902016000915090508060000180546109be9061109e565b80601f01602080910402602001604051908101604052809291908181526020018280546109ea9061109e565b8015610a375780601f10610a0c57610100808354040283529160200191610a37565b820191906000526020600020905b815481529060010190602001808311610a1a57829003601f168201915b5050505050908060010160009054906101000a90046001600160a01b031690806002015490806003015490806004015490806005015490806006015490806007018054610a839061109e565b80601f0160208091040260200160405190810160405280929190818152602001828054610aaf9061109e565b8015610afc5780601f10610ad157610100808354040283529160200191610afc565b820191906000526020600020905b815481529060010190602001808311610adf57829003601f168201915b505050505090806008018054610b119061109e565b80601f0160208091040260200160405190810160405280929190818152602001828054610b3d9061109e565b8015610b8a5780601f10610b5f57610100808354040283529160200191610b8a565b820191906000526020600020905b815481529060010190602001808311610b6d57829003601f168201915b5050505050905089565b610b9c610c0d565b6001600160a01b038116610c015760405162461bcd60e51b815260206004820152602660248201527f4f776e61626c653a206e6577206f776e657220697320746865207a65726f206160448201526564647265737360d01b60648201526084016105d0565b610c0a81610c6c565b50565b33610c166101b7565b6001600160a01b0316146101b55760405162461bcd60e51b815260206004820181905260248201527f4f776e61626c653a2063616c6c6572206973206e6f7420746865206f776e657260448201526064016105d0565b603380546001600160a01b038381166001600160a01b0319831681179093556040519116919082907f8be0079c531659141344cd1fd0a4f28419497f9722a3daafe3b4186f6b6457e090600090a35050565b6000763d602d80600a3d3981f3363d3d373d3d3d363d730000008360601b60e81c176000526e5af43d82803e903d91602b57fd5bf38360781b1760205281603760096000f590506001600160a01b03811661057e5760405162461bcd60e51b815260206004820152601760248201527f455243313136373a2063726561746532206661696c656400000000000000000060448201526064016105d0565b6000815180845260005b81811015610d8157602081850181015186830182015201610d65565b506000602082860101526020601f19601f83011685010191505092915050565b60006020808301818452808551808352604092508286019150828160051b87010184880160005b83811015610e8557603f1989840301855281516101208151818652610def82870182610d5b565b91505088820151610e0a8a8701826001600160a01b03169052565b508188015185890152606080830151908601526080808301519086015260a0808301519086015260c0808301519086015260e08083015186830382880152610e528382610d5b565b925050506101008083015192508582038187015250610e718183610d5b565b968901969450505090860190600101610dc8565b509098975050505050505050565b600060208284031215610ea557600080fd5b5035919050565b6001600160a01b0381168114610c0a57600080fd5b600060208284031215610ed357600080fd5b8135610ede81610eac565b9392505050565b634e487b7160e01b600052604160045260246000fd5b600082601f830112610f0c57600080fd5b813567ffffffffffffffff80821115610f2757610f27610ee5565b604051601f8301601f19908116603f01168101908282118183101715610f4f57610f4f610ee5565b81604052838152866020858801011115610f6857600080fd5b836020870160208301376000602085830101528094505050505092915050565b60008060008060008060c08789031215610fa157600080fd5b863567ffffffffffffffff80821115610fb957600080fd5b610fc58a838b01610efb565b97506020890135915080821115610fdb57600080fd5b50610fe889828a01610efb565b96999698505050506040850135946060810135946080820135945060a09091013592509050565b60006101208083526110238184018d610d5b565b905060018060a01b038b1660208401528960408401528860608401528760808401528660a08401528560c084015282810360e08401526110638186610d5b565b90508281036101008401526110788185610d5b565b9c9b505050505050505050505050565b634e487b7160e01b600052603260045260246000fd5b600181811c908216806110b257607f821691505b6020821081036104e457634e487b7160e01b600052602260045260246000fd5b6000600182016110f257634e487b7160e01b600052601160045260246000fd5b5060010190565b805160208083015191908110156104e45760001960209190910360031b1b16919050565b6000815461112a8161109e565b80855260206001838116801561114757600181146111615761118f565b60ff1985168884015283151560051b88018301955061118f565b866000528260002060005b858110156111875781548a820186015290830190840161116c565b890184019650505b505050505092915050565b6001600160a01b038c81168252610160602083018190526000916111c08483018f61111d565b915083820360408501526111d4828e61111d565b915083820360608501526111e8828d610d5b565b915083820360808501526111fc828c61111d565b915083820360a0850152611210828b610d5b565b60c085019990995260e08401979097525050610100810193909352921661012082015261014001529695505050505050565b601f82111561128c57600081815260208120601f850160051c810160208610156112695750805b601f850160051c820191505b8181101561128857828155600101611275565b5050505b505050565b815167ffffffffffffffff8111156112ab576112ab610ee5565b6112bf816112b9845461109e565b84611242565b602080601f8311600181146112f457600084156112dc5750858301515b600019600386901b1c1916600185901b178555611288565b600085815260208120601f198616915b8281101561132357888601518255948401946001909101908401611304565b50858210156113415787850151600019600388901b60f8161c191681555b5050505050600190811b0190555056fea26469706673582212202df5d051c64f253ae4e34f1ba775e2a9e00f407fef56402337f76dbdf825065464736f6c6343000813003368747470733a2f2f697066732e696f2f697066732f516d643934597372734b356a506269363735586977794c774d68634d364853364d554c43376d7151474d6e587457",
  "devdoc": {
    "events": {
      "Initialized(uint8)": {
        "details": "Triggered when the contract has been initialized or reinitialized."
      }
    },
    "kind": "dev",
    "methods": {
      "owner()": {
        "details": "Returns the address of the current owner."
      },
      "renounceOwnership()": {
        "details": "Leaves the contract without owner. It will not be possible to call `onlyOwner` functions anymore. Can only be called by the current owner. NOTE: Renouncing ownership will leave the contract without an owner, thereby removing any functionality that is only available to the owner."
      },
      "transferOwnership(address)": {
        "details": "Transfers ownership of the contract to a new account (`newOwner`). Can only be called by the current owner."
      }
    },
    "version": 1
  },
  "userdoc": {
    "kind": "user",
    "methods": {
      "constructor": {
        "notice": "Initializes factory with address of implementation logic"
      }
    },
    "version": 1
  },
  "storageLayout": {
    "storage": [
      {
        "astId": 800,
        "contract": "contracts/Tickets/TicketFactory.sol:TicketFactory",
        "label": "_initialized",
        "offset": 0,
        "slot": "0",
        "type": "t_uint8"
      },
      {
        "astId": 803,
        "contract": "contracts/Tickets/TicketFactory.sol:TicketFactory",
        "label": "_initializing",
        "offset": 1,
        "slot": "0",
        "type": "t_bool"
      },
      {
        "astId": 3286,
        "contract": "contracts/Tickets/TicketFactory.sol:TicketFactory",
        "label": "__gap",
        "offset": 0,
        "slot": "1",
        "type": "t_array(t_uint256)50_storage"
      },
      {
        "astId": 589,
        "contract": "contracts/Tickets/TicketFactory.sol:TicketFactory",
        "label": "_owner",
        "offset": 0,
        "slot": "51",
        "type": "t_address"
      },
      {
        "astId": 709,
        "contract": "contracts/Tickets/TicketFactory.sol:TicketFactory",
        "label": "__gap",
        "offset": 0,
        "slot": "52",
        "type": "t_array(t_uint256)49_storage"
      },
      {
        "astId": 14531,
        "contract": "contracts/Tickets/TicketFactory.sol:TicketFactory",
        "label": "atContract",
        "offset": 0,
        "slot": "101",
        "type": "t_struct(Counter)3293_storage"
      },
      {
        "astId": 14533,
        "contract": "contracts/Tickets/TicketFactory.sol:TicketFactory",
        "label": "implementation",
        "offset": 0,
        "slot": "102",
        "type": "t_address"
      },
      {
        "astId": 14536,
        "contract": "contracts/Tickets/TicketFactory.sol:TicketFactory",
        "label": "_name",
        "offset": 0,
        "slot": "103",
        "type": "t_string_storage"
      },
      {
        "astId": 14539,
        "contract": "contracts/Tickets/TicketFactory.sol:TicketFactory",
        "label": "_symbol",
        "offset": 0,
        "slot": "104",
        "type": "t_string_storage"
      },
      {
        "astId": 14542,
        "contract": "contracts/Tickets/TicketFactory.sol:TicketFactory",
        "label": "_animationUrl",
        "offset": 0,
        "slot": "105",
        "type": "t_string_storage"
      },
      {
        "astId": 14544,
        "contract": "contracts/Tickets/TicketFactory.sol:TicketFactory",
        "label": "_organizerBank",
        "offset": 0,
        "slot": "106",
        "type": "t_address_payable"
      },
      {
        "astId": 14547,
        "contract": "contracts/Tickets/TicketFactory.sol:TicketFactory",
        "label": "collectionCount",
        "offset": 0,
        "slot": "107",
        "type": "t_uint256"
      },
      {
        "astId": 14567,
        "contract": "contracts/Tickets/TicketFactory.sol:TicketFactory",
        "label": "collection",
        "offset": 0,
        "slot": "108",
        "type": "t_array(t_struct(Collection)14586_storage)dyn_storage"
      }
    ],
    "types": {
      "t_address": {
        "encoding": "inplace",
        "label": "address",
        "numberOfBytes": "20"
      },
      "t_address_payable": {
        "encoding": "inplace",
        "label": "address payable",
        "numberOfBytes": "20"
      },
      "t_array(t_struct(Collection)14586_storage)dyn_storage": {
        "base": "t_struct(Collection)14586_storage",
        "encoding": "dynamic_array",
        "label": "struct TicketFactory.Collection[]",
        "numberOfBytes": "32"
      },
      "t_array(t_uint256)49_storage": {
        "base": "t_uint256",
        "encoding": "inplace",
        "label": "uint256[49]",
        "numberOfBytes": "1568"
      },
      "t_array(t_uint256)50_storage": {
        "base": "t_uint256",
        "encoding": "inplace",
        "label": "uint256[50]",
        "numberOfBytes": "1600"
      },
      "t_bool": {
        "encoding": "inplace",
        "label": "bool",
        "numberOfBytes": "1"
      },
      "t_string_storage": {
        "encoding": "bytes",
        "label": "string",
        "numberOfBytes": "32"
      },
      "t_struct(Collection)14586_storage": {
        "encoding": "inplace",
        "label": "struct TicketFactory.Collection",
        "members": [
          {
            "astId": 14569,
            "contract": "contracts/Tickets/TicketFactory.sol:TicketFactory",
            "label": "_name",
            "offset": 0,
            "slot": "0",
            "type": "t_string_storage"
          },
          {
            "astId": 14571,
            "contract": "contracts/Tickets/TicketFactory.sol:TicketFactory",
            "label": "editionContractAddress",
            "offset": 0,
            "slot": "1",
            "type": "t_address"
          },
          {
            "astId": 14573,
            "contract": "contracts/Tickets/TicketFactory.sol:TicketFactory",
            "label": "_editionSize",
            "offset": 0,
            "slot": "2",
            "type": "t_uint256"
          },
          {
            "astId": 14575,
            "contract": "contracts/Tickets/TicketFactory.sol:TicketFactory",
            "label": "newId",
            "offset": 0,
            "slot": "3",
            "type": "t_uint256"
          },
          {
            "astId": 14577,
            "contract": "contracts/Tickets/TicketFactory.sol:TicketFactory",
            "label": "_minPlayers",
            "offset": 0,
            "slot": "4",
            "type": "t_uint256"
          },
          {
            "astId": 14579,
            "contract": "contracts/Tickets/TicketFactory.sol:TicketFactory",
            "label": "_maxTokens",
            "offset": 0,
            "slot": "5",
            "type": "t_uint256"
          },
          {
            "astId": 14581,
            "contract": "contracts/Tickets/TicketFactory.sol:TicketFactory",
            "label": "_salePrice",
            "offset": 0,
            "slot": "6",
            "type": "t_uint256"
          },
          {
            "astId": 14583,
            "contract": "contracts/Tickets/TicketFactory.sol:TicketFactory",
            "label": "_animationUrl",
            "offset": 0,
            "slot": "7",
            "type": "t_string_storage"
          },
          {
            "astId": 14585,
            "contract": "contracts/Tickets/TicketFactory.sol:TicketFactory",
            "label": "_imageUrl",
            "offset": 0,
            "slot": "8",
            "type": "t_string_storage"
          }
        ],
        "numberOfBytes": "288"
      },
      "t_struct(Counter)3293_storage": {
        "encoding": "inplace",
        "label": "struct CountersUpgradeable.Counter",
        "members": [
          {
            "astId": 3292,
            "contract": "contracts/Tickets/TicketFactory.sol:TicketFactory",
            "label": "_value",
            "offset": 0,
            "slot": "0",
            "type": "t_uint256"
          }
        ],
        "numberOfBytes": "32"
      },
      "t_uint256": {
        "encoding": "inplace",
        "label": "uint256",
        "numberOfBytes": "32"
      },
      "t_uint8": {
        "encoding": "inplace",
        "label": "uint8",
        "numberOfBytes": "1"
      }
    }
  }
}