{
  "address": "0xF10f1e500381c17B0502A2f1c5aC902e69875b01",
  "abi": [
    {
      "inputs": [
        {
          "internalType": "contract SharedNFTLogic",
          "name": "_sharedNFTLogic",
          "type": "address"
        }
      ],
      "stateMutability": "nonpayable",
      "type": "constructor"
    },
    {
      "anonymous": false,
      "inputs": [
        {
          "indexed": true,
          "internalType": "address",
          "name": "owner",
          "type": "address"
        },
        {
          "indexed": true,
          "internalType": "address",
          "name": "approved",
          "type": "address"
        },
        {
          "indexed": true,
          "internalType": "uint256",
          "name": "tokenId",
          "type": "uint256"
        }
      ],
      "name": "Approval",
      "type": "event"
    },
    {
      "anonymous": false,
      "inputs": [
        {
          "indexed": true,
          "internalType": "address",
          "name": "owner",
          "type": "address"
        },
        {
          "indexed": true,
          "internalType": "address",
          "name": "operator",
          "type": "address"
        },
        {
          "indexed": false,
          "internalType": "bool",
          "name": "approved",
          "type": "bool"
        }
      ],
      "name": "ApprovalForAll",
      "type": "event"
    },
    {
      "anonymous": false,
      "inputs": [
        {
          "indexed": false,
          "internalType": "address",
          "name": "minter",
          "type": "address"
        },
        {
          "indexed": false,
          "internalType": "uint256",
          "name": "startTime",
          "type": "uint256"
        }
      ],
      "name": "Eventstarted",
      "type": "event"
    },
    {
      "anonymous": false,
      "inputs": [
        {
          "indexed": false,
          "internalType": "uint8",
          "name": "version",
          "type": "uint8"
        }
      ],
      "name": "Initialized",
      "type": "event"
    },
    {
      "anonymous": false,
      "inputs": [
        {
          "indexed": true,
          "internalType": "address",
          "name": "previousOwner",
          "type": "address"
        },
        {
          "indexed": true,
          "internalType": "address",
          "name": "newOwner",
          "type": "address"
        }
      ],
      "name": "OwnershipTransferred",
      "type": "event"
    },
    {
      "anonymous": false,
      "inputs": [
        {
          "indexed": false,
          "internalType": "uint256",
          "name": "price",
          "type": "uint256"
        },
        {
          "indexed": false,
          "internalType": "address",
          "name": "owner",
          "type": "address"
        },
        {
          "indexed": false,
          "internalType": "uint256",
          "name": "EntryCount",
          "type": "uint256"
        },
        {
          "indexed": false,
          "internalType": "uint256",
          "name": "entryTime",
          "type": "uint256"
        }
      ],
      "name": "TicketSold",
      "type": "event"
    },
    {
      "anonymous": false,
      "inputs": [
        {
          "indexed": true,
          "internalType": "address",
          "name": "from",
          "type": "address"
        },
        {
          "indexed": true,
          "internalType": "address",
          "name": "to",
          "type": "address"
        },
        {
          "indexed": true,
          "internalType": "uint256",
          "name": "tokenId",
          "type": "uint256"
        }
      ],
      "name": "Transfer",
      "type": "event"
    },
    {
      "inputs": [],
      "name": "EntryCount",
      "outputs": [
        {
          "internalType": "uint256",
          "name": "",
          "type": "uint256"
        }
      ],
      "stateMutability": "view",
      "type": "function"
    },
    {
      "inputs": [],
      "name": "active",
      "outputs": [
        {
          "internalType": "bool",
          "name": "",
          "type": "bool"
        }
      ],
      "stateMutability": "view",
      "type": "function"
    },
    {
      "inputs": [
        {
          "internalType": "address",
          "name": "",
          "type": "address"
        }
      ],
      "name": "allowedMinters",
      "outputs": [
        {
          "internalType": "bool",
          "name": "",
          "type": "bool"
        }
      ],
      "stateMutability": "view",
      "type": "function"
    },
    {
      "inputs": [],
      "name": "animationUrl",
      "outputs": [
        {
          "internalType": "string",
          "name": "",
          "type": "string"
        }
      ],
      "stateMutability": "view",
      "type": "function"
    },
    {
      "inputs": [
        {
          "internalType": "address",
          "name": "to",
          "type": "address"
        },
        {
          "internalType": "uint256",
          "name": "tokenId",
          "type": "uint256"
        }
      ],
      "name": "approve",
      "outputs": [],
      "stateMutability": "nonpayable",
      "type": "function"
    },
    {
      "inputs": [
        {
          "internalType": "address",
          "name": "owner",
          "type": "address"
        }
      ],
      "name": "balanceOf",
      "outputs": [
        {
          "internalType": "uint256",
          "name": "",
          "type": "uint256"
        }
      ],
      "stateMutability": "view",
      "type": "function"
    },
    {
      "inputs": [],
      "name": "bunyBank",
      "outputs": [
        {
          "internalType": "address payable",
          "name": "",
          "type": "address"
        }
      ],
      "stateMutability": "view",
      "type": "function"
    },
    {
      "inputs": [],
      "name": "description",
      "outputs": [
        {
          "internalType": "string",
          "name": "",
          "type": "string"
        }
      ],
      "stateMutability": "view",
      "type": "function"
    },
    {
      "inputs": [],
      "name": "editionSize",
      "outputs": [
        {
          "internalType": "uint256",
          "name": "",
          "type": "uint256"
        }
      ],
      "stateMutability": "view",
      "type": "function"
    },
    {
      "inputs": [],
      "name": "enableEvent",
      "outputs": [],
      "stateMutability": "nonpayable",
      "type": "function"
    },
    {
      "inputs": [],
      "name": "endTime",
      "outputs": [
        {
          "internalType": "uint256",
          "name": "",
          "type": "uint256"
        }
      ],
      "stateMutability": "view",
      "type": "function"
    },
    {
      "inputs": [
        {
          "internalType": "uint256",
          "name": "tokenId",
          "type": "uint256"
        }
      ],
      "name": "getApproved",
      "outputs": [
        {
          "internalType": "address",
          "name": "",
          "type": "address"
        }
      ],
      "stateMutability": "view",
      "type": "function"
    },
    {
      "inputs": [],
      "name": "getBalance",
      "outputs": [
        {
          "internalType": "uint256",
          "name": "",
          "type": "uint256"
        }
      ],
      "stateMutability": "view",
      "type": "function"
    },
    {
      "inputs": [
        {
          "internalType": "uint256",
          "name": "_id",
          "type": "uint256"
        }
      ],
      "name": "getOwner",
      "outputs": [
        {
          "internalType": "address",
          "name": "",
          "type": "address"
        }
      ],
      "stateMutability": "view",
      "type": "function"
    },
    {
      "inputs": [],
      "name": "imageUrl",
      "outputs": [
        {
          "internalType": "string",
          "name": "",
          "type": "string"
        }
      ],
      "stateMutability": "view",
      "type": "function"
    },
    {
      "inputs": [
        {
          "internalType": "address",
          "name": "_owner",
          "type": "address"
        },
        {
          "internalType": "string",
          "name": "_name",
          "type": "string"
        },
        {
          "internalType": "string",
          "name": "_symbol",
          "type": "string"
        },
        {
          "internalType": "string",
          "name": "_description",
          "type": "string"
        },
        {
          "internalType": "string",
          "name": "_animationUrl",
          "type": "string"
        },
        {
          "internalType": "string",
          "name": "_imageUrl",
          "type": "string"
        },
        {
          "internalType": "uint256",
          "name": "_editionSize",
          "type": "uint256"
        },
        {
          "internalType": "uint256",
          "name": "_salePrice",
          "type": "uint256"
        },
        {
          "internalType": "uint256",
          "name": "_minCustomers",
          "type": "uint256"
        },
        {
          "internalType": "address payable",
          "name": "_bunyBank",
          "type": "address"
        },
        {
          "internalType": "uint256",
          "name": "_maxTokens",
          "type": "uint256"
        }
      ],
      "name": "initialize",
      "outputs": [],
      "stateMutability": "nonpayable",
      "type": "function"
    },
    {
      "inputs": [
        {
          "internalType": "address",
          "name": "owner",
          "type": "address"
        },
        {
          "internalType": "address",
          "name": "operator",
          "type": "address"
        }
      ],
      "name": "isApprovedForAll",
      "outputs": [
        {
          "internalType": "bool",
          "name": "",
          "type": "bool"
        }
      ],
      "stateMutability": "view",
      "type": "function"
    },
    {
      "inputs": [],
      "name": "isComplete",
      "outputs": [
        {
          "internalType": "bool",
          "name": "",
          "type": "bool"
        }
      ],
      "stateMutability": "view",
      "type": "function"
    },
    {
      "inputs": [],
      "name": "maxTokens",
      "outputs": [
        {
          "internalType": "uint256",
          "name": "",
          "type": "uint256"
        }
      ],
      "stateMutability": "view",
      "type": "function"
    },
    {
      "inputs": [],
      "name": "minCustomers",
      "outputs": [
        {
          "internalType": "uint256",
          "name": "",
          "type": "uint256"
        }
      ],
      "stateMutability": "view",
      "type": "function"
    },
    {
      "inputs": [
        {
          "internalType": "address",
          "name": "to",
          "type": "address"
        }
      ],
      "name": "mintEdition",
      "outputs": [
        {
          "internalType": "uint256",
          "name": "",
          "type": "uint256"
        }
      ],
      "stateMutability": "nonpayable",
      "type": "function"
    },
    {
      "inputs": [
        {
          "internalType": "address[]",
          "name": "recipients",
          "type": "address[]"
        }
      ],
      "name": "mintEditions",
      "outputs": [
        {
          "internalType": "uint256",
          "name": "",
          "type": "uint256"
        }
      ],
      "stateMutability": "nonpayable",
      "type": "function"
    },
    {
      "inputs": [
        {
          "internalType": "address",
          "name": "",
          "type": "address"
        }
      ],
      "name": "mintedTokens",
      "outputs": [
        {
          "internalType": "bool",
          "name": "",
          "type": "bool"
        }
      ],
      "stateMutability": "view",
      "type": "function"
    },
    {
      "inputs": [],
      "name": "name",
      "outputs": [
        {
          "internalType": "string",
          "name": "",
          "type": "string"
        }
      ],
      "stateMutability": "view",
      "type": "function"
    },
    {
      "inputs": [
        {
          "internalType": "uint256",
          "name": "",
          "type": "uint256"
        }
      ],
      "name": "nftTokenIds",
      "outputs": [
        {
          "internalType": "uint256",
          "name": "",
          "type": "uint256"
        }
      ],
      "stateMutability": "view",
      "type": "function"
    },
    {
      "inputs": [],
      "name": "numberCanMint",
      "outputs": [
        {
          "internalType": "uint256",
          "name": "",
          "type": "uint256"
        }
      ],
      "stateMutability": "view",
      "type": "function"
    },
    {
      "inputs": [],
      "name": "owner",
      "outputs": [
        {
          "internalType": "address",
          "name": "",
          "type": "address"
        }
      ],
      "stateMutability": "view",
      "type": "function"
    },
    {
      "inputs": [
        {
          "internalType": "uint256",
          "name": "tokenId",
          "type": "uint256"
        }
      ],
      "name": "ownerOf",
      "outputs": [
        {
          "internalType": "address",
          "name": "",
          "type": "address"
        }
      ],
      "stateMutability": "view",
      "type": "function"
    },
    {
      "inputs": [],
      "name": "purchase",
      "outputs": [
        {
          "internalType": "uint256",
          "name": "",
          "type": "uint256"
        }
      ],
      "stateMutability": "payable",
      "type": "function"
    },
    {
      "inputs": [
        {
          "internalType": "uint256",
          "name": "numTokens",
          "type": "uint256"
        }
      ],
      "name": "purchaseMultiple",
      "outputs": [
        {
          "internalType": "uint256",
          "name": "",
          "type": "uint256"
        }
      ],
      "stateMutability": "payable",
      "type": "function"
    },
    {
      "inputs": [],
      "name": "readAllEntries",
      "outputs": [
        {
          "components": [
            {
              "internalType": "address",
              "name": "customer",
              "type": "address"
            },
            {
              "internalType": "uint256",
              "name": "EntryNumber",
              "type": "uint256"
            },
            {
              "internalType": "uint256",
              "name": "entryTime",
              "type": "uint256"
            }
          ],
          "internalType": "struct TicketNftV1.Entry[]",
          "name": "",
          "type": "tuple[]"
        }
      ],
      "stateMutability": "view",
      "type": "function"
    },
    {
      "inputs": [],
      "name": "renounceOwnership",
      "outputs": [],
      "stateMutability": "nonpayable",
      "type": "function"
    },
    {
      "inputs": [
        {
          "internalType": "address",
          "name": "from",
          "type": "address"
        },
        {
          "internalType": "address",
          "name": "to",
          "type": "address"
        },
        {
          "internalType": "uint256",
          "name": "tokenId",
          "type": "uint256"
        }
      ],
      "name": "safeTransferFrom",
      "outputs": [],
      "stateMutability": "nonpayable",
      "type": "function"
    },
    {
      "inputs": [
        {
          "internalType": "address",
          "name": "from",
          "type": "address"
        },
        {
          "internalType": "address",
          "name": "to",
          "type": "address"
        },
        {
          "internalType": "uint256",
          "name": "tokenId",
          "type": "uint256"
        },
        {
          "internalType": "bytes",
          "name": "data",
          "type": "bytes"
        }
      ],
      "name": "safeTransferFrom",
      "outputs": [],
      "stateMutability": "nonpayable",
      "type": "function"
    },
    {
      "inputs": [],
      "name": "salePrice",
      "outputs": [
        {
          "internalType": "uint256",
          "name": "",
          "type": "uint256"
        }
      ],
      "stateMutability": "view",
      "type": "function"
    },
    {
      "inputs": [
        {
          "internalType": "address",
          "name": "operator",
          "type": "address"
        },
        {
          "internalType": "bool",
          "name": "approved",
          "type": "bool"
        }
      ],
      "name": "setApprovalForAll",
      "outputs": [],
      "stateMutability": "nonpayable",
      "type": "function"
    },
    {
      "inputs": [
        {
          "internalType": "address",
          "name": "minter",
          "type": "address"
        },
        {
          "internalType": "bool",
          "name": "allowed",
          "type": "bool"
        }
      ],
      "name": "setApprovedMinter",
      "outputs": [],
      "stateMutability": "nonpayable",
      "type": "function"
    },
    {
      "inputs": [],
      "name": "startTime",
      "outputs": [
        {
          "internalType": "uint256",
          "name": "",
          "type": "uint256"
        }
      ],
      "stateMutability": "view",
      "type": "function"
    },
    {
      "inputs": [
        {
          "internalType": "bytes4",
          "name": "interfaceId",
          "type": "bytes4"
        }
      ],
      "name": "supportsInterface",
      "outputs": [
        {
          "internalType": "bool",
          "name": "",
          "type": "bool"
        }
      ],
      "stateMutability": "view",
      "type": "function"
    },
    {
      "inputs": [],
      "name": "symbol",
      "outputs": [
        {
          "internalType": "string",
          "name": "",
          "type": "string"
        }
      ],
      "stateMutability": "view",
      "type": "function"
    },
    {
      "inputs": [
        {
          "internalType": "uint256",
          "name": "tokenId",
          "type": "uint256"
        }
      ],
      "name": "tokenURI",
      "outputs": [
        {
          "internalType": "string",
          "name": "",
          "type": "string"
        }
      ],
      "stateMutability": "view",
      "type": "function"
    },
    {
      "inputs": [],
      "name": "totalSupply",
      "outputs": [
        {
          "internalType": "uint256",
          "name": "",
          "type": "uint256"
        }
      ],
      "stateMutability": "view",
      "type": "function"
    },
    {
      "inputs": [
        {
          "internalType": "address",
          "name": "from",
          "type": "address"
        },
        {
          "internalType": "address",
          "name": "to",
          "type": "address"
        },
        {
          "internalType": "uint256",
          "name": "tokenId",
          "type": "uint256"
        }
      ],
      "name": "transferFrom",
      "outputs": [],
      "stateMutability": "nonpayable",
      "type": "function"
    },
    {
      "inputs": [
        {
          "internalType": "address",
          "name": "newOwner",
          "type": "address"
        }
      ],
      "name": "transferOwnership",
      "outputs": [],
      "stateMutability": "nonpayable",
      "type": "function"
    }
  ],
  "transactionHash": "0xfd70cab6458ecddde10bed74c437307e37b06f6abbc06e478125a2172d5e60a1",
  "args": [
    "0x5Fb1FbD875858666500B9818DCFCc1e5dAD06193"
  ],
  "numDeployments": 1,
  "solcInputHash": "99ee01edcfab135a6d33fabd8e8d97ea",
  "bytecode": "0x60a060405260d1805461ffff19169055600060d4553480156200002157600080fd5b5060405162002e0038038062002e00833981016040819052620000449162000056565b6001600160a01b031660805262000088565b6000602082840312156200006957600080fd5b81516001600160a01b03811681146200008157600080fd5b9392505050565b608051612d5c620000a460003960006118450152612d5c6000f3fe6080604052600436106102675760003560e01c8063715018a611610144578063b2fa1c9e116100b6578063ddb4e9b01161007a578063ddb4e9b0146106d4578063e8315742146106e9578063e985e9c5146106ff578063f2fde38b1461071f578063f4ed0f461461073f578063f51f96dd1461075557600080fd5b8063b2fa1c9e1461063f578063b492db511461065e578063b88d4fde14610674578063c41a360a14610694578063c87b56dd146106b457600080fd5b80638da5cb5b116101085780638da5cb5b146105aa57806395d89b41146105bf578063a1ea842f146105d4578063a22cb465146105ea578063a66ff0af1461060a578063aba831501461062a57600080fd5b8063715018a61461051a5780637241dfa01461052f5780637284e4161461055f57806375b66e621461057457806378e979251461059457600080fd5b806323b872dd116101dd578063423afa66116101a1578063423afa661461046057806342842e0e1461049057806348ed4535146104b05780636352211e146104d257806364edfbf0146104f257806370a08231146104fa57600080fd5b806323b872dd146103e257806329ec16dd146104025780633197cbb614610422578063397b5b24146104385780633d5e81471461044d57600080fd5b806309d944481161022f57806309d94448146103375780630b65b6e7146103575780630f6a93491461037a57806312065fe01461039a57806318160ddd146103ad57806322d544a3146103c257600080fd5b806301ffc9a71461026c57806302fb0c5e146102a157806306fdde03146102bb578063081812fc146102dd578063095ea7b314610315575b600080fd5b34801561027857600080fd5b5061028c6102873660046122f7565b61076b565b60405190151581526020015b60405180910390f35b3480156102ad57600080fd5b5060d15461028c9060ff1681565b3480156102c757600080fd5b506102d061077c565b6040516102989190612364565b3480156102e957600080fd5b506102fd6102f8366004612377565b61080e565b6040516001600160a01b039091168152602001610298565b34801561032157600080fd5b506103356103303660046123b5565b610835565b005b34801561034357600080fd5b5060d5546102fd906001600160a01b031681565b34801561036357600080fd5b5061036c61094f565b604051908152602001610298565b34801561038657600080fd5b5061036c610395366004612428565b610982565b3480156103a657600080fd5b504761036c565b3480156103b957600080fd5b5061036c6109e1565b3480156103ce57600080fd5b5061036c6103dd366004612377565b6109ee565b3480156103ee57600080fd5b506103356103fd3660046124da565b610a0f565b34801561040e57600080fd5b5061033561041d36600461251b565b610a40565b34801561042e57600080fd5b5061036c60d35481565b34801561044457600080fd5b506102d0610ac1565b61036c61045b366004612377565b610b4f565b34801561046c57600080fd5b5061028c61047b366004612559565b60d96020526000908152604090205460ff1681565b34801561049c57600080fd5b506103356104ab3660046124da565b61101b565b3480156104bc57600080fd5b506104c5611036565b6040516102989190612576565b3480156104de57600080fd5b506102fd6104ed366004612377565b611151565b61036c6111b1565b34801561050657600080fd5b5061036c610515366004612559565b61147e565b34801561052657600080fd5b50610335611504565b34801561053b57600080fd5b5061028c61054a366004612559565b60d86020526000908152604090205460ff1681565b34801561056b57600080fd5b506102d0611518565b34801561058057600080fd5b5061033561058f36600461265e565b611525565b3480156105a057600080fd5b5061036c60d25481565b3480156105b657600080fd5b506102fd6116b3565b3480156105cb57600080fd5b506102d06116c7565b3480156105e057600080fd5b5061036c60d45481565b3480156105f657600080fd5b5061033561060536600461251b565b6116d6565b34801561061657600080fd5b5061036c610625366004612559565b6116e5565b34801561063657600080fd5b506102d06117a1565b34801561064b57600080fd5b5060d15461028c90610100900460ff1681565b34801561066a57600080fd5b5061036c60cf5481565b34801561068057600080fd5b5061033561068f366004612781565b6117ae565b3480156106a057600080fd5b506102fd6106af366004612377565b6117e6565b3480156106c057600080fd5b506102d06106cf366004612377565b6117f1565b3480156106e057600080fd5b506103356118ea565b3480156106f557600080fd5b5061036c60d05481565b34801561070b57600080fd5b5061028c61071a366004612801565b611901565b34801561072b57600080fd5b5061033561073a366004612559565b61192f565b34801561074b57600080fd5b5061036c60cd5481565b34801561076157600080fd5b5061036c60ce5481565b6000610776826119a8565b92915050565b60606065805461078b9061282f565b80601f01602080910402602001604051908101604052809291908181526020018280546107b79061282f565b80156108045780601f106107d957610100808354040283529160200191610804565b820191906000526020600020905b8154815290600101906020018083116107e757829003601f168201915b5050505050905090565b6000610819826119f8565b506000908152606960205260409020546001600160a01b031690565b600061084082611151565b9050806001600160a01b0316836001600160a01b0316036108b25760405162461bcd60e51b815260206004820152602160248201527f4552433732313a20617070726f76616c20746f2063757272656e74206f776e656044820152603960f91b60648201526084015b60405180910390fd5b336001600160a01b03821614806108ce57506108ce8133611901565b6109405760405162461bcd60e51b815260206004820152603d60248201527f4552433732313a20617070726f76652063616c6c6572206973206e6f7420746f60448201527f6b656e206f776e6572206f7220617070726f76656420666f7220616c6c00000060648201526084016108a9565b61094a8383611a57565b505050565b600060cd54600003610962575060001990565b60c95460cd54610973906001612879565b61097d919061288c565b905090565b600061098c611ac5565b6109d85760405162461bcd60e51b815260206004820152601d60248201527f4e6565647320746f20626520616e20616c6c6f776564206d696e74657200000060448201526064016108a9565b61077682611b34565b6000600161097360c95490565b60d781815481106109fe57600080fd5b600091825260209091200154905081565b610a193382611c11565b610a355760405162461bcd60e51b81526004016108a99061289f565b61094a838383611c6f565b610a48611dd3565b6001600160a01b038216600090815260d960205260409020805460ff1916821515179055610a746118ea565b4260d2819055604080516001600160a01b038516815260208101929092527f77097f4e7897417bde1f0f4500eebb35b630a78e3e439498d6c0a779e171c6fb910160405180910390a15050565b60cb8054610ace9061282f565b80601f0160208091040260200160405190810160405280929190818152602001828054610afa9061282f565b8015610b475780601f10610b1c57610100808354040283529160200191610b47565b820191906000526020600020905b815481529060010190602001808311610b2a57829003601f168201915b505050505081565b600060d054821115610bd45760405162461bcd60e51b815260206004820152604260248201527f596f752061726520747279696e6720746f206d696e74206d6f726520746f6b6560448201527f6e73207468616e20616c6c6f77656420696e206f6e65207472616e736163746960648201526137b760f11b608482015260a4016108a9565b610bdc61094f565b821115610c675760405162461bcd60e51b815260206004820152604d60248201527f546865206e756d626572206f6620746f6b656e7320796f75206172652074727960448201527f696e6720746f206d696e74206578636565647320746865206e756d626572206f60648201526c19881d1bdad95b9cc81b19599d609a1b608482015260a4016108a9565b60d05482610c743361147e565b610c7e9190612879565b1115610d185760405162461bcd60e51b815260206004820152605f60248201527f54686520746f74616c206e756d626572206f6620746f6b656e7320796f75206160448201527f726520747279696e6720746f206f776e206578636565647320746865206d617860648201527f696d756d20746f6b656e7320616c6c6f77656420706572206164647265737300608482015260a4016108a9565b60d15460ff16610d3a5760405162461bcd60e51b81526004016108a9906128ec565b60ce54610d47908361293f565b3414610dae5760405162461bcd60e51b815260206004820152603060248201527f496e73756666696369656e742065746865722073656e7420666f72207468652060448201526f6e756d626572206f6620746f6b656e7360801b60648201526084016108a9565b60008267ffffffffffffffff811115610dc957610dc96123e1565b604051908082528060200260200182016040528015610df2578160200160208202803683370190505b50905060005b83811015610e3d5733828281518110610e1357610e13612956565b6001600160a01b039092166020928302919091019091015280610e358161296c565b915050610df8565b5033600090815260d860205260408120805460ff1916600117905560d48054859290610e6a908490612879565b909155505060d45460d7805460018101825560009182527f8a012a6de2943a5aa4d77acf5e695d4456760a3f1f30a5d6dc2079599187a071019190915542905b84811015610fa45760006040518060600160405280336001600160a01b031681526020018360d454610edc919061288c565b8152602090810185905260d6805460018101825560009190915282517fe767803f8ecf1dee6bb0345811f7312cda556058b19db6389ad9ae3568643ddd600390920291820180546001600160a01b0319166001600160a01b03909216919091179055908201517fe767803f8ecf1dee6bb0345811f7312cda556058b19db6389ad9ae3568643dde8201556040909101517fe767803f8ecf1dee6bb0345811f7312cda556058b19db6389ad9ae3568643ddf909101555080610f9c8161296c565b915050610eaa565b5060cd5460d45410610fc05760d1805461ffff19166101001790555b60ce5460d45460408051928352336020840152820152606081018290527fde630edbf1c187aa772b7d32b9d9855bd733b8cd77a6e0fdef1c6d839efe13fc9060800160405180910390a161101382611b34565b949350505050565b61094a838383604051806020016040528060008152506117ae565b6060600060d45467ffffffffffffffff811115611055576110556123e1565b6040519080825280602002602001820160405280156110b357816020015b6110a0604051806060016040528060006001600160a01b0316815260200160008152602001600081525090565b8152602001906001900390816110735790505b50905060005b60d45481101561114b5760d681815481106110d6576110d6612956565b600091825260209182902060408051606081018252600390930290910180546001600160a01b0316835260018101549383019390935260029092015491810191909152825183908390811061112d5761112d612956565b602002602001018190525080806111439061296c565b9150506110b9565b50919050565b6000818152606760205260408120546001600160a01b0316806107765760405162461bcd60e51b8152602060048201526018602482015277115490cdcc8c4e881a5b9d985b1a59081d1bdad95b88125160421b60448201526064016108a9565b600060d0546111bf3361147e565b106112325760405162461bcd60e51b815260206004820152603760248201527f596f752068617665207265616368656420746865206d6178696d756d20746f6b60448201527f656e7320616c6c6f77656420706572206164647265737300000000000000000060648201526084016108a9565b60d15460ff166112545760405162461bcd60e51b81526004016108a9906128ec565b60ce5434146112985760405162461bcd60e51b815260206004820152601060248201526f4e6f20736f757020666f7220796f752160801b60448201526064016108a9565b6040805160018082528183019092526000916020808301908036833701905050905033816000815181106112ce576112ce612956565b6001600160a01b0390921660209283029190910182015233600090815260d890915260408120805460ff1916600117905560d480549161130d8361296c565b909155505060d4805460d7805460018082019092557f8a012a6de2943a5aa4d77acf5e695d4456760a3f1f30a5d6dc2079599187a0710182905560408051606081018252338152602081019384524291810182815260d68054948501815560005281517fe767803f8ecf1dee6bb0345811f7312cda556058b19db6389ad9ae3568643ddd600390950294850180546001600160a01b0319166001600160a01b0390921691909117905593517fe767803f8ecf1dee6bb0345811f7312cda556058b19db6389ad9ae3568643dde84015592517fe767803f8ecf1dee6bb0345811f7312cda556058b19db6389ad9ae3568643ddf9092019190915560cd549254909290036114235760d1805461ffff19166101001790555b60ce5460d45460408051928352336020840152820152606081018390527fde630edbf1c187aa772b7d32b9d9855bd733b8cd77a6e0fdef1c6d839efe13fc9060800160405180910390a161147683611b34565b935050505090565b60006001600160a01b0382166114e85760405162461bcd60e51b815260206004820152602960248201527f4552433732313a2061646472657373207a65726f206973206e6f7420612076616044820152683634b21037bbb732b960b91b60648201526084016108a9565b506001600160a01b031660009081526068602052604090205490565b61150c611dd3565b6115166000611e32565b565b60ca8054610ace9061282f565b600054610100900460ff16158080156115455750600054600160ff909116105b8061155f5750303b15801561155f575060005460ff166001145b6115c25760405162461bcd60e51b815260206004820152602e60248201527f496e697469616c697a61626c653a20636f6e747261637420697320616c72656160448201526d191e481a5b9a5d1a585b1a5e995960921b60648201526084016108a9565b6000805460ff1916600117905580156115e5576000805461ff0019166101001790555b6115ef8b8b611e84565b6115f7611eb5565b6116008c61192f565b60ca61160c8a826129d3565b5060cb61161989826129d3565b5060cc61162688826129d3565b5060cd86905560ce85905560cf84905560d580546001600160a01b0319166001600160a01b03851617905560d082905560c98054600101905580156116a5576000805461ff0019169055604051600181527f7f26b83ff96e1f2b6a682f133852f6798a09c465da95921460cefb38474024989060200160405180910390a15b505050505050505050505050565b600061097d6097546001600160a01b031690565b60606066805461078b9061282f565b6116e1338383611ee4565b5050565b60006116ef611ac5565b61173b5760405162461bcd60e51b815260206004820152601d60248201527f4e6565647320746f20626520616e20616c6c6f776564206d696e74657200000060448201526064016108a9565b60408051600180825281830190925260009160208083019080368337019050509050828160008151811061177157611771612956565b60200260200101906001600160a01b031690816001600160a01b03168152505061179a81611b34565b9392505050565b60cc8054610ace9061282f565b6117b83383611c11565b6117d45760405162461bcd60e51b81526004016108a99061289f565b6117e084848484611fb2565b50505050565b600061077682611151565b6000818152606760205260409020546060906001600160a01b03166118435760405162461bcd60e51b81526020600482015260086024820152672737903a37b5b2b760c11b60448201526064016108a9565b7f00000000000000000000000000000000000000000000000000000000000000006001600160a01b031663df30dba061187a61077c565b60ca60cc60cb8760cd546040518763ffffffff1660e01b81526004016118a596959493929190612b10565b600060405180830381865afa1580156118c2573d6000803e3d6000fd5b505050506040513d6000823e601f3d908101601f191682016040526107769190810190612b73565b6118f2611dd3565b60d1805460ff19166001179055565b6001600160a01b039182166000908152606a6020908152604080832093909416825291909152205460ff1690565b611937611dd3565b6001600160a01b03811661199c5760405162461bcd60e51b815260206004820152602660248201527f4f776e61626c653a206e6577206f776e657220697320746865207a65726f206160448201526564647265737360d01b60648201526084016108a9565b6119a581611e32565b50565b60006001600160e01b031982166380ac58cd60e01b14806119d957506001600160e01b03198216635b5e139f60e01b145b8061077657506301ffc9a760e01b6001600160e01b0319831614610776565b6000818152606760205260409020546001600160a01b03166119a55760405162461bcd60e51b8152602060048201526018602482015277115490cdcc8c4e881a5b9d985b1a59081d1bdad95b88125160421b60448201526064016108a9565b600081815260696020526040902080546001600160a01b0319166001600160a01b0384169081179091558190611a8c82611151565b6001600160a01b03167f8c5be1e5ebec7d5bd14f71427d1e84f3dd0314c0f7b2291e5b200ac8c7c3b92560405160405180910390a45050565b600033611ad06116b3565b6001600160a01b031603611ae45750600190565b6000805260d96020527f665fecb6766038646257fb3193371280b91d4ee69f1071872c4c7b974431a4885460ff1615611b1d5750600190565b5033600090815260d9602052604090205460ff1690565b600080611b4060c95490565b905060006001845183611b539190612879565b611b5d919061288c565b905060cd5460001480611b72575060cd548111155b611ba95760405162461bcd60e51b815260206004820152600860248201526714dbdb19081bdd5d60c21b60448201526064016108a9565b80611bb360c95490565b11611c0957611bf68483611bc660c95490565b611bd0919061288c565b81518110611be057611be0612956565b6020026020010151611bf160c95490565b611fe5565b611c0460c980546001019055565b611ba9565b60c954611013565b600080611c1d83611151565b9050806001600160a01b0316846001600160a01b03161480611c445750611c448185611901565b806110135750836001600160a01b0316611c5d8461080e565b6001600160a01b031614949350505050565b826001600160a01b0316611c8282611151565b6001600160a01b031614611ca85760405162461bcd60e51b81526004016108a990612bea565b6001600160a01b038216611d0a5760405162461bcd60e51b8152602060048201526024808201527f4552433732313a207472616e7366657220746f20746865207a65726f206164646044820152637265737360e01b60648201526084016108a9565b826001600160a01b0316611d1d82611151565b6001600160a01b031614611d435760405162461bcd60e51b81526004016108a990612bea565b600081815260696020908152604080832080546001600160a01b03199081169091556001600160a01b0387811680865260688552838620805460001901905590871680865283862080546001019055868652606790945282852080549092168417909155905184937fddf252ad1be2c89b69c2b068fc378daa952ba7f163c4a11628f55a4df523b3ef91a4505050565b33611ddc6116b3565b6001600160a01b0316146115165760405162461bcd60e51b815260206004820181905260248201527f4f776e61626c653a2063616c6c6572206973206e6f7420746865206f776e657260448201526064016108a9565b609780546001600160a01b038381166001600160a01b0319831681179093556040519116919082907f8be0079c531659141344cd1fd0a4f28419497f9722a3daafe3b4186f6b6457e090600090a35050565b600054610100900460ff16611eab5760405162461bcd60e51b81526004016108a990612c2f565b6116e18282612170565b600054610100900460ff16611edc5760405162461bcd60e51b81526004016108a990612c2f565b6115166121b0565b816001600160a01b0316836001600160a01b031603611f455760405162461bcd60e51b815260206004820152601960248201527f4552433732313a20617070726f766520746f2063616c6c65720000000000000060448201526064016108a9565b6001600160a01b038381166000818152606a6020908152604080832094871680845294825291829020805460ff191686151590811790915591519182527f17307eab39ab6107e8899845ad3d59bd9653f200f220920489ca2b5937696c31910160405180910390a3505050565b611fbd848484611c6f565b611fc9848484846121e0565b6117e05760405162461bcd60e51b81526004016108a990612c7a565b6001600160a01b03821661203b5760405162461bcd60e51b815260206004820181905260248201527f4552433732313a206d696e7420746f20746865207a65726f206164647265737360448201526064016108a9565b6000818152606760205260409020546001600160a01b0316156120a05760405162461bcd60e51b815260206004820152601c60248201527f4552433732313a20746f6b656e20616c7265616479206d696e7465640000000060448201526064016108a9565b6000818152606760205260409020546001600160a01b0316156121055760405162461bcd60e51b815260206004820152601c60248201527f4552433732313a20746f6b656e20616c7265616479206d696e7465640000000060448201526064016108a9565b6001600160a01b038216600081815260686020908152604080832080546001019055848352606790915280822080546001600160a01b0319168417905551839291907fddf252ad1be2c89b69c2b068fc378daa952ba7f163c4a11628f55a4df523b3ef908290a45050565b600054610100900460ff166121975760405162461bcd60e51b81526004016108a990612c2f565b60656121a383826129d3565b50606661094a82826129d3565b600054610100900460ff166121d75760405162461bcd60e51b81526004016108a990612c2f565b61151633611e32565b60006001600160a01b0384163b156122d657604051630a85bd0160e11b81526001600160a01b0385169063150b7a0290612224903390899088908890600401612ccc565b6020604051808303816000875af192505050801561225f575060408051601f3d908101601f1916820190925261225c91810190612d09565b60015b6122bc573d80801561228d576040519150601f19603f3d011682016040523d82523d6000602084013e612292565b606091505b5080516000036122b45760405162461bcd60e51b81526004016108a990612c7a565b805181602001fd5b6001600160e01b031916630a85bd0160e11b149050611013565b506001949350505050565b6001600160e01b0319811681146119a557600080fd5b60006020828403121561230957600080fd5b813561179a816122e1565b60005b8381101561232f578181015183820152602001612317565b50506000910152565b60008151808452612350816020860160208601612314565b601f01601f19169290920160200192915050565b60208152600061179a6020830184612338565b60006020828403121561238957600080fd5b5035919050565b6001600160a01b03811681146119a557600080fd5b80356123b081612390565b919050565b600080604083850312156123c857600080fd5b82356123d381612390565b946020939093013593505050565b634e487b7160e01b600052604160045260246000fd5b604051601f8201601f1916810167ffffffffffffffff81118282101715612420576124206123e1565b604052919050565b6000602080838503121561243b57600080fd5b823567ffffffffffffffff8082111561245357600080fd5b818501915085601f83011261246757600080fd5b813581811115612479576124796123e1565b8060051b915061248a8483016123f7565b81815291830184019184810190888411156124a457600080fd5b938501935b838510156124ce57843592506124be83612390565b82825293850193908501906124a9565b98975050505050505050565b6000806000606084860312156124ef57600080fd5b83356124fa81612390565b9250602084013561250a81612390565b929592945050506040919091013590565b6000806040838503121561252e57600080fd5b823561253981612390565b91506020830135801515811461254e57600080fd5b809150509250929050565b60006020828403121561256b57600080fd5b813561179a81612390565b602080825282518282018190526000919060409081850190868401855b828110156125cb57815180516001600160a01b0316855286810151878601528501518585015260609093019290850190600101612593565b5091979650505050505050565b600067ffffffffffffffff8211156125f2576125f26123e1565b50601f01601f191660200190565b600061261361260e846125d8565b6123f7565b905082815283838301111561262757600080fd5b828260208301376000602084830101529392505050565b600082601f83011261264f57600080fd5b61179a83833560208501612600565b60008060008060008060008060008060006101608c8e03121561268057600080fd5b6126898c6123a5565b9a5067ffffffffffffffff8060208e013511156126a557600080fd5b6126b58e60208f01358f0161263e565b9a508060408e013511156126c857600080fd5b6126d88e60408f01358f0161263e565b99508060608e013511156126eb57600080fd5b6126fb8e60608f01358f0161263e565b98508060808e0135111561270e57600080fd5b61271e8e60808f01358f0161263e565b97508060a08e0135111561273157600080fd5b506127428d60a08e01358e0161263e565b955060c08c0135945060e08c013593506101008c013592506127676101208d016123a5565b91506101408c013590509295989b509295989b9093969950565b6000806000806080858703121561279757600080fd5b84356127a281612390565b935060208501356127b281612390565b925060408501359150606085013567ffffffffffffffff8111156127d557600080fd5b8501601f810187136127e657600080fd5b6127f587823560208401612600565b91505092959194509250565b6000806040838503121561281457600080fd5b823561281f81612390565b9150602083013561254e81612390565b600181811c9082168061284357607f821691505b60208210810361114b57634e487b7160e01b600052602260045260246000fd5b634e487b7160e01b600052601160045260246000fd5b8082018082111561077657610776612863565b8181038181111561077657610776612863565b6020808252602d908201527f4552433732313a2063616c6c6572206973206e6f7420746f6b656e206f776e6560408201526c1c881bdc88185c1c1c9bdd9959609a1b606082015260800190565b60208082526033908201527f4576656e7420686173206e6f7420737461727465642e204f776e6572206d75736040820152723a1039b2ba20b8383937bb32b226b4b73a32b960691b606082015260800190565b808202811582820484141761077657610776612863565b634e487b7160e01b600052603260045260246000fd5b60006001820161297e5761297e612863565b5060010190565b601f82111561094a57600081815260208120601f850160051c810160208610156129ac5750805b601f850160051c820191505b818110156129cb578281556001016129b8565b505050505050565b815167ffffffffffffffff8111156129ed576129ed6123e1565b612a01816129fb845461282f565b84612985565b602080601f831160018114612a365760008415612a1e5750858301515b600019600386901b1c1916600185901b1785556129cb565b600085815260208120601f198616915b82811015612a6557888601518255948401946001909101908401612a46565b5085821015612a835787850151600019600388901b60f8161c191681555b5050505050600190811b01905550565b60008154612aa08161282f565b808552602060018381168015612abd5760018114612ad757612b05565b60ff1985168884015283151560051b880183019550612b05565b866000528260002060005b85811015612afd5781548a8201860152908301908401612ae2565b890184019650505b505050505092915050565b60c081526000612b2360c0830189612338565b8281036020840152612b358189612a93565b90508281036040840152612b498188612a93565b90508281036060840152612b5d8187612a93565b6080840195909552505060a00152949350505050565b600060208284031215612b8557600080fd5b815167ffffffffffffffff811115612b9c57600080fd5b8201601f81018413612bad57600080fd5b8051612bbb61260e826125d8565b818152856020838501011115612bd057600080fd5b612be1826020830160208601612314565b95945050505050565b60208082526025908201527f4552433732313a207472616e736665722066726f6d20696e636f72726563742060408201526437bbb732b960d91b606082015260800190565b6020808252602b908201527f496e697469616c697a61626c653a20636f6e7472616374206973206e6f74206960408201526a6e697469616c697a696e6760a81b606082015260800190565b60208082526032908201527f4552433732313a207472616e7366657220746f206e6f6e20455243373231526560408201527131b2b4bb32b91034b6b83632b6b2b73a32b960711b606082015260800190565b6001600160a01b0385811682528416602082015260408101839052608060608201819052600090612cff90830184612338565b9695505050505050565b600060208284031215612d1b57600080fd5b815161179a816122e156fea2646970667358221220ae6cbf94c202d8b97790741d1b4837f7ed7e89776828834a6010e22f7da943fd64736f6c63430008130033",
  "devdoc": {
    "events": {
      "Approval(address,address,uint256)": {
        "details": "Emitted when `owner` enables `approved` to manage the `tokenId` token."
      },
      "ApprovalForAll(address,address,bool)": {
        "details": "Emitted when `owner` enables or disables (`approved`) `operator` to manage all of its assets."
      },
      "Initialized(uint8)": {
        "details": "Triggered when the contract has been initialized or reinitialized."
      },
      "Transfer(address,address,uint256)": {
        "details": "Emitted when `tokenId` token is transferred from `from` to `to`."
      }
    },
    "kind": "dev",
    "methods": {
      "approve(address,uint256)": {
        "details": "See {IERC721-approve}."
      },
      "balanceOf(address)": {
        "details": "See {IERC721-balanceOf}."
      },
      "getApproved(uint256)": {
        "details": "See {IERC721-getApproved}."
      },
      "isApprovedForAll(address,address)": {
        "details": "See {IERC721-isApprovedForAll}."
      },
      "name()": {
        "details": "See {IERC721Metadata-name}."
      },
      "ownerOf(uint256)": {
        "details": "See {IERC721-ownerOf}."
      },
      "renounceOwnership()": {
        "details": "Leaves the contract without owner. It will not be possible to call `onlyOwner` functions anymore. Can only be called by the current owner. NOTE: Renouncing ownership will leave the contract without an owner, thereby removing any functionality that is only available to the owner."
      },
      "safeTransferFrom(address,address,uint256)": {
        "details": "See {IERC721-safeTransferFrom}."
      },
      "safeTransferFrom(address,address,uint256,bytes)": {
        "details": "See {IERC721-safeTransferFrom}."
      },
      "setApprovalForAll(address,bool)": {
        "details": "See {IERC721-setApprovalForAll}."
      },
      "supportsInterface(bytes4)": {
        "details": "See {IERC165-supportsInterface}."
      },
      "symbol()": {
        "details": "See {IERC721Metadata-symbol}."
      },
      "tokenURI(uint256)": {
        "details": "See {IERC721Metadata-tokenURI}."
      },
      "totalSupply()": {
        "details": "returns the number of minted tokens within the edition"
      },
      "transferFrom(address,address,uint256)": {
        "details": "See {IERC721-transferFrom}."
      },
      "transferOwnership(address)": {
        "details": "Transfers ownership of the contract to a new account (`newOwner`). Can only be called by the current owner."
      }
    },
    "version": 1
  },
  "userdoc": {
    "kind": "user",
    "methods": {
      "numberCanMint()": {
        "notice": "Returns the number of editions allowed to mint (max_uint256 when open edition)"
      }
    },
    "version": 1
  },
  "storageLayout": {
    "storage": [
      {
        "astId": 800,
        "contract": "contracts/Tickets/TicketNftV1.sol:TicketNftV1",
        "label": "_initialized",
        "offset": 0,
        "slot": "0",
        "type": "t_uint8"
      },
      {
        "astId": 803,
        "contract": "contracts/Tickets/TicketNftV1.sol:TicketNftV1",
        "label": "_initializing",
        "offset": 1,
        "slot": "0",
        "type": "t_bool"
      },
      {
        "astId": 3286,
        "contract": "contracts/Tickets/TicketNftV1.sol:TicketNftV1",
        "label": "__gap",
        "offset": 0,
        "slot": "1",
        "type": "t_array(t_uint256)50_storage"
      },
      {
        "astId": 3579,
        "contract": "contracts/Tickets/TicketNftV1.sol:TicketNftV1",
        "label": "__gap",
        "offset": 0,
        "slot": "51",
        "type": "t_array(t_uint256)50_storage"
      },
      {
        "astId": 1118,
        "contract": "contracts/Tickets/TicketNftV1.sol:TicketNftV1",
        "label": "_name",
        "offset": 0,
        "slot": "101",
        "type": "t_string_storage"
      },
      {
        "astId": 1120,
        "contract": "contracts/Tickets/TicketNftV1.sol:TicketNftV1",
        "label": "_symbol",
        "offset": 0,
        "slot": "102",
        "type": "t_string_storage"
      },
      {
        "astId": 1124,
        "contract": "contracts/Tickets/TicketNftV1.sol:TicketNftV1",
        "label": "_owners",
        "offset": 0,
        "slot": "103",
        "type": "t_mapping(t_uint256,t_address)"
      },
      {
        "astId": 1128,
        "contract": "contracts/Tickets/TicketNftV1.sol:TicketNftV1",
        "label": "_balances",
        "offset": 0,
        "slot": "104",
        "type": "t_mapping(t_address,t_uint256)"
      },
      {
        "astId": 1132,
        "contract": "contracts/Tickets/TicketNftV1.sol:TicketNftV1",
        "label": "_tokenApprovals",
        "offset": 0,
        "slot": "105",
        "type": "t_mapping(t_uint256,t_address)"
      },
      {
        "astId": 1138,
        "contract": "contracts/Tickets/TicketNftV1.sol:TicketNftV1",
        "label": "_operatorApprovals",
        "offset": 0,
        "slot": "106",
        "type": "t_mapping(t_address,t_mapping(t_address,t_bool))"
      },
      {
        "astId": 2040,
        "contract": "contracts/Tickets/TicketNftV1.sol:TicketNftV1",
        "label": "__gap",
        "offset": 0,
        "slot": "107",
        "type": "t_array(t_uint256)44_storage"
      },
      {
        "astId": 589,
        "contract": "contracts/Tickets/TicketNftV1.sol:TicketNftV1",
        "label": "_owner",
        "offset": 0,
        "slot": "151",
        "type": "t_address"
      },
      {
        "astId": 709,
        "contract": "contracts/Tickets/TicketNftV1.sol:TicketNftV1",
        "label": "__gap",
        "offset": 0,
        "slot": "152",
        "type": "t_array(t_uint256)49_storage"
      },
      {
        "astId": 14841,
        "contract": "contracts/Tickets/TicketNftV1.sol:TicketNftV1",
        "label": "atEditionId",
        "offset": 0,
        "slot": "201",
        "type": "t_struct(Counter)3293_storage"
      },
      {
        "astId": 14859,
        "contract": "contracts/Tickets/TicketNftV1.sol:TicketNftV1",
        "label": "description",
        "offset": 0,
        "slot": "202",
        "type": "t_string_storage"
      },
      {
        "astId": 14861,
        "contract": "contracts/Tickets/TicketNftV1.sol:TicketNftV1",
        "label": "animationUrl",
        "offset": 0,
        "slot": "203",
        "type": "t_string_storage"
      },
      {
        "astId": 14863,
        "contract": "contracts/Tickets/TicketNftV1.sol:TicketNftV1",
        "label": "imageUrl",
        "offset": 0,
        "slot": "204",
        "type": "t_string_storage"
      },
      {
        "astId": 14865,
        "contract": "contracts/Tickets/TicketNftV1.sol:TicketNftV1",
        "label": "editionSize",
        "offset": 0,
        "slot": "205",
        "type": "t_uint256"
      },
      {
        "astId": 14867,
        "contract": "contracts/Tickets/TicketNftV1.sol:TicketNftV1",
        "label": "salePrice",
        "offset": 0,
        "slot": "206",
        "type": "t_uint256"
      },
      {
        "astId": 14869,
        "contract": "contracts/Tickets/TicketNftV1.sol:TicketNftV1",
        "label": "minCustomers",
        "offset": 0,
        "slot": "207",
        "type": "t_uint256"
      },
      {
        "astId": 14871,
        "contract": "contracts/Tickets/TicketNftV1.sol:TicketNftV1",
        "label": "maxTokens",
        "offset": 0,
        "slot": "208",
        "type": "t_uint256"
      },
      {
        "astId": 14874,
        "contract": "contracts/Tickets/TicketNftV1.sol:TicketNftV1",
        "label": "active",
        "offset": 0,
        "slot": "209",
        "type": "t_bool"
      },
      {
        "astId": 14877,
        "contract": "contracts/Tickets/TicketNftV1.sol:TicketNftV1",
        "label": "isComplete",
        "offset": 1,
        "slot": "209",
        "type": "t_bool"
      },
      {
        "astId": 14879,
        "contract": "contracts/Tickets/TicketNftV1.sol:TicketNftV1",
        "label": "startTime",
        "offset": 0,
        "slot": "210",
        "type": "t_uint256"
      },
      {
        "astId": 14881,
        "contract": "contracts/Tickets/TicketNftV1.sol:TicketNftV1",
        "label": "endTime",
        "offset": 0,
        "slot": "211",
        "type": "t_uint256"
      },
      {
        "astId": 14884,
        "contract": "contracts/Tickets/TicketNftV1.sol:TicketNftV1",
        "label": "EntryCount",
        "offset": 0,
        "slot": "212",
        "type": "t_uint256"
      },
      {
        "astId": 14886,
        "contract": "contracts/Tickets/TicketNftV1.sol:TicketNftV1",
        "label": "bunyBank",
        "offset": 0,
        "slot": "213",
        "type": "t_address_payable"
      },
      {
        "astId": 14890,
        "contract": "contracts/Tickets/TicketNftV1.sol:TicketNftV1",
        "label": "entry",
        "offset": 0,
        "slot": "214",
        "type": "t_array(t_struct(Entry)14908_storage)dyn_storage"
      },
      {
        "astId": 14893,
        "contract": "contracts/Tickets/TicketNftV1.sol:TicketNftV1",
        "label": "nftTokenIds",
        "offset": 0,
        "slot": "215",
        "type": "t_array(t_uint256)dyn_storage"
      },
      {
        "astId": 14897,
        "contract": "contracts/Tickets/TicketNftV1.sol:TicketNftV1",
        "label": "mintedTokens",
        "offset": 0,
        "slot": "216",
        "type": "t_mapping(t_address,t_bool)"
      },
      {
        "astId": 14901,
        "contract": "contracts/Tickets/TicketNftV1.sol:TicketNftV1",
        "label": "allowedMinters",
        "offset": 0,
        "slot": "217",
        "type": "t_mapping(t_address,t_bool)"
      }
    ],
    "types": {
      "t_address": {
        "encoding": "inplace",
        "label": "address",
        "numberOfBytes": "20"
      },
      "t_address_payable": {
        "encoding": "inplace",
        "label": "address payable",
        "numberOfBytes": "20"
      },
      "t_array(t_struct(Entry)14908_storage)dyn_storage": {
        "base": "t_struct(Entry)14908_storage",
        "encoding": "dynamic_array",
        "label": "struct TicketNftV1.Entry[]",
        "numberOfBytes": "32"
      },
      "t_array(t_uint256)44_storage": {
        "base": "t_uint256",
        "encoding": "inplace",
        "label": "uint256[44]",
        "numberOfBytes": "1408"
      },
      "t_array(t_uint256)49_storage": {
        "base": "t_uint256",
        "encoding": "inplace",
        "label": "uint256[49]",
        "numberOfBytes": "1568"
      },
      "t_array(t_uint256)50_storage": {
        "base": "t_uint256",
        "encoding": "inplace",
        "label": "uint256[50]",
        "numberOfBytes": "1600"
      },
      "t_array(t_uint256)dyn_storage": {
        "base": "t_uint256",
        "encoding": "dynamic_array",
        "label": "uint256[]",
        "numberOfBytes": "32"
      },
      "t_bool": {
        "encoding": "inplace",
        "label": "bool",
        "numberOfBytes": "1"
      },
      "t_mapping(t_address,t_bool)": {
        "encoding": "mapping",
        "key": "t_address",
        "label": "mapping(address => bool)",
        "numberOfBytes": "32",
        "value": "t_bool"
      },
      "t_mapping(t_address,t_mapping(t_address,t_bool))": {
        "encoding": "mapping",
        "key": "t_address",
        "label": "mapping(address => mapping(address => bool))",
        "numberOfBytes": "32",
        "value": "t_mapping(t_address,t_bool)"
      },
      "t_mapping(t_address,t_uint256)": {
        "encoding": "mapping",
        "key": "t_address",
        "label": "mapping(address => uint256)",
        "numberOfBytes": "32",
        "value": "t_uint256"
      },
      "t_mapping(t_uint256,t_address)": {
        "encoding": "mapping",
        "key": "t_uint256",
        "label": "mapping(uint256 => address)",
        "numberOfBytes": "32",
        "value": "t_address"
      },
      "t_string_storage": {
        "encoding": "bytes",
        "label": "string",
        "numberOfBytes": "32"
      },
      "t_struct(Counter)3293_storage": {
        "encoding": "inplace",
        "label": "struct CountersUpgradeable.Counter",
        "members": [
          {
            "astId": 3292,
            "contract": "contracts/Tickets/TicketNftV1.sol:TicketNftV1",
            "label": "_value",
            "offset": 0,
            "slot": "0",
            "type": "t_uint256"
          }
        ],
        "numberOfBytes": "32"
      },
      "t_struct(Entry)14908_storage": {
        "encoding": "inplace",
        "label": "struct TicketNftV1.Entry",
        "members": [
          {
            "astId": 14903,
            "contract": "contracts/Tickets/TicketNftV1.sol:TicketNftV1",
            "label": "customer",
            "offset": 0,
            "slot": "0",
            "type": "t_address"
          },
          {
            "astId": 14905,
            "contract": "contracts/Tickets/TicketNftV1.sol:TicketNftV1",
            "label": "EntryNumber",
            "offset": 0,
            "slot": "1",
            "type": "t_uint256"
          },
          {
            "astId": 14907,
            "contract": "contracts/Tickets/TicketNftV1.sol:TicketNftV1",
            "label": "entryTime",
            "offset": 0,
            "slot": "2",
            "type": "t_uint256"
          }
        ],
        "numberOfBytes": "96"
      },
      "t_uint256": {
        "encoding": "inplace",
        "label": "uint256",
        "numberOfBytes": "32"
      },
      "t_uint8": {
        "encoding": "inplace",
        "label": "uint8",
        "numberOfBytes": "1"
      }
    }
  }
}